:10000000001000207D06000079060000790600003F
:1000100000000000000000000000000000000000E0
:100020000000000000000000000000007906000051
:10003000000000000000000079060000B10300008D
:1000400079060000790600007906000079060000B4
:100050007906000079060000790600000000000023
:1000600079060000510600006506000079060000D0
:100070007906000079060000790600007906000084
:1000800079060000790600007906000010B5064CDC
:100090002378002B07D1054B002B02D0044800E049
:1000A00000BF0123237010BD0800002000000000E5
:1000B0002C080000044B10B5002B03D00349044862
:1000C00000E000BF10BDC046000000000C00002092
:1000D0002C08000082B030B583B00400684600915F
:1000E00042600793230006C806C3180083229200CB
:1000F00007A900F075FB61680122100088402368A1
:10010000DB010B4DAC46634498605B1840331978B3
:1001100002208143197063689A402368DB016344BD
:100120009A61200003B030BC08BC02B01847C0463A
:10013000004400417047FFFFF0B5184CA54401286A
:1001400002D0174B9D44F0BD164B9942F9D1FFAC3C
:1001500018340023236002226260FFAA2032124971
:100160001000E0C9E0C060C960C0104982A800F07A
:100170003FF90F4D8222920083A9684600F030FBC0
:10018000829BFFAA1832116862682800FFF7A2FF5D
:10019000084A0949280000F0C1FAD2E7CCFBFFFF6A
:1001A00034040000FFFF0000F407000000080042D4
:1001B00024000020000000203501000010B500F0F0
:1001C000B9F8064B1022DA6100F0DAF8040000F00A
:1001D000D7F8001BF928FAD9F3E7C04600440041DC
:1001E00010B502490120FFF7A7FF10BDFFFF000077
:1001F000484A116AC0239B000B43136246494A6870
:100200001E239A431C3B13434B60444A91690823C5
:100210000B439361424A137801210B431370404B07
:100220001B78DB0703D53E4B5B78DB09F7D1394BF5
:10023000196A802291431962394B3A4A9A603A4AC4
:100240005A60374B5B78DB09FBD1354B8622D201F4
:100250005A80334B5B78DB09FBD12E4A938C80218B
:100260008B4393842B4BDB68DB06FBD5294BDA6A87
:10027000120C1204C02109011143D962DA6A9201F9
:1002800092098021C9041143D962D96A274A1140D1
:10029000802252020A43DA621E4BDB68DB06FBD582
:1002A0001C4A938C812189000B439384194BDB6892
:1002B000DB06FBD5174B996880220A439A60996840
:1002C00040220A439A60996810220A439A609A8CE5
:1002D00002210A439A840F4BDB68DB06FBD50D4BEA
:1002E0009B681B0603D40B4B9B685B06F7D5094B39
:1002F0009B68DB06FBD50A4B00229A60084B5B78B3
:10030000DB09FBD1064B0A4A5A60054B5B78DB09D7
:10031000FBD170470008004000400041000400404D
:10032000000C00400340000003060100FFFF00FC3A
:100330000007030010B5FFF75BFF0B4B0020002107
:10034000186059600022094B1A60094B1A60094B6A
:100350001A60094A5A609A6007221A60074B802285
:1003600012061A6010BDC04638020020400200206C
:100370004402002010E000E0FFFFFF0000E100E089
:1003800010B5074B9B680748C01A074A0023002195
:1003900000F0CCF9C808054B1968401810BDC046DC
:1003A00010E000E0FFFFFF0034EC0A0044020020F0
:1003B00030B50B490A684B68802464040025121983
:1003C0006B410A604B60074A136807498C466344D7
:1003D0001360064A13685E33FF33136030BDC046B6
:1003E000380200204002002055550500440200203C
:1003F000F0B5D6464F464646C0B59A460160784CA1
:10040000A14200D1A2E0774C2060774D2C6A0426EF
:1004100034432C62754C764D6580947C002C00D161
:100420009FE0032715685668F30700D49BE0F40F9C
:10043000A419631098460F239C461F40EC016D4B96
:1004400099464C4444443034237899463B019846BD
:1004500067464B461F4043461F432770EC01654DDE
:10046000AC466444A41940342578012635432570F0
:10047000D47C002C00D18EE003279568D668F30762
:1004800000D48AE0F40FA419631098460F239C4609
:100490001F40EC01574B99464C4444443034237878
:1004A00099463B01984667464B461F4043461F43CB
:1004B0002770EC014F4DAC466444A41940342578B4
:1004C0000126354325700C680225AC430C600C688E
:1004D000013D2C430C600C68E407FCD40C681C251F
:1004E000AC43183D2C430C600D688024E4052C437C
:1004F0000C60167C032426400D6836043E4F3D40B8
:1005000035430D60557C0A682C4024053B4D2A403C
:1005100014430C6053468B81C0239B024B608123A4
:100520009B000122C2528B7D042213438B75344BF6
:1005300099424AD02A4B99424CD00B68022213436D
:100540000B601CBC90469946A246F0BD2D4C206025
:10055000254D2C6A082634432C62244C2A4D658094
:100560005BE702275EE7F40FA41963109C46EC01D9
:10057000204B98464444644430239946A1444B465A
:100580001B789C460F23984663464446A3431F436B
:100590004B461F7062E702276FE7F40FA419631040
:1005A0009C46EC01134B98464444644430239946DE
:1005B000A1444B461B789C460F239846634644460D
:1005C000A3431F434B461F7073E7104B80229200DA
:1005D0001A60B2E70D4B8022D2001A60ADE7C04628
:1005E000000C00424802002000040040000C0040C3
:1005F0000E40000000440041FFFFFCFFFFFFCFFF63
:10060000000800424C0200200F40000000E100E022
:1006100010B582239B00C35C002B13D103681C8D93
:1006200081229200835AC1180C710133DB05DB0D66
:100630008352064A825A9B1A5A425341822292009E
:10064000835410BD03681B8DFBE7C0460602000003
:1006500010B5034B1868002801D0FFF7D9FF10BD73
:100660004802002010B5034B1868002801D0FFF79E
:10067000CFFF10BD4C020020FEE7FFFF10B51D4A62
:100680001D4B9A4207D01C4B1A4A01E002CA02C312
:100690001A498B42FAD31A4B01E0002204C3194ACB
:1006A0009342FAD3184B7F229343184A9360184A17
:1006B00090235B000221D150164B9A7B2E318A4346
:1006C00020210A439A739A7B0C218A4308210A430A
:1006D0009A739A7B03218A4302210A439A730E4A32
:1006E000516880230B43536000F056F8FFF766FD16
:1006F000FEE7C0462C080000000000200400002097
:1007000008000020500200200000000000ED00E082
:10071000007000410048004100400041030010B556
:100720000800190000F02AF810BDFFFFF0B515040D
:100730002D0C0F0001002E00C64684460004140C48
:10074000000C090C46434D43604361434019340C8F
:10075000241800B5A54203D98020400280464144B8
:10076000250C6D18614659437A4330044919240415
:10077000000C2018891804BC9046F0BD10B5040088
:1007800004481300002804D00A000220210000E0E1
:1007900000BF10BD0000000070B500260C4D0D4CD0
:1007A000641BA410A64209D1002600F02DF80A4DC2
:1007B0000A4C641BA410A64205D170BDB300EB58CF
:1007C00098470136EEE7B300EB5898470136F2E759
:1007D0001408000014080000140800001C080000A1
:1007E000002310B59A4200D110BDCC5CC454013333
:1007F000F8E7FFFF00000000180000000000000004
:100800001900000001030000F8B5C046F8BC08BCA0
:100810009E467047B5000000E1010000F8B5C046F3
:0C082000F8BC08BC9E4670478D0000002C
:04082C0000000000C8
:040000030000067D76
:00000001FF
