:10000000001000205D0B0000590B0000590B000090
:1000100000000000000000000000000000000000E0
:10002000000000000000000000000000590B00006C
:100030000000000000000000590B0000290600002D
:10004000590B0000590B0000590B0000590B000020
:10005000590B0000590B0000590B00000000000074
:10006000590B0000290B0000390B0000590B000050
:10007000590B0000590B0000590B0000590B0000F0
:10008000590B0000590B0000590B000010B5064C2D
:100090002378002B07D1054B002B02D0044800E049
:1000A00000BF0123237010BD780000200000000075
:1000B000A41C0000044B10B5002B03D003490448D6
:1000C00000E000BF10BDC046000000007C00002022
:1000D000A41C000070B582B06C4600916260020002
:1000E000210060C960C283606168012214008C40F5
:1000F0000368DB01084DAC4663449C605B184033E9
:1001000019780224A143197043689A400368DB01FF
:1001100063449A6102B070BD004400417047FFFF24
:10012000F8B5040017001E008368002281208000BB
:100130001A5224481A520020822292009854A06831
:1001400000F0D6FB0D21A06800F0C4FB00F060FABF
:10015000050012E081229200995A1A4A9B5AC91A44
:1001600089B280239B009C46614489B2002916D144
:1001700000F04EFA401BB0421FD2A36881229200C9
:10018000995A89B20F4A9A5A92B29142E2D3812285
:100190009200995A0B4A9B5AC91A89B2E6E70A4853
:1001A00001F076FD002F0AD0A068390000F02EFC87
:1001B0000130431E9841C0B200E00020F8BD01208C
:1001C000FCE7C04606020000A0860100F8B5CE4656
:1001D000474680B580460F0016001D00089B9946D3
:1001E0000024AC420CDA4B46320039004046FFF79F
:1001F00097FF002805D1054801F04AFD0134F0E7DA
:1002000000200CBC90469946F8BDC04620A10700CE
:10021000F0B583B004000D21806800F05BFB002680
:1002200000E00136022E25DC01252A0063689A4091
:100230002368DB0111498C4663445A61104F380032
:1002400001F026FD63689D402368DB010B4A94465C
:1002500063449D61380001F01BFDFA235B000093AD
:10026000EF3BFF3B074A08492000FFF7AFFF00289C
:10027000D7D000E0002003B0F0BDC04600440041EC
:1002800040420F00941A0000981A000030B583B065
:100290000500FFF7BDFF041E02D1200003B030BDF2
:1002A000104C2300002210492800FFF739FF00946A
:1002B00019230E4A0E492800FFF788FF041EECD0D0
:1002C000084B00220B492800FFF72AFFAB680022E9
:1002D000812189005A5208495A52002182229200F3
:1002E0009954DAE7B80B00009C1A0000A41A000029
:1002F000B01A0000BC1A00000602000030B583B03E
:100300000400826881239B00D15A89B2224BD35AC0
:100310009BB299420AD381239B00D35A1E49525A59
:100320009B1A9BB2002B0ED103B030BD81239B00E2
:10033000D35A1949525A9B1A9BB280229200944672
:1003400063449BB2EEE7154801F0A2FCA06800F000
:10035000A9FB0500C046124900F0C5FD002809D0E0
:10036000104B002210492000FFF7DAFE280000F0B1
:10037000C5FCD9E70D49280000F0B5FD0028F5D0EF
:1003800001235B4201930949280000F0ACFD01AA5A
:10039000074900F077FDE9E706020000A0860100AA
:1003A000C81A0000B80B0000D01A0000D41A0000D0
:1003B000DC1A000010B582B0012801D002B010BDD7
:1003C000074B9942FAD1074C074B0021022220002B
:1003D000FFF780FE054A0649200000F023FCEDE708
:1003E000FFFF000094000020B40200200C00002059
:1003F0001D01000030B587B001A9124B0A0031CBB6
:1004000031C211CB11C2104A104800F047F9104B0D
:1004100010229A6044215A5C022082435A540D48AB
:10042000FFF734FF002806D1094B1022DA610A4891
:1004300001F02EFCF8E70748FFF760FF044B10229D
:10044000DA61F8E7741A00002BF60000B40200200D
:100450000044004194000020400D030010B5024903
:100460000120FFF7A7FF10BDFFFF0000484A116AF7
:10047000C0239B000B43136246494A681E239A43DC
:100480001C3B13434B60444A916908230B4393611F
:10049000424A137801210B431370404B1B78DB0752
:1004A00003D53E4B5B78DB09F7D1394B196A8022C3
:1004B00091431962394B3A4A9A603A4A5A60374B2B
:1004C0005B78DB09FBD1354B8622D2015A80334B56
:1004D0005B78DB09FBD12E4A938C80218B4393847C
:1004E0002B4BDB68DB06FBD5294BDA6A120C1204B6
:1004F000C02109011143D962DA6A9201920980216F
:10050000C9041143D962D96A274A11408022520294
:100510000A43DA621E4BDB68DB06FBD51C4A938C70
:10052000812189000B439384194BDB68DB06FBD5E3
:10053000174B996880220A439A60996840220A43BF
:100540009A60996810220A439A609A8C02210A43A1
:100550009A840F4BDB68DB06FBD50D4B9B681B06B3
:1005600003D40B4B9B685B06F7D5094B9B68DB06F6
:10057000FBD50A4B00229A60084B5B78DB09FBD164
:10058000064B0A4A5A60054B5B78DB09FBD1704782
:10059000000800400040004100040040000C004002
:1005A0000340000003060100FFFF00FC00070300FA
:1005B00010B5FFF75BFF094B002000211860596060
:1005C000074B00221A60074A5A609A6007221A6095
:1005D000054B802212061A6010BDC046A000002004
:1005E00010E000E0FFFFFF0000E100E0054B9B682A
:1005F000054AD01A0021054B1A685B6880185941DA
:100600007047C04610E000E0FFFFFF00A0000020A0
:1006100010B5FFF7EBFF034A002300F00BFBC808FF
:1006200010BDC04634EC0A0030B505490A684B6875
:1006300080246404002512196B410A604B6030BDB0
:10064000A000002070B5012800D070BD0C4B99426D
:10065000FBD10C4A8125AD00002353530A4C1353A0
:1006600082208000135409495354094E1660094AE8
:100670005353135313545354074B1360E5E7C046C9
:10068000FFFF0000A8000020060200000902000091
:1006900000080042B4020020000C0042F0B5CE4633
:1006A000474680B591466C4B04689C4200D19DE062
:1006B0006A4C236A04252B432362694B694C5C8096
:1006C0008B7C002B00D19AE003260C684D68EB0769
:1006D00000D496E0EB0F5B195B109C460F273E4061
:1006E000E301614A90464344634430331A7836014B
:1006F000174037431F70E3015B4CA44663445B190A
:1007000040331C7801252C431C70CB7C002B00D17E
:1007100086E003268C68CD68EB0700D482E0EB0FFF
:100720005B195B109C460F273E40E3014E4A904602
:100730004344634430331A783601174037431F70FF
:10074000E301494CA44663445B1940331C780125FE
:100750002C431C70046823680225AB4323600468A3
:100760002368013D2B43236003681C68E407FBD426
:100770001C681C25AC43183D2C431C60046825688C
:100780008023DB052B43236006680D7C03231D407B
:1007900034682D04354F3C402C43346004684D7C54
:1007A00021682B401B05324D29400B432360036811
:1007B0004A469A810368C02292025A600268937D79
:1007C00004210B43937503682A4A934239D0224A85
:1007D00093423BD00268136802210B431360264BFF
:1007E0000122C2540CBC90469946F0BD1B4C236AB2
:1007F00008252B4323621A4B204C5C8060E70226BD
:1008000063E7EB0F5B195F10E301174A94466344FB
:10081000DB1930331F780F2297433E431E706AE77F
:10082000022677E7EB0F5B195F10E3010E4A94464F
:100830006344DB1930331F780F2297433E431E7009
:100840007EE70F4B802292001A60C3E70C4B802298
:10085000D2001A60BEE7C046000C0042000400400F
:10086000000C00400E40000000440041FFFFFCFF70
:10087000FFFFCFFF00080042090200000F40000008
:1008800000E100E0114BC35C002B1BD082239B00D6
:10089000C35C002B17D10368198D81229200835A03
:1008A000C9B2C3181971835A0133DB05DB0D8352BA
:1008B000074BC35A825A9B1A5A425341DBB28222D7
:1008C00092008354704703681B8DFBE70902000008
:1008D00006020000054BC35C002B06D089B20368FA
:1008E000198503681B7EDB07FBD5704709020000F2
:1008F00070B505000C00064BC35C002B07D02178B7
:10090000002904D001342800FFF7E4FFF7E770BDA9
:100910000902000082239B00C35C002B0AD18123C3
:100920009B00C25A92B2054BC35A9BB29A4203D063
:10093000002000E0002070470120FCE706020000D4
:1009400010B504000C4BC35C002B13D02000FFF744
:10095000E1FF0028FAD1094AA35AE3181879C0B276
:1009600082239B000021E154A35A0133DB05DB0DF8
:10097000A35210BD0020FCE709020000060200009F
:1009800070B504000D001F4BC35C002B01D100208B
:1009900070BDFFF7BFFF00282FD181239B00E25AD3
:1009A00092B2194BE35A9BB29A4213D381239B0014
:1009B000E35A154AA25A9B1A9BB2AB421FDD6B1C2D
:1009C00015D0114BE05A4019C005C00D24182079EC
:1009D000C0B2DDE781239B00E35A0B4AA25A9B1A5F
:1009E0009BB280229200944663449BB2E5E7064B9B
:1009F000E05A24182079C0B2CAE70020C8E70020D6
:100A0000C6E7C0460902000006020000F0B5C6466F
:100A100000B507000D00214BC35C002B35D000232F
:100A2000984681239B00FA5A92B21D4BFB5A9BB207
:100A30009A4219D381239B00FB5A194ABA5A9B1A2E
:100A40009BB2434525DD00242E5D4346191938002D
:100A5000FFF796FF864214D101342B5D002BF3D1B2
:100A6000404604BC9046F0BD81239B00FB5A0C4AD3
:100A7000BA5A9B1A9BB280229200944663449BB25E
:100A8000DFE701239C46E044CBE701235B42984625
:100A9000E6E701235B429846E2E7C0460902000010
:100AA00006020000F0B5C64600B505001C4BC35C4D
:100AB000002B31D081239B00C25A92B2194BC35AEA
:100AC0009BB29A420FD381239B00C05A154BEB5A1D
:100AD000C01A80B28046002820D000F005F9071E19
:100AE00016D0002412E081239B00C05A0D4BEB5A14
:100AF000C01A80B280239B009C46604480B2E9E724
:100B00003E192800FFF71CFF307001344445F7D32D
:100B1000380004BC9046F0BD0027F9E70027F7E74E
:100B2000090200000602000010B50248FFF7AAFE05
:100B300010BDC046A800002010B50248FFF7A2FE75
:100B400010BDC046B402002010B502490120FFF7D5
:100B500079FD10BDFFFF0000FEE7FFFF10B51E4A44
:100B60001E4B9A4207D01D4B1B4A01E002CA02C32A
:100B70001B498B42FAD31B4B01E0002204C31A4AE3
:100B80009342FAD3194B7F229343194A9360194A2F
:100B900090235B000221D150174B9A7B2E318A4360
:100BA00020210A439A739A7B0C218A4308210A4325
:100BB0009A739A7B03218A4302210A439A730F4A4C
:100BC000516880230B435360FFF7F2FC00F068F894
:100BD000FFF710FCFEE7C046A41C00000000002048
:100BE0007400002078000020DC04002000000000D9
:100BF00000ED00E00070004100480041004000416D
:100C00000300064A1268002A04D0044A1068C31878
:100C100013607047014A02491160F6E7C0040020E2
:100C2000DC040020030010B50800190000F02AF8C9
:100C300010BDFFFFF0B515042D0C0F0001002E00B4
:100C4000C64684460004140C000C090C46434D4370
:100C5000604361434019340C241800B5A54203D900
:100C60008020400280464144250C6D18614659435E
:100C70007A43300449192404000C2018891804BC54
:100C80009046F0BD10B5040004481300002804D0BD
:100C90000A000220210000E000BF10BD000000009B
:100CA00070B500260C4D0D4C641BA410A64209D152
:100CB000002600F0DBFF0A4D0A4C641BA410A6427C
:100CC00005D170BDB300EB5898470136EEE7B3008D
:100CD000EB5898470136F2E7781C0000781C0000BA
:100CE000781C0000841C000010B5034B010018683C
:100CF00000F058F810BDC0461000002010B5034B9E
:100D00000100186800F004F810BDC0461000002073
:100D100070B50500002910D00C1F2368002B00DAE5
:100D2000E418280000F0F6F81D4A1368002B05D1DE
:100D300063601460280000F0F5F870BDA34208D984
:100D4000216860188342F3D118685B6841182160FC
:100D5000EEE71A005B68002B01D0A342F9D91168B5
:100D60005018A0420BD12068091850181160834216
:100D7000E0D118685B68411811605360DAE7A0425F
:100D800002D90C232B60D5E721686018834203D178
:100D900018685B684118216063605460CAE7C04608
:100DA000C4040020F8B50323CD1C9D43083506007C
:100DB0000C2D1FD20C25A9421ED8300000F0AAF835
:100DC00025490A681400002C1AD1244F3B68002BD7
:100DD00004D12100300000F043F8386029003000D1
:100DE00000F03EF8431C2BD10C233000336000F0A0
:100DF00099F803E0002DDEDA0C2333600020F8BD03
:100E000023685B1B19D40B2B03D92360E4182560DE
:100E100003E06368A2420ED10B60300000F082F85C
:100E2000200007220B30231D9043C21A9842E6D0BF
:100E30001B1AA350E3E75360EFE722006468C2E7A0
:100E40000323C41C9C43A042E1D0211A300000F0CF
:100E500007F8431CDBD1C7E7C4040020C804002006
:100E6000002370B5064D040008002B60FFF7C8FE94
:100E7000431C03D12B68002B00D0236070BDC046FB
:100E8000CC0400200EB430B581239CB06A461FAC60
:100E90009B0020CC93820290069000F01DF80B4B33
:100EA0006A460B9300230390079009480F9314930D
:100EB000013BD38202A923002A000068019400F0BC
:100EC00095F81CB030BC08BC03B01847D50E000024
:100ED00010000020002070470023C25C0133002A6C
:100EE000FBD1581E70470A7830B5002A0CD130BDAE
:100EF0009A4208D10123CC5C002CF8D0C55CA542F5
:100F000001D10133F7E701300378002BF0D118004D
:100F1000EDE7FFFF10B5024800F0D2FC10BDC0465F
:100F2000D404002010B5024800F0CBFC10BDC04630
:100F3000D404002070B514004B1C03D101256D4270
:100F4000280070BD938920229343626BA381CEB2A7
:100F50006368CDB2002A10D0A26B9A4207DD2368E5
:100F6000013B23601E70636801336360E8E7210082
:100F700000F068FC0028F2D0E0E72169226800292F
:100F800007D0914205D2511E0878A84201D12160B4
:100F9000EAE723642300443363630323A36323004A
:100FA0004633E2631E7023600123DEE710B50C00B8
:100FB000496B00290ED023004433994201D0FFF73A
:100FC000A7FE0020236C60636360834202D0E36B62
:100FD000236010BD2369012023600023A289636080
:100FE00020331343A3814042F3E7FFFFF0B5B54C34
:100FF0000500A5440C0000214891499105A94A919A
:10100000BE21B148490045AE7050B048043145AEEC
:1010100070500493019113780093002B00D14FE19D
:10102000AB4F0820F95C0823561C0B4001421ED030
:101030006368002B11DD082123681A78BA5C0A4224
:1010400001D13200E7E7499A013300920132499217
:1010500062682360013A6260EAE7019A45AB9B58F7
:1010600021002800009398470028E4D0E9E7009980
:10107000252964D14793459353782A2B02D11A3BF3
:101080004593961C37000A2039787B1C02930B008D
:10109000303B092B1FD98F4E0322300000F012FC89
:1010A000002807D00123801B8340459A029F1343E9
:1010B000039245933B787E1C782B07D8572B12D888
:1010C000252B3CD036D8002B00D1F6E003234B93E0
:1010D0000733469376E0479B029F03934343303B9D
:1010E0005B184793D0E7180058382028EED800F056
:1010F0002BFC5100EDFFEDFF8600EDFFEDFFEDFF56
:10110000EDFFEDFFEDFFEDFF9300600024002400F4
:101110002400EDFF6200EDFFEDFFEDFFEDFF9D0010
:1011200065004B00EDFFEDFF9B00EDFF6000EDFF64
:10113000EDFF5100453B022BC8D8052341E0636811
:10114000002B0FDD236800991A788A4200D0B7E09F
:10115000013362682360499B013A00930133626066
:1011600049936EE7019A45AB9B58210028000293F2
:1011700098470028E6D04898002800D099E0013828
:10118000A7239B009D44F0BD459A00922022009920
:101190000A434592459A00928022009992000A43A0
:1011A0004592102246926E229A429B415B42033343
:1011B00007E00A22F6E700234693F8E70823469360
:1011C000043B4B936368002B3FDD459B00935B061C
:1011D00006D423683E491A788A5C08210A423ED127
:1011E0004B9B022B51DC2200280004AB45A900F0E8
:1011F00075F8012864D0022800D022E7BBE731004F
:1012000005A800F0CDF9459B060000934023009A05
:10121000134345930123D4E7459B00934023009A51
:10122000134345930023CCE70223CAE74598C3063E
:1012300000D506E7049B499A191D04911B68C7074E
:1012400001D51A80FDE61A60FBE6019A45AB9B5872
:1012500021002800009398470028B6D08BE7499AD0
:101260000092013249926268013A6260002A02DD0E
:1012700001332360ADE7019A45AB9B58210028005C
:10128000009398470028A4D075E7042B06DC2200C1
:10129000280004AB45A900F07FF8AAE70E4B002B0D
:1012A00000D1CEE62200280004AB45A900E000BF33
:1012B0009FE7A3895B0600D462E7012040425FE715
:1012C00048985DE764FDFFFF350F0000AD0F00009B
:1012D0000A1B0000EA1A000000000000F7B5150024
:1012E0008A680C000190002A05D189690132002921
:1012F00000D0023AA2602268D20603D41A68111DF7
:10130000196017680026A069002813D0012808D1A9
:101310002B6862691B78D35C002B0BD1002E27D180
:10132000FEBD022824D12B681A4A1B78D35C082200
:1013300013421DD1102223680136134203D12B68BA
:101340001B783B7001372A686B6801322A60A268FB
:10135000013B013A6B60A260002A09D0002BD2DC6D
:10136000C0235B002900E358019898470028CAD0A1
:1013700022681023110019401A4206D1E368013394
:10138000E360A369002B00D03970236900209E1907
:101390002661C5E70A1B0000F0B50C008DB0029372
:1013A000794B1600059009AA23CB23C2774B0693ED
:1013B000A369032B01D0764B0693AE220020A368CD
:1013C0005200591E0490914205D95E3BFF3B0493A5
:1013D0005E23FF33A36023001C330193D023002737
:1013E00022681B0113432360019B0393336809A800
:1013F0001978BB000222185800F064FA00282BD09C
:10140000012F62D16368002B06D108332268636024
:10141000F933FF33134323605E4B2268134023608C
:10142000A3685A1EA260002B16D033685A1C326083
:101430001B78039A13707368551C013B7360039506
:10144000002B09DCC0235B00E358310005980793AB
:101450009847002800D081E00137032FC6D1636888
:10146000002B01D10A336360102100276368606993
:10147000C91A494BC91800F093F8039DA368226864
:101480000393002B41D03168636908781B5C002B03
:101490003BD0302829D180231B011A4225D0049B40
:1014A0000137002B05D01A00039B013A0133049247
:1014B000A3607368013B7360002B1DDD336801334B
:1014C0003360A368013BA360D8E7022FA8D1C021F5
:1014D00080232268C90011409B009942BFD1F13B93
:1014E000FF3B6360F033134399E72C4B13402360B9
:1014F0000B782B700135DCE7C0235B00E35831002B
:101500000598039398470028DBD02368DB050ED5A8
:10151000019B9D4207D9BE23013D5B003200297823
:10152000E35805989847019B01209D4229D02168E6
:1015300010230A001A4019421CD12A7063680199CD
:101540000598069EB047029B21681B688A0607D54E
:101550001A1D02990A601B68186008E00027D4E78A
:101560001A1DCE07F5D502990A601B681880E3683A
:101570000133E3600020019BED1A2369EF19DF19A5
:1015800027610DB0F0BDC046881A00001D1700008D
:101590003D180000FFFAFFFFF71A0000FFF6FFFFFB
:1015A000F0B50B7804005E2B0CD0481C0021220003
:1015B000651CFF3511700132AA42FBD1002B05D109
:1015C0000138F0BD4B78881C0121F0E701222D265F
:1015D00051400200E1541578501C2D2D09D05D2D8D
:1015E000EFD0002D01D11000EBE72B00F1E7330025
:1015F000EFE755785D2DFAD0AB42F8DC18000232E7
:10160000013021548542FBDC00205F1CAB4201DA33
:10161000E81A01383B18DEE7F0B51E003D4B87B0F5
:101620000590029208009C46082201910300614641
:101630001C78451C095D28000F0017401142F5D1A8
:101640002D2C33D101272C789D1C002E5DD0102E1F
:1016500009D1302C07D120222B789343582B4FD11E
:1016600010266C7802352C4B3100FB1818000393C0
:1016700000F0FAF900230122844618000491524236
:1016800021003039092916D80C00A6421FDD591C4B
:1016900009D01300844506D302D10499A14202DB8C
:1016A0000123704320182C780135E9E72B2CCCD18D
:1016B0002C789D1CC9E721004139192901D8373CF4
:1016C000E3E721006139192901D8573CDDE75A1CAD
:1016D00008D1059A23331360029B0398002B09D18C
:1016E00007B0F0BD002F00D04042029A002AF7D088
:1016F000002B01D06B1E0193029B019A1A60EFE749
:101700003024002EAFD10836ADE7302CA3D00A2606
:10171000A9E7C0460A1B0000FFFFFF7F10B5FFF7D7
:101720007BFF10BDF0B51E00434B87B00F00019149
:101730009C460821059002923B0062461C787D1C65
:10174000105D2F0002000A400842F5D12D2C3AD13D
:1017500001272C789D1C002E69D0102E09D1302C29
:1017600007D120222B789343582B5BD110266C781D
:10177000023501203100404200F0F0F803900120D2
:101780003100404200F070F9002304910121012250
:1017900018008C4652422100303909291AD80C0011
:1017A000A64225DD002B21DB03991300814207D3DC
:1017B00003D104991300A14202DB63467043201851
:1017C0002C780135E7E72B2C01D01700C3E72C78E4
:1017D0009D1CFAE721004139192901D8373CDFE780
:1017E00021006139192903D8573CD9E71300E7E7ED
:1017F000002B09DA22230120059A40421360029B44
:10180000002B09D107B0F0BD002F00D04042029A52
:10181000002AF7D0002B01D06B1E0193029B019A86
:101820001A60EFE73024002EA3D10836A1E7302C50
:1018300097D00A269DE7C0460A1B000010B5FFF7A7
:1018400071FF10BD0B00F7B54D6B44330C009D428A
:101850001CD18026F6003100FFF7A4FA002802D13F
:1018600001204042FEBD23006063A66346331A7820
:10187000104BC254230045331A780F4BC2542A78B8
:101880000E4BC254C01820600020EBE78E6B29007D
:1018900073001A00019300F029F8051EE0D08719A3
:1018A00001003200380000F018F8019B27606563E2
:1018B000A363E9E7FF030000FE030000FD0300004F
:1018C00070477047C9B28218904201D1002070471A
:1018D00003788B42FBD00130F6E7002310B59A4223
:1018E00000D110BDCC5CC4540133F8E7F8B5070053
:1018F0000D001600002905D11100FFF753FA04006E
:101900002000F8BD002A03D1FFF702FA3400F7E700
:1019100000F012F82C00B042F2D231003800FFF78C
:1019200041FA041EECD029003200FFF7D6FF29004F
:101930003800FFF7EDF9E3E70B1F1B68181F002BBA
:1019400001DA0B58C018704703B4714649084000CB
:101950004900095E49008E4403BC704700224308D9
:101960008B4274D303098B425FD3030A8B4244D367
:10197000030B8B4228D3030C8B420DD3FF220902A9
:1019800012BA030C8B4202D31212090265D0030B68
:101990008B4219D300E0090AC30B8B4201D3CB035E
:1019A000C01A5241830B8B4201D38B03C01A5241A0
:1019B000430B8B4201D34B03C01A5241030B8B42A2
:1019C00001D30B03C01A5241C30A8B4201D3CB028D
:1019D000C01A5241830A8B4201D38B02C01A524172
:1019E000430A8B4201D34B02C01A5241030A8B4275
:1019F00001D30B02C01A5241CDD2C3098B4201D38D
:101A0000CB01C01A524183098B4201D38B01C01A0A
:101A1000524143098B4201D34B01C01A5241030981
:101A20008B4201D30B01C01A5241C3088B4201D330
:101A3000CB00C01A524183088B4201D38B00C01ADD
:101A4000524143088B4201D34B00C01A5241411A04
:101A500000D20146524110467047FFE701B5002011
:101A600000F006F802BDC0460029F7D076E77047BF
:101A70007047C04600000000180000000000000091
:101A80001900000001030000EE1A0000F11A000026
:101A9000F41A00004F4B0000415400FF4154453000
:101AA000000000002B435245473A20302C31000003
:101AB00041542B435245473F0000000041542B4303
:101AC0004D47463D3100FFFF52494E4700000000A0
:101AD000415448002B434D54490000002B434D54C2
:101AE000493A20252A7320256400686C4C002B2D70
:101AF00000303000785800412D46612D663839306D
:101B0000313233343536375D00002020202020204C
:101B1000202020282828282820202020202020209D
:101B2000202020202020202020208810101010109D
:101B300010101010101010101010040404040404ED
:101B400004040404101010101010104141414141D0
:101B50004101010101010101010101010101010135
:101B600001010101011010101010104242424242C6
:101B70004202020202020202020202020202020205
:101B800002020202021010101020000000000000EB
:101B90000000000000000000000000000000000045
:101BA0000000000000000000000000000000000035
:101BB0000000000000000000000000000000000025
:101BC0000000000000000000000000000000000015
:101BD0000000000000000000000000000000000005
:101BE00000000000000000000000000000000000F5
:101BF00000000000000000000000000000000000E5
:101C000000000000000000000000FFFF00000000D6
:101C100000000000000000000000000000000000C4
:101C200000000000000000000000000000000000B4
:101C300000000000000000000000000000000000A4
:101C40000000000000000000000000000000000094
:101C50000000000000000000000000000000000084
:101C6000000000000000000000000000F8B5C046C1
:101C7000F8BC08BC9E467047B50000005D0400003B
:101C8000490B0000F8B5C046F8BC08BC9E4670473A
:101C900001B40248844601BC604700BF0100002037
:041CA0008D000000B3
:101CA4000F210139FDD10138FAD17047000000003D
:101CB40014000020000000002C1C00004C1C00003C
:101CC4000C1C0000000000000000000000000000E8
:101CD4000000000000000000000000000000000000
:101CE40000000000000000000000000000000000F0
:101CF40000000000000000000000000000000000E0
:101D040000000000000000000000000000000000CF
:041D140000000000CB
:0400000300000B5D91
:00000001FF
