:10000000001000203D2000003920000039200000B1
:1000100000000000000000000000000000000000E0
:100020000000000000000000000000003920000077
:100030000000000000000000392000008D190000C1
:10004000392000003920000039200000392000004C
:100050003920000039200000392000000000000095
:1000600039200000B11C0000C11C00003920000034
:10007000392000003920000039200000392000001C
:1000800039200000392000003920000010B5064C4E
:100090002378002B07D1054B002B02D0044800E049
:1000A00000BF0123237010BD50020020000000009B
:1000B0007C350000044B10B5002B03D003490448E5
:1000C00000E000BF10BDC046000000005402002048
:1000D0007C350000802310B5084A9B00C45A815A21
:1000E000C35A8C4203D3805A181A80B210BD8021A3
:1000F000825A89005818801AF7E7C04602020000A9
:10010000C37910B504007F2B0AD923000068083397
:10011000984203D1E288034B1A4201D102F0F4F86D
:10012000200010BDE07F000010B504000069002829
:1001300001D002F0E9F8200010BDFFFFF7B516006E
:100140008022019300230500806892008352154AA3
:100150008352023283540122524201F0F1FC0D21FC
:10016000A86801F0DDFC01F005FC0700A868FFF7B6
:10017000B1FF041E07D101F0FDFB019BC01B98429B
:10018000F4D320000DE0084803F0EEF90120002E22
:1001900007D03100A86801F043FD0130441EA041A2
:1001A000C0B2FEBD02020000A0860100F7B5050046
:1001B0000E00170000240193019B9C420CDA3A00C8
:1001C00031002800089BFFF7B9FF002805D103483C
:1001D00003F0CAF90134EFE70020FEBD20A10700BB
:1001E000F7B504000D21806801F09AFCFA23194E3E
:1001F000194F3200390020005B00FFF79FFF0028F5
:1002000026D103250122636814499A4023681448C3
:10021000DB015B181A6003F0A7F90122636811493A
:100220009A4023680E48DB015B181A6003F09CF9C2
:10023000FA235B000093EF3B320039002000FF3BC4
:10024000FFF7B4FF002803D1013D002DDAD1FEBD38
:100250000120FCE75B310000CD2F00001444004179
:1002600040420F001844004130B5040091B00B002B
:1002700015004021114A684602F034F9002269460F
:1002800020000F4BFFF75AFF002814D0012229004D
:10029000A068524201F054FC0A4B0B4A0B49200063
:1002A000FFF74CFF80210022A36889005A520849B9
:1002B0005A5202315A5411B030BDC046D02F0000FE
:1002C000B80B000060EA0000DD2F0000E32F000003
:1002D0000202000070B50F4B0E0011000022040056
:1002E000FFF72CFF0C4A002805D0A06801F0BEFCE7
:1002F000051E05D1094A31002000FFF7B5FF70BD8A
:10030000020031002000FFF7AFFF280001F0FCFFE2
:10031000F5E7C046B80B0000E52F0000F72F0000FE
:10032000F7B50F4B0C261B680500009300230193C3
:10033000C3680F005E4303691C009E19A64206D0E5
:1003400022686846074901F057F80C34F6E739008F
:100350002800009AFFF788FF6846FFF7D1FEF7BD37
:10036000E40100201230000010B5040090B00B0032
:10037000144A4021684602F0B5F869462000124B45
:10038000124AFFF7DBFE002802D1002010B010BD9A
:10039000A068FFF79FFE0228F7D9A06801F0FEFBD6
:1003A000A06801F0FBFBA06801F0F8FB80210022AF
:1003B000A36889005A5206495A5202315A54C0461B
:1003C000E4E7C04616300000B80B00005B310000C7
:1003D0000202000070B504000D0090B00B00160082
:1003E0004021124A684602F07DF800226946104B0F
:1003F0002000FFF7A3FE2B0040210E4A684602F0C2
:1004000071F8694620000A4B0B4AFFF797FE002857
:1004100009D03100A06801F083FB00222000044BCA
:100420000649FFF78BFE10B070BDC04630300000AB
:10043000B80B00004630000074320000613000004C
:10044000F7B505000E00171E2CD0100002F0B8F80A
:1004500001F050FF041E05D131002800164AFFF7B5
:1004600003FFF7BD390002F0A3F8144F2000390054
:1004700002F0E8F839000190002002F0E3F8019B57
:10048000002B10D000280ED0027819002800FFF7AA
:10049000A1FF310028000A4AFFF7E6FE200001F024
:1004A00033FFDEE7140031002800064AFFF7DCFEC8
:1004B000002CD6D0F2E7C04664300000FC340000C7
:1004C0005B3100007230000010B5040090B00B00EA
:1004D00068464021054A02F005F8002269462000DE
:1004E000034BFFF72BFE10B010BDC046913000004B
:1004F000B80B000010B5002A03D1044AFFF7B4FE80
:1005000010BD1100FFF7E0FFFAE7C046A43000007D
:10051000F7B52A4B0D00002229490400FFF70EFE13
:10052000002802D100273800FEBDA06801F09EFB24
:10053000061EF7D0234902F085F800270400002C9E
:1005400038D0200002F03CF80190042828D9043863
:100550001D49201802F022F8002821D10137002D72
:100560001ED001980121033801F088FE019020007F
:1005700002F026F82100021F019801F0CFFE296841
:10058000002913D001316868890001F08FFF00282D
:1005900006D02B6801999A000133686011502B60D6
:1005A0000020084902F04EF80400C8E7042001F0DA
:1005B000A1FEECE7300001F0A7FEB4E7B80B0000A5
:1005C000BB3000006130000041300000F0B5002475
:1005D000214B87B01B6805000E0002A8072102937B
:1005E000039400F073FE07221C49029801F096FE66
:1005F00002ABDA7980235B42134302AAD37128004D
:1006000004A904940594FFF783FF059A049B140042
:100610009B00D3180193019BA3420ED080CC2800ED
:100620003900FFF7A1FE3A0003000D4902A800F0CF
:10063000E3FE380001F068FEEDE731002800029A81
:10064000FFF712FE0598002801D001F05DFE02A818
:10065000FFF756FD07B0F0BDE4010020C7300000F1
:10066000CE300000F0B587B00400FFF7B9FD0028D8
:1006700003D10025280007B0F0BD254E002233002D
:1006800024492000FFF75AFD19232000224A23495C
:100690000096FFF78BFD051EEBD0330000222049AA
:1006A0002000FFF74BFD330000221E492000FFF71A
:1006B00045FD80210023A268890053521A495352F4
:1006C00002315354194A12785206D10F03919A42BB
:1006D000D0DA200004A904930593FFF719FF049BC7
:1006E0009E00059B1D009E19AE4209D080CD2000C2
:1006F00039000F4AFFF7B8FD380001F005FEF3E7B7
:100700000598002801D001F0FFFD039DB2E7C04627
:10071000B80B0000D6300000DB300000E6300000EF
:10072000EF300000F9300000020200003804004001
:100730000C310000F0B585B0029104002021029830
:10074000170001F01DFF051E02D0002301350370C4
:100750000C23E26853432269D31803931300039ACE
:100760001E009A4214D01868029901F0EFFE33007F
:1007700001900C330028F2D139002000FFF7F4FD7E
:10078000337A834206D82A003900200073689847DC
:1007900005B0F0BD20000199FFF7BAFE0028F2D0A5
:1007A000F6E7FFFFF0B5070091B00B001F4A4021AC
:1007B000684601F097FE1E4D69462A0038001D4B21
:1007C000FFF7BCFC002810D0B86801F04FFA041EF7
:1007D0000BD0290001F020FF0A21060001F0D0FE15
:1007E000051E04D1200001F08FFD11B0F0BD0135D0
:1007F0002800114901F010FF0028F3D000230F4911
:100800000370300001F008FF061EEBD002362221F3
:10081000300001F0B5FE0028E4D000233200037060
:1008200029003800FFF786FFDCE7C04646310000AC
:1008300051310000B80B0000573100005E3100005C
:1008400070B505008068FFF745FC002815D01648F4
:1008500002F08AFEA86801F009FA041E0DD01349BF
:1008600001F0DAFE002809D000222800104B1149BF
:10087000FFF764FC200001F047FD70BD20000E4929
:1008800001F0CAFE0028F5D00178002905D03039E2
:10089000092906D801F0ECFC01002800FFF782FFCF
:1008A000E8E70130F0E7C046A086010061310000B2
:1008B000B80B0000663100006A310000F0B5002579
:1008C0000F00040087B00393354B364E1B68364942
:1008D000029204932A0033000595FFF72FFC3A009B
:1008E000324904A800F046FD33002A000499200094
:1008F000FFF724FC029A2E4904A800F03BFD3300C8
:100900002A0004992000FFF719FC039A294904A83A
:1009100000F030FD33002A0004992000FFF70EFCA0
:1009200033002A0024492000FFF708FC33002A0086
:1009300022492000FFF702FC33002A002049200052
:10094000FFF7FCFB192320001E4A1F490096FFF702
:100950002DFC1E4FA84217D033002A001C4920004E
:10096000FFF7ECFB20001B4B1B4A1C49FFF7E6FB83
:10097000A84209D033002A0039002000FFF7DEFB2F
:1009800072B6200002F0E8FD00223900054B20007D
:10099000FFF7D4FB04A8FFF7B3FB002007B0F0BDBE
:1009A000E4010020B80B0000703100008E3100001F
:1009B0009C310000A8310000B4310000C4310000B7
:1009C000DD310000EA310000F631000003320000A2
:1009D00010320000F82401002B32000063300000C8
:1009E000F7B505000E00171E37D0100001F0E8FD26
:1009F00001F080FC041E05D1310028001B4AFFF7DE
:100A000033FCF7BD390001F0D3FD194F2000390048
:100A100001F018FE39000090002001F013FE3900AB
:100A20000190002001F00EFE009A0300002A15D06C
:100A3000019A002A12D0002810D028000099FFF750
:100A40003DFF0C4A002800D10B4A31002800FFF777
:100A50000BFC200001F058FCD3E714003100280003
:100A6000064AFFF701FC002CCBD0F2E7643000000F
:100A7000FC3400005B3100003B32000049320000D2
:100A800070B50D0001680400002911D00C2301315C
:100A90005943406801F00AFD002808D00C22236861
:100AA00060605A430133801846CD46C0236070BD54
:100AB0000C2001F01FFCEFE7F0B587B00500684699
:100AC0000091426001002A0050C950C2AB6000236F
:100AD0000121EB602B6142680224914003682248A7
:100AE000DB011B189A189960403210782E00A04341
:100AF00003AC1070220099611C4B0C3683CB83C26F
:100B00001F0021003000FFF7BBFF3A00230083CA1B
:100B100083C321003000FFF7B3FF2200134B1833CB
:100B200083CB83C221003000FFF7AAFF22000F4BC6
:100B3000243383CB83C221003000FFF7A1FF2200C2
:100B40000A4B303383CB83C221003000FFF798FF7C
:100B50002200064B3C3383CB83C230002100FFF7D9
:100B60008FFF280007B0F0BD00440041182F00009F
:100B70000122036910B59A40C368DB01002906D041
:100B800005495B189A61406A02F0EEFC10BD02490B
:100B90005B185A61F7E7C046004400414368C268E9
:100BA00010B58468934202D10269A24207D00122A3
:100BB000DB01A240002903D003495B189A6110BDF4
:100BC00001495B185A61FAE70044004110B5002161
:100BD000FFF7CEFF10BD10B50121FFF7C9FF10BD13
:100BE00070B504000D00FFF7F1FF1F2120682940B8
:100BF00000F0E8FDFF21206800F0E4FD0500200082
:100C0000FFF7E9FF280070BDF8B50F0014001E00C3
:100C10000500FFF7DBFF1F210F4001313943286832
:100C200000F0D0FD0700A619B44205D0217828684D
:100C300000F0C8FD0134F7E72800FFF7CCFF3800CB
:100C4000F8BD70B5160004000D00FFF7BFFF1F21AF
:100C50000D4001312943206800F0B4FD050031004A
:100C6000206800F0AFFD2000FFF7B5FF280070BD41
:100C7000F7B500911D00C37D04001F1C934200D9ED
:100C8000171C0026227EFFB2B24201D1DE1BF6B253
:100C90002000FFF79BFF2900206800F093FD009DD6
:100CA0000190EF19BD4205D02978206800F08AFD37
:100CB0000135F7E7013EF6B2FF2E04D0002120688F
:100CC00000F080FDF6E72000FFF785FF0198FEBDEC
:100CD000F7B5C37D04000D001F1C934200D9171CFB
:100CE0000026227EFFB2B24201D1DE1BF6B2200006
:100CF000FFF76CFF6121206800F064FDEF1901909F
:100D0000BD4206D0FF21206800F05CFD287001354F
:100D1000F6E7013EF6B2FF2E04D0FF21206800F076
:100D200051FDF6E72000FFF756FF0198FEBD70B5B4
:100D300004000D00FFF74AFF2900206800F042FD83
:100D400005002000FFF747FF280070BD10B5E22125
:100D5000FFF7EDFF10BD10B5E121FFF7E8FF10BD73
:100D600010B5FF21FFF7E3FF10BD82B037B5079341
:100D70006C46030000910999626002C322CC22C331
:100D8000030007AA0C3312CA12C3052383774362F8
:100D900080239B01C382002303833EBC08BC02B0B6
:100DA00018470A0010B57C2900D97D220521FFF7DC
:100DB00048FF10BD0B1C202900D92023C3757047A4
:100DC00070B504000021FFF7E9FE206A02F0CCFBB9
:100DD0001D212000FFF704FF830705D5206A02F0DC
:100DE000C3FB2000FFF7B7FF00212000FFF7F8FE4C
:100DF0000125A843C2B200212000FFF722FF0221F3
:100E00002000FFF7EDFE0543EAB202212000FFF7C4
:100E100018FF70BD002110B50400FFF7E1FE0222AB
:100E200001001140104207D10243D2B22000FFF767
:100E300008FF024802F098FB10BDC046881300006E
:100E400070B50400180004AB1D78B023002800D151
:100E5000103B2000FFF70CFF002D03D001212000E4
:100E6000FFF79CFE70BDF7B5040001200090200044
:100E7000FFF7E6FF00F07EFD302706002000FFF7B9
:100E80006FFF384208D100F075FD801B5F28F5D94F
:100E90000123E3770020FEBD00212000FFF77EFE46
:100EA000702207212000FFF7CCFE03000120DB06A3
:100EB000F1D52000FFF74FFFECE710B50023FFF757
:100EC000D2FF10BD70B50C0017210600FFF788FE99
:100ED00001230025184208D11D00002C05D0300048
:100EE000FFF73EFF0007400F2070280070BD10B5CF
:100EF0000021FFF7E7FF10BD10B50400FFF7E8FE83
:100F0000702207212000FFF79CFE10BD13B50400DE
:100F1000009201930A216A46837FFFF775FE6A46B5
:100F2000A37F10212000FFF76FFE11212000E27D3A
:100F3000FFF787FE13BDFFFF37B504000D000092D9
:100F40000193002908D1827F6946193001F0E6F942
:100F5000114AA37F515D06E006291CD80E4B595C4F
:100F60000123012DF4D06A462000FFF74DFE0B4B04
:100F7000E27D595D2000FFF764FE02212000FFF7AB
:100F80002FFE0122064B02215B5D9A400243D2B242
:100F90002000FFF756FE37BD763200008232000097
:100FA0007C32000070B50D0002210400FFF718FE2E
:100FB000054B02215A5D012393409843C2B22000A1
:100FC000FFF73FFE70BDC0467C32000070B50400E4
:100FD000FFF720FF00212000FFF702FE0125284334
:100FE000C2B200212000FFF72CFE70220721200052
:100FF000FFF727FE29002000FFF7D0FD617E0029C2
:1010000010D022000A212000A37F1932FFF7FCFD37
:101010001D212000FFF7E4FD830702D52000FFF724
:101020009AFE70BD2000FFF7BDFFF1E710B5040088
:10103000FFF7CCFD5021206800F0C4FB732120682D
:1010400000F0C0FB2000FFF7C6FD10BD0A0010B580
:10105000002900D03F220121FFF7F3FD10BD70B53C
:101060000C0006210500FFF7BBFD07218843C2B233
:10107000032C02D864000134E1B228000A4306219F
:10108000FFF7DFFD70BD70B50E0006210500D72407
:10109000FFF7A6FD0440022E12D120231C43A333E8
:1010A000FF3322002B6228000621FFF7CAFD28002B
:1010B0000621FFF795FD001B44426041C0B270BDA0
:1010C000FA23012EEDD108231C43B633E9E7FFFFD5
:1010D00070B504004068E368A268984202D12369B1
:1010E00093420BD001219140394DC3015B19022578
:1010F00099609B1840331978A9431970E3682169F6
:10110000834201D18A420BD001228A403048DB0160
:101110001B189A605B18022140331A788A431A70B0
:1011200000212000FFF73AFD01212000FFF720FDFC
:10113000284802F019FA0C2200212000FFF781FD57
:1011400004215F222000FFF77CFD02212000FFF731
:101150009AFF002801D00123A37506212000FFF784
:101160003FFD0025002106002000FFF78CFF200036
:10117000FFF75CFF00221D212000FFF762FD002227
:101180001C212000FFF75DFD70222576072120003D
:10119000FFF757FD4C212000FFF703FE2000FFF76B
:1011A000D5FD2000FFF7D7FD2000FFF733FE290013
:1011B0002000FFF715FDFE22290002402000FFF766
:1011C00040FDFD23013EF6B2B3426D41E8B270BD71
:1011D00000440041881300000F2310B509011A4094
:1011E0000A43D2B20421FFF72CFD10BD10B5040054
:1011F000406B002801D001F087F8E06A002801D098
:1012000001F082F8200010BD10B513000A000100A3
:10121000014800F0A3FE10BD8002002010B5064C6E
:10122000606B002804D0236B002B01D001F06CF818
:1012300000236363236310BD8002002003000200CB
:10124000196808320020914205D1D888024B184015
:10125000431E9841C0B27047E07F0000F8B5436874
:101260000500DB020F00DB0A8B4225DAC488640428
:10127000A40DA14221DA06000836621E300029685A
:1012800001F0B6F900223319013B1A70EB797F2B7C
:1012900007D92800FFF7D2FF002802D1286801F003
:1012A00033F88023E4021B06E40A6A681C43064BF9
:1012B0002E6013401C436C60F8BD080001F01AF862
:1012C0003C000600D9E7C0460000E07F436870B5E7
:1012D000DB0204000D00DB0A8B421BDAC3797F2B93
:1012E00006D9FFF7ABFF002802D1206801F00CF807
:1012F000E3885B049A0D95420DDA230008332360DE
:1013000063685B0D5B05134363608023E2795B4296
:101310001343E37170BD280000F0ECFF6368ED0239
:10132000590DED0A49050D4320606560EDE773B581
:1013300013000192C27905000E007F2A17D96A684E
:101340000068D102C90A320001F08EFA6B68DB0234
:10135000DB0A83420ADC441C21002800FFF7B6FFA9
:1013600032002100019B286801F07EFA76BD002042
:101370000100E8E70EB403B503AA02CA0192FFF721
:10138000D6FF02B008BC03B01847F7B51700C27902
:1013900005000E0001937F2A1DD9026850186A6863
:1013A000D102C90A891B3A0001F05EFA6B68311854
:1013B000DB020400DB0A99420BDB28000131FFF756
:1013C0004DFF2868611C3A00019B801901F04CFA1E
:1013D00004002000FEBD00200100E4E770B5040019
:1013E00000680D00160001F0EBF8330001002A0040
:1013F0002000FFF7CAFF70BD0EB403B503AA02CAEE
:101400000192FFF7EBFF02B008BC03B01847FFFFE3
:10141000F0B52D4B89B01B6805000693002306A884
:101420000E0007210793FFF751FF0722274906986F
:1014300000F074FF04ABDA7B80235B42134304AA01
:10144000D3732422FA27224BBF005C6B1B6B5343E0
:10145000E3180593059BA3422CD00023E356039386
:10146000637A049300F086FA236A3900C01A00F008
:101470004BFE049B01900093039A631C154906A838
:10148000FFF7BAFF637A022B09D0032B0FD0012B91
:101490000BD16289104906A8FFF7AEFF05E0A389CA
:1014A00062890E4906A8FFF7A7FF2434D2E76289B4
:1014B0000B49F0E73100069A2800FEF7D5FE06A892
:1014C000FEF71EFE09B0F0BDE4010020C7300000A9
:1014D000800200208D320000C7320000EE32000092
:1014E00030330000F0B5384C93B00AAD2B00220029
:1014F00043CA43C303CA03C329003448344A00F033
:1015000053FA23002A00143343CB43C243CB43C2D4
:1015100003CB03C214236A4605930DAB43CB43C2EE
:1015200003CB03C22B480A996A68AB6800F0C0F885
:1015300010200221284E294AB0601378284F8B438F
:1015400013707061380000F0F9FB002805D11024F9
:101550002448F46102F008F8FAE72348FFF782F81C
:10156000002808D11024380000F0E3FC1F48F46183
:1015700001F0FAFFF7E707AD2B00343407CC07C3BF
:10158000194C29000C342000FFF77AFA184B200080
:101590000793184B29006B6061232B72FFF770FAD9
:1015A000154B20000793154B29006B606123102415
:1015B0002B72FFF765FA0C48FFF742F9380000F08C
:1015C000B8FCF461F7E7C046602F0000D4040020A7
:1015D0002BF60000B80200200044004144440041C2
:1015E0008002002000350C006C020020400D03003A
:1015F0005833000009120000603300001D12000083
:1016000070B50024114E92B02100114B022230001F
:10161000FFF752FA0F4D30002A000F4900F06CFD21
:101620000E4B210001930F230E22009308A82300E4
:10163000FFF79BFB0A4C08A9200000F06FFB2A0073
:101640002000084900F058FD12B070BD6C02002067
:10165000D4040020AC01002029010000B8020020C1
:1016600080020020ED110000030030B505CB0F25EE
:10167000D30F9B180C4C5B10C0011B1829401B1981
:10168000D4070CD51C780901254029431970074B54
:101690001218D218012311780B43137030BD1C7837
:1016A000AC432143F2E7C04630440041404400418E
:1016B00084B0F8B50400079100683B4909930FAB6B
:1016C00007AD1E886A60394B394A884261D10821CA
:1016D000106A01431162374A5A805A78D209FCD104
:1016E000297E28004B1E99410231FFF7BDFF697E1C
:1016F00009A84B1E99410231FFF7B6FFA97E0BA83E
:101700004B1E99410231FFF7AFFF02212268136897
:101710008B4313600123226811680B431360236815
:101720001A68D207FCD41C211A6803208A431100CE
:101730000C220A431A6022682B7F11681E4F034057
:101740001B043940194311602168EA7E0B6802408E
:101750001A481205034013430B602368DA695207E5
:10176000FCD48022596892020A435A602368DA69DD
:101770005207FCD4F6B21E730223226811680B4391
:1017800013602268D3699B07FCD4F8BC08BC04B082
:1017900018470421106A01431162094A5A805A7895
:1017A000D209FCD19CE7C046000C0042000C00406E
:1017B000000400400F400000FFFFFCFFFFFFCFFFD1
:1017C0000E40000002680300FF20002A09D0107EAE
:1017D000C007FCD591621B681A7E5207FCD5986A37
:1017E000C0B27047034B044A1A60044B044A1A60A3
:1017F0007047C046B802002000080042BC0200202A
:10180000000C0042C02230B5454B9200196A454891
:101810000A431E211A6242688A43110002220A43C7
:10182000426008224049886902438A6101213F4A97
:101830001078014311701178C90702D55178C90990
:10184000F9D18020196A8143196239499160394977
:1018500051605178C909FCD18621C9015180517864
:10186000C909FCD18020998C81439984D968C90623
:10187000FCD5C020D96A0001090C0904014380206D
:10188000D962D96AC004890189090143D962D96A38
:1018900029480840802149020143D962D968C90614
:1018A000FCD58121988C890001439984D968C906A7
:1018B000FCD58021986801439960402198680143D4
:1018C000996010219868014399600221988C014326
:1018D0009984D968C906FCD59968090602D4996823
:1018E0004906F9D59968C906FCD500239360537859
:1018F000DB09FCD1114B53605178C909FCD100259B
:1019000000240F4B0F4A1C605D600F4B19605A603A
:101910009A6007221A6080220C4B12061A6030BDB2
:10192000000800400040004100040040000C00405E
:101930000340000003060100FFFF00FC0007030056
:10194000C0020020FFFFFF0010E000E000E100E027
:10195000002130B5044B054D9C68054B281B1A68C7
:101960005B688018594130BD10E000E0FFFFFF00C8
:10197000C002002010B5FFF7EBFF0023024A00F081
:101980004FFCC80810BDC04634EC0A0030B58024B6
:101990000025044964040A684B6812196B410A6007
:1019A0004B6030BDC00200208223F0B59B0085B0A3
:1019B00001923D4EC2583D4B04000D00186A3C494F
:1019C000B24266D1082202431A623A4B4B80A97C8C
:1019D00028004B1E99410231FFF746FEE97C2800A2
:1019E0004B1E994108300231FFF73EFE8223022050
:1019F0009B00E1580A6882430A600122E1580868A6
:101A000002430A60E2581368DB07FCD41C2104205F
:101A100013688B4303431360822380229B00E158A9
:101A2000D2050F683A4303270A60E258297C1268FE
:101A3000394002920A04039202991F4A11400A0097
:101A400003990A43E1580A60E2586D7C11683D40F1
:101A50001A4F2D050F402F431760E25801999181CD
:101A6000C021E25889025160E258917D0843907587
:101A7000E258134B9A4211D18021124B8900196010
:101A8000022311680B43136001220F4BE25405B08F
:101A9000F0BD042202431A620C4B97E7B242EFD129
:101AA0008021084BC900EAE7000C00420004004016
:101AB000000C00400F400000FFFFFCFFFFFFCFFFC6
:101AC0000008004200E100E0050200000E400000B6
:101AD000114B10B5C35C002B1BD0812282239200D6
:101AE000815C9B00C358002914D1802189001C8D82
:101AF000435AE4B29BB2C454435A0133DB05DB0DB5
:101B00004352064BC35A415A5B1A59424B41DBB20E
:101B1000835410BD1B8DFCE705020000020200008B
:101B2000064BC35C002B08D082239B00C25889B2AD
:101B30001185C258137EDB07FCD5704705020000F3
:101B400070B50B4B0500C35C0C001600002B0DD0CC
:101B5000731C08D12378002B08D021782800FFF7C8
:101B6000DFFF0134F4E73300013EF4E770BDC04607
:101B70000502000081239B000200C35C0020834219
:101B800008D1802304499B00D35A505A181A434263
:101B90005841C0B27047C0460202000010B50C4B5D
:101BA0000400C35C181E11D02000FFF7E3FF031EE2
:101BB000FAD1084AA15A89B2605C81218900635434
:101BC000A35AC0B20133DB05DB0DA35210BDC046E2
:101BD000050200000202000070B50F4B0400C35C58
:101BE0000D00002B01D1002070BDFFF7C3FF0028BE
:101BF000F9D12000FEF76EFAA842F4DD074B6A1C0B
:101C000004D1E35A9BB2E05CC0B2EDE7E15A491956
:101C1000C905C90D605CF7E705020000020200007B
:101C2000F7B5114B0091C35C0400002B19D04E4254
:101C3000009B20009F19FEF74DFAB84211DD009D70
:101C40002B782000A9190193FFF7C6FF019B83425F
:101C500005D16B780135002BF2D13800FEBD01367D
:101C6000E6E701277F42F8E705020000F7B50F4BD2
:101C70000500C35C002B02D100242000FEBDFEF74E
:101C800029FA071EF8D0013000F034FB041EF3D00F
:101C90000600C31901932800FFF780FF019B3070F5
:101CA00001369E42F7D10023E355E6E70502000026
:101CB00010B50248FFF70CFF10BDC046C802002057
:101CC00010B50248FFF704FF10BDC046D404002041
:101CD000F0B582218026812400230A4A0A4D0B4850
:101CE0000B4FB600A400890093531354535357501D
:101CF0001355084A9353135453531355064B5350DB
:101D0000F0BDC046C802002002020000050200002B
:101D100000080042D4040020000C0042030030B54B
:101D200034C934C334C934C334C934C30A681A60EB
:101D300000238362C3620363436330BD70B5040054
:101D4000FFF7C6F9051E21D078212000FFF729F8FA
:101D500001212000FFF77AF90F2205212000FFF76B
:101D60003BFA20212000FFF725F803212000FFF790
:101D700076F900212000FFF786F9200000230121D9
:101D8000034AFFF7D9F82000FFF720F9280070BDBB
:101D9000FF040000242270B50500036B8AB05A438B
:101DA000436B9A181C0093420FD000260020A657C0
:101DB000085624338642F5D12022200000F0AEFAE6
:101DC000FFF7D8FD20620AB070BD01AC20222000D0
:101DD00000F0A4FAFFF7CEFD296B0600002918D009
:101DE000242301315943686B00F060FB0028EAD0DE
:101DF00024222B6B68635A43099682180BCC0BC2C2
:101E000011000DCC0DC10DCC0DC12B6B01332B631B
:101E1000D9E7242000F06EFAE8E70023F7B5CB56A7
:101E200004000D00002B3AD101330B70026B2333F9
:101E30005343426B08271600D31800934B1C0193A1
:101E4000009BB34209D03A000199701C00F0BFFB1F
:101E50000023F35600281AD12B7029002000FFF729
:101E600099FF2000FEF7ACFFFF2380226B72FE3B40
:101E70002000AB72D2000023FFF748F8202229008F
:101E80002000FFF71AF82000FFF7A0F8F7BD0022A6
:101E9000AA569A4201DC01332B702436D0E7FFF7B3
:101EA00079FF0026A36A9E42F0D2E36A7701DA192D
:101EB0000092DA570023EB569A4230D12000FEF709
:101EC0007FFF00228021009BC9009A562000D31773
:101ED0000A43FFF71BF8202200992000FEF7EDFFD0
:101EE0002000FFF773F8A26A002A17D0E36AD81916
:101EF000984213D352019B1898420FD201007F11D0
:101F0000203AD21B203100F009FAA36A5F1EA762B3
:101F1000002F06D1E06A00F0F7F9E762013E0136D2
:101F2000C0E7E06A790100F0C1FA0028F6D0E0626B
:101F3000F4E710B588B00400FEF7D9FF00280BD0F5
:101F4000202269462000FEF7D7FF20006946FFF7F0
:101F500064FF2000FEF7FAFE08B010BDF0B58BB0AC
:101F6000050017001E1E009155D0180000F028FB38
:101F700000F0C0F9041E06D139002B4A0098FEF784
:101F800073F90BB0F0BD310000F012FB27492000BF
:101F900000F058FB25490600002000F053FB01909B
:101FA000002E39D0002837D0300000F061F9002829
:101FB00032D0300000F05CF902AB1870FF2302AAA7
:101FC0005372FD3B937202AB01990822581C00F03A
:101FD0000FFBA96A00291AD00131E86A490100F013
:101FE00065FA00280AD0AB6AE8625B01C0182022BB
:101FF00002A900F093F9AB6A0133AB6239000C4AD5
:102000000098FEF731F9200000F07EF9B9E72020B2
:1020100000F070F9E5E71C003900064A0098FEF769
:1020200023F9002CADD0EEE764300000FC34000052
:102030006633000075330000FEE7FFFF1C4A1D4BAE
:1020400010B51D499A422ED100211C4B1C4A9342C7
:102050002CD37F221B4B302093431B4A93600222D8
:102060001A4B5A621A4B997B814308002021014385
:102070000C209973997B81430800082101430320B8
:102080009973997B81430A439A738023114A51685B
:102090000B435360FFF7B6FB00F008F9FFF722FA95
:1020A000FEE701CA01C38B42FBD3CDE702C3CEE7F3
:1020B0007C350000000000204C020020500200206F
:1020C000FC0600200000000000ED00E0FC70004174
:1020D0000048004100400041054A03001168002902
:1020E00001D1044911601068C31813607047C046DD
:1020F000E0060020FC060020030010B508001900CF
:1021000000F0C6F810BDFFFF002243088B4274D3D5
:1021100003098B425FD3030A8B4244D3030B8B42E8
:1021200028D3030C8B420DD3FF22090212BA030CF1
:102130008B4202D31212090265D0030B8B4219D3D2
:1021400000E0090AC30B8B4201D3CB03C01A5241F2
:10215000830B8B4201D38B03C01A5241430B8B423A
:1021600001D34B03C01A5241030B8B4201D30B0323
:10217000C01A5241C30A8B4201D3CB02C01A52414A
:10218000830A8B4201D38B02C01A5241430A8B420D
:1021900001D34B02C01A5241030A8B4201D30B02F6
:1021A000C01A5241CDD2C3098B4201D3CB01C01A10
:1021B000524183098B4201D38B01C01A524143091A
:1021C0008B4201D34B01C01A524103098B4201D308
:1021D0000B01C01A5241C3088B4201D3CB00C01A75
:1021E000524183088B4201D38B00C01A52414308ED
:1021F0008B4201D34B00C01A5241411A00D2014612
:10220000524110467047FFE701B5002000F006F884
:1022100002BDC0460029F7D076E770477047C04638
:10222000F0B515042D0C0F0001002E00C6468446A3
:102230000004140C000C090C46434D4360436143F9
:102240004019340C241800B5A54203D9802040025F
:1022500080464144250C6D18614659437A43300449
:1022600049192404000C2018891804BC9046F0BDBC
:1022700010B50A22002100F0BFFA10BD10B5034BC3
:102280000A000100186800F05AF810BDE8010020AB
:1022900010B5040004481300002804D00A000220EE
:1022A000210000E000BF10BD0000000070B5002656
:1022B0000C4D0D4C641BA410A64209D1002601F060
:1022C00035F90A4D0A4C641BA410A64205D170BD15
:1022D000B300EB5898470136EEE7B300EB58984748
:1022E0000136F2E738350000383500003835000097
:1022F0004835000010B5034B0100186800F078F86D
:1023000010BDC046E801002010B5034B010018685D
:1023100000F024F810BDC046E8010020002310B5ED
:102320009A4200D110BDCC5CC4540133F8E70300DD
:102330008218934200D1704719700133F9E74A437C
:1023400070B51100150000F053F8041E03D02A00E8
:102350000021FFF7ECFF200070BDFFFF70B5050006
:10236000002910D00C1F2368002B00DAE418280085
:1023700000F088FA1D4A1368002B05D163601460D1
:10238000280000F087FA70BDA34208D921686018C0
:102390008342F3D118685B6841182160EEE71A00A8
:1023A0005B68002B01D0A342F9D911685018A042F4
:1023B0000BD120680918501811608342E0D11868C9
:1023C0005B68411811605360DAE7A04202D90C2320
:1023D0002B60D5E721686018834203D118685B68D9
:1023E0004118216063605460CAE7C046E4060020DB
:1023F000F8B50323CD1C9D43083506000C2D1FD2D4
:102400000C25A9421ED8300000F03CFA25490A6884
:102410001400002C1AD1244F3B68002B04D121005A
:10242000300000F04DF838602900300000F048F826
:10243000431C2BD10C233000336000F02BFA03E057
:10244000002DDEDA0C2333600020F8BD23685B1B0F
:1024500019D40B2B03D92360E418256003E06368CB
:10246000A2420ED10B60300000F014FA20000722C7
:102470000B30231D9043C21A9842E6D01B1AA3507A
:10248000E3E75360EFE722006468C2E70323C41C5C
:102490009C43A042E1D0211A300000F011F8431C07
:1024A000DBD1C7E7E4060020E806002010B5034BA7
:1024B0000A000100186800F0F5F910BDE8010020DD
:1024C000002370B5064D040008002B60FFF704FEE2
:1024D000431C03D12B68002B00D0236070BDC04685
:1024E000F80600200CB430B5174B0C001D689DB0E9
:1024F000002908DA8B2301202B6040421DB030BC3C
:1025000008BC02B0184782236A469B0093820023CE
:1025100002900690994200D04B1E0493079301232A
:102520006A465B42D382280021AB209A02A901931C
:1025300000F040FA431C01DA8B232B60002CDDD025
:102540000023029A1370D9E7E8010020F0B50500D6
:1025500000240327094E2A5DB35C3B40012B00D1C8
:1025600020320B5DF05C3840012800D12033D01AB6
:102570009A4202D10134002BEDD1F0BD9533000019
:10258000C9B20378002B04D08B4200D170470130D0
:10259000F7E74B42594149420840F7E702780B7888
:1025A000002A03D0013001319A42F7D0D01A704787
:1025B00003000A7801311A700133002AF9D17047FB
:1025C0000023C25C0133002AFBD1581E704730B58E
:1025D0000500101E0BD00024013A2B5D085D8342DC
:1025E00004D1944202D00134002BF6D1181A30BD28
:1025F000030030B51D00002A06D00C78013A0133E3
:102600002C700131002CF5D100219A18934200D191
:1026100030BD19700133F9E70A7830B5002A0CD1C2
:1026200030BD9A4208D10123CC5C002CF8D0C55CA7
:10263000A54201D10133F7E701300378002BF0D137
:102640001800EDE7F8B5124B05001F680E00BC6DD1
:10265000002C16D15020FFF74DFEB8650460446091
:102660008460C4600461446184618462C462046300
:1026700044638463C463046444648464C46404770A
:10268000446231002800BA6D012300F003F8F8BD60
:10269000E8010020F0B5002802D11068002813D00E
:1026A000040020000E00057801343778002F04D193
:1026B000002D0FD12800156006E00136BD42F4D18F
:1026C000002BEED114600370F0BD2F000FE001333A
:1026D000002E04D1230001341D7827000B001E7842
:1026E000B542F4D1002DF0D00023013C23701760D7
:1026F000EAE7FFFFF0B51E003D4B87B00590029260
:1027000008009C4608220191030061461C78451C84
:10271000095D28000F0017401142F5D12D2C33D14F
:1027200001272C789D1C002E5DD0102E09D1302C55
:1027300007D120222B789343582B4FD110266C7849
:1027400002352C4B3100FB1818000393FFF762FD94
:10275000002301228446180004915242210030399E
:10276000092916D80C00A6421FDD591C09D01300F8
:10277000844506D302D10499A14202DB01237043B0
:1027800020182C780135E9E72B2CCCD12C789D1C16
:10279000C9E721004139192901D8373CE3E7210075
:1027A0006139192901D8573CDDE75A1C08D1059A2F
:1027B00023331360029B0398002B09D107B0F0BDAF
:1027C000002F00D04042029A002AF7D0002B01D0FF
:1027D0006B1E0193029B019A1A60EFE73024002ED2
:1027E000AFD10836ADE7302CA3D00A26A9E7C04602
:1027F00095330000FFFFFF7F10B513000A000100B2
:1028000002480068FFF776FF10BDC046E8010020CF
:1028100030B5140005001A009BB0002C05DA8B239C
:102820000360012040421BB030BD822368469B00FC
:1028300083810023009104919C4200D0631E029387
:102840000593012369465B42CB8128001E9B00F063
:10285000B1F8431C01DA8B232B60002CE3D000235A
:10286000009A1370DFE7FFFF07B5009313000A001B
:10287000010002480068FFF7CBFF0EBDE801002011
:102880007047704710B50248FFF7FAFF10BDC04609
:10289000F006002010B50248FFF7F3FF10BDC04658
:1028A000F0060020F8B507000D001600002905D13C
:1028B0001100FFF79DFD04002000F8BD002A03D1A0
:1028C000FFF74CFD3400F7E700F014FB2C00B0429A
:1028D000F2D231003800FFF78BFD041EECD0290046
:1028E0003200FFF71BFD29003800FFF737FDE3E753
:1028F000F0B58E6885B007000C00039201939E42EC
:102900003CD890238A89DB001A4234D00325096918
:1029100023685B1A0293636902985D43EB0F5D19AC
:10292000019B6D1001331B18AB4200D91D005305EC
:1029300032D529003800FFF75BFD061E09D10C23B4
:102940003B6040230120A28940421343A38105B08C
:10295000F0BD029A2169FFF7E1FCA389144A1A40ED
:1029600080231343A381029B2661F61826606561CC
:10297000019EED1AA560019B9E4200D9019E320086
:102980000399206800F0A3FAA36800209B1BA360B2
:1029900023689E192660DAE72A003800FFF782FFD5
:1029A000061EE0D138002169FFF7D8FCC7E7C04612
:1029B0007FFBFFFFF0B5A1B003901D008B890F00D6
:1029C00016001B0611D50B69002B0ED14021FFF715
:1029D0000FFD38603861002805D10C23039A0138B7
:1029E000136021B0F0BD40237B61002308AC63611C
:1029F000203363761033A376079535002B78002BB0
:102A000001D0252B47D1AB1B0593B5420CD032002A
:102A100039000398FFF76CFF431C00D1AEE06269F8
:102A2000059B9446634463612B78002B00D1A5E09D
:102A3000012200235242626004A9543252186E1CD3
:102A40002360E360A3601370A365052231785448C6
:102A500000F032FA751C00281FD12268D30604D575
:102A6000532304A95B1820211970130704D553239D
:102A700004A95B182B21197033782A2B16D0350046
:102A800000210A20E3682A786E1C303A092A4ED9C0
:102A9000002911D117E00135B0E7414B2268C01A77
:102AA0000123834013432E002360CEE7079B191DAB
:102AB0001B680791002B01DB0B9304E05B42E36092
:102AC0000223134323602B782E2B0AD16B782A2BF9
:102AD00035D1079B02351A1D1B680792002B2BDB93
:102AE0000993304E03223000297800F0E5F90028E0
:102AF00006D04023801B83402268013513432360A6
:102B00002978062228486E1C217600F0D5F9002885
:102B10003CD0264B002B25D10722079B073393433C
:102B2000083307936369049A9B18636165E743431D
:102B3000350001219B18A6E701235B42D0E7002363
:102B40000A201A000135636029786E1C3039092982
:102B500003D9002BC5D00992C3E7424335000123B6
:102B60005218F1E707AB00933A002100104B03988D
:102B700000E000BF0490049B0133D3D1BB890D98C2
:102B80005B0600D42DE7012040422AE707AB009303
:102B90003A002100064B039800F07CF8EAE7C046B3
:102BA000F8340000FE340000023500000000000090
:102BB000F1280000F7B5150001938A680B690C0035
:102BC0000090934200DA130022002B604332127807
:102BD000002A01D001332B6023689B0602D52B68A5
:102BE00002332B602268062317001F401A4227D0A9
:102BF000230043331B785A1E93412268920630D437
:102C0000220001990098089E4332B047431C25D00A
:102C1000062320682A68E16800250340042B03D1BD
:102C20008D1AEB43DB171D40A3682269934201DD37
:102C30009B1AED180027BD4220D1002010E001377B
:102C4000E3682A689B1ABB42D2DD22000123019966
:102C50000098089E1932B047431CF0D10120404231
:102C6000FEBD3020E1184331087021005A1C453167
:102C70000978A218433202331170C1E72200012300
:102C800001990098089E1A32B047431CE6D00137DC
:102C9000D1E7FFFFF0B58BB006920A0043320793ED
:102CA000059004920A7E0C00109B782A06D8622AAE
:102CB00008D8002A00D1C0E0582A52D02600423657
:102CC000327022E0100063381528F7D800F01AF9A6
:102CD00016001F00F6FFF6FFF6FFF6FF1F00F6FFD7
:102CE000F6FFF6FFF6FFA80036009A00F6FFF6FFA3
:102CF000B900F6FF3600F6FFF6FF9E0026001A68C0
:102D00004236111D1960136833700123A7E008686B
:102D100019680A1D05060BD50D681A60002D03DA27
:102D20002D23049A6D421370614B0A27039332E0FE
:102D30000D681A604106F1D52DB2EFE70D681968EC
:102D4000081D18602E0601D50D6803E06D06FBD541
:102D50000D68ADB2564B0A2703936F2A17D1082787
:102D600015E045310A70524A03921A68216820CA58
:102D70001A60080650D5CB0702D5202319432160DD
:102D80001027002D03D1202322689A4322602300BC
:102D9000002243331A706368A360002B03DB042214
:102DA000216891432160002D02D1049E002B0CD09C
:102DB000049E28003900FFF72DFA039B013E5B5C5F
:102DC00033702B0005009F42F3D9082F09D12368E7
:102DD000DB0706D563682269934202DC3023013E9B
:102DE0003370049B9B1B2361079B21000093059874
:102DF000069B09AAFFF7DEFE431C35D101204042A5
:102E00000BB0F0BD202209680A432260220078211D
:102E100045321170274AA7E74806ACD5ADB2AAE7FC
:102E20001A680D68101D4969186013682E0601D5CF
:102E3000196002E06D06FBD519800023049E236112
:102E4000D2E71A68111D1960166800213000626807
:102E500000F032F8002801D0801B606063682361B5
:102E60000023049A1370BFE723693200069905987E
:102E7000079DA847431CC1D023689B0715D4099B15
:102E8000E0689842BCDA1800BAE7220001230699EC
:102E90000598079E1932B047431CAFD00135E3684F
:102EA000099A9B1AAB42F0DCE9E70025F7E7C04638
:102EB000093500001A350000C9B28218904201D1CC
:102EC0000020704703788B42FBD00130F6E710B545
:102ED000884202D98B18984203D3002307E08B5C09
:102EE0008354013AFBD210BDCC5CC45401339A42E6
:102EF000FAD1F8E70B1F1B68181F002B01DA0B58DB
:102F0000C018704703B47146490840004900095E83
:102F100049008E4403BC7047A62F0000D502000074
:102F200067000000AB2F00004104000067000000B4
:102F3000B22F0000F504000067000000B92F000068
:102F4000CD05000061000000C12F0000E109000074
:102F500067000000C82F000021030000610000008E
:102F60000000000018000000000000001900000030
:102F70000103000000000000050000000000000048
:102F8000080000000000000009000000010101012C
:102F900001000000883200001114000061000000F0
:102FA000004E554C4C0065786563007365746E7512
:102FB0006D0064656C6E756D006C6973746E756D13
:102FC000007570646174650068656C700041540040
:102FD00041542B434D47533D22257322002B434D33
:102FE0004753001A00436F6D6D616E642074696D04
:102FF0006564206F757400756172742D3E72656131
:103000006428292072657475726E6564206E756C13
:103010006C0025730A0041542B4653524541443DF0
:10302000433A5C25732E7478742C302C312C30008C
:1030300041542B46534352454154453D433A5C2548
:10304000732E7478740041542B465357524954459B
:103050003D433A5C25732E7478742C302C312C311E
:10306000000D0A006D616C6C6F63206661696C65B0
:10307000640055736167653A207365746E756D20E1
:103080003C6E756D6265723E203C6C6576656C3E8B
:103090000041542B465344454C3D433A5C25732E26
:1030A0007478740055736167653A2064656C6E7559
:1030B0006D203C6E756D6265723E0041542B465327
:1030C0004C533D433A5C004C6973743A0A002573D3
:1030D0003A2025630A0041544530002B43524547AE
:1030E0003A20302C310041542B435245473F004198
:1030F000542B434D47463D310041542B434D4744EB
:10310000413D2244454C20414C4C220055706461A5
:103110007465207375636365737366756C2C2076B4
:10312000657273696F6E20312E30206275696C7420
:10313000204D617920203620323032302031353A2E
:1031400034323A32390041542B434D47523D2564C5
:10315000002B434D4752000D0A0D0A4F4B002C2205
:103160000052494E4700415448002B434D544900FA
:1031700041542B53415042523D332C312C2241506B
:103180004E222C22696E7465726E65742200415461
:103190002B465450534552563D25730041542B46FF
:1031A0005450554E3D25730041542B4654505057B2
:1031B0003D25730041542B465450474554504154CB
:1031C000483D2F0041542B4654504745544E414DE5
:1031D000453D7570646174652E62696E0041542BC3
:1031E00053415042523D312C31002B5341504252F9
:1031F0003A20312C310041542B53415042523D3240
:103200002C310041542B53415042523D302C31005F
:1032100041542B465450474554544F46533D302C4F
:103220007570646174652E62696E002B4654504758
:103230004554544F46533A20302C00557064617405
:1032400065206661696C65640055736167653A2045
:10325000757064617465203C7365727665723E209A
:103260003C757365726E616D653E203C7061737371
:10327000776F72643E000A0B0C0D0E0F0001020303
:103280000405111213141516696E666F004E6F64F3
:10329000653A0A2049443A2025640A204E616D654A
:1032A0003A2025730A20547970653A2025640A2053
:1032B0004C617374207365656E3A202564207365D4
:1032C000632061676F0A0020536F696C206D6F691E
:1032D00073747572652073656E736F723A0A20207D
:1032E0004D6F6973747572653A2025640A00205425
:1032F000656D7065726174757265202B2068756DDF
:1033000069646974792073656E736F723A0A20205C
:1033100054656D70657261747572653A2025640A32
:10332000202048756D69646974793A2025640A0023
:103330002054656D70657261747572652073656E79
:10334000736F723A0A202054656D706572617475EE
:1033500072653A2025640A007365746E616D6500BC
:10336000636C65617200436F6D6D616E6420717591
:10337000657565640055736167653A207365746EA1
:10338000616D65203C69643E203C6E6577206E610E
:103390006D653E00002020202020202020202828AD
:1033A0002828282020202020202020202020202005
:1033B0002020202020881010101010101010101045
:1033C0001010101010040404040404040404041075
:1033D0001010101010104141414141410101010103
:1033E00001010101010101010101010101010101CD
:1033F00010101010101042424242424202020202D9
:10340000020202020202020202020202020202029C
:10341000101010102000000000000000000000004C
:10342000000000000000000000000000000000009C
:10343000000000000000000000000000000000008C
:10344000000000000000000000000000000000007C
:10345000000000000000000000000000000000006C
:10346000000000000000000000000000000000005C
:10347000000000000000000000000000000000004C
:10348000000000000000000000000000000000003C
:103490000000000000FFFFFF00000000000000002F
:1034A000000000000000000000000000000000001C
:1034B000000000000000000000000000000000000C
:1034C00000000000000000000000000000000000FC
:1034D00000000000000000000000000000000000EC
:1034E00000000000000000000000000000000000DC
:1034F0000000000000000000232D302B2000686C2D
:103500004C00656667454647003031323334353606
:10351000373839414243444546003031323334353F
:103520003637383961626364656600FFF8B5C046B6
:10353000F8BC08BC9E467047B500000001160000AC
:10354000E5170000D11C0000F8B5C046F8BC08BC67
:103550009E467047FFFFFFFF01B40248844601BC4E
:10356000604700BF9900002001B40248844601BCB6
:0C357000604700BFA10100208D0000009A
:10357C00822382689B00D25811858268D258137EB0
:10358C00DB07FCD5704770B505000C0021780029CD
:10359C0004D028000134FFF7EBFFF7E770BDF8B556
:1035AC0007000C0005230F4E32881D00013BDBB2D7
:1035BC00A2420CD8013DEDB2FF2D12D03021338840
:1035CC00A34209D8E41A0131A4B2C9B2F8E7023611
:1035DC00012BE9D11D00EDE73800FFF7C9FF0236DA
:1035EC00E8E7F8BDB0010020822382689B00D15827
:1035FC00044A0B7E5B07D80F002B02DB013A002A32
:10360C00F7D1704741420F008021F0B53B4B822728
:10361C005A6804008A435A60002287B00192013232
:10362C00FF3203920493BF00019B049A9D016B0827
:10363C00D361334B049A1380002620003149FFF7E5
:10364C00A2FF2000A9B2FFF7AAFF0D212000FFF76F
:10365C008FFF2000FFF7C8FFA3682000DB591B8DEC
:10366C00FFF7C2FF3000A368DB591B8DEB1E0593DF
:10367C00002805D12000FFF7B7FF01235840C0B246
:10368C000322FF233240D1008B409446029A9A4386
:10369C000292002806D1A368DB591B8DDBB28B404C
:1036AC001A4302926346032B02D1059B029A9A514C
:1036BC000136402EDCD1002818D12000FFF794FFF2
:1036CC00002803D0A368DB591B8DF6E7039B40351C
:1036DC00AB42B1D1039B0133FF330393019B043302
:1036EC0001938023019A5B009A429DD1BFF34F8FC7
:1036FC00054B064ADA60BFF34F8FFEE700400041EE
:10370C0002A5FFFFBA01002000ED00E00400FA055D
:10371C000F210139FDD10138FAD1704700000000AA
:10372C001027E80364000A00010041542B46535251
:10373C004541443D433A5C557365725C4654505C5C
:10374C007570646174652E62696E2C312C36342C64
:10375C0000FFFFFFA02F0000EC0100200000000084
:10376C00B8340000D8340000983400000000000089
:10377C00000000000000000000000000000000003D
:10378C00000000000000000000000000000000002D
:10379C00000000000000000000000000000000001D
:1037AC00000000000000000000000000000000000D
:0C37BC0000000000000000000000000001
:040000030000203D9C
:00000001FF
