:10000000001000202D2400002924000029240000D5
:1000100000000000000000000000000000000000E0
:100020000000000000000000000000002924000083
:10003000000000000000000029240000811B0000D7
:10004000292400002924000029240000292400007C
:1000500029240000292400002924000000000000B9
:100060002924000099200000A92000002924000074
:10007000292400002924000029240000292400004C
:1000800029240000292400002924000010B5064C72
:100090002378002B07D1054B002B02D0044800E049
:1000A00000BF0123237010BD780000200000000075
:1000B0004C380000044B10B5002B03D00349044812
:1000C00000E000BF10BDC046000000007C00002022
:1000D0004C38000010B50378002B07D0303B092BBB
:1000E00001D90130F7E702F0C1FA00E0002010BDAD
:1000F000F0B58FB005006846009142602E00020006
:1001000012CA12C634000022AA60EA602B6141685C
:100110000132100088402B68DB014B4FBC46634422
:1001200098605B18403319780220814319706B681E
:100130009A402B68DB0163449A6102AA434B83CB4C
:1001400083C23168002900D16EE0706801314B0034
:100150005918890002F0A8FB00280BD060602368C2
:100160005A00D218920002AB801846CB46C02368D2
:100170000133236005AA354B0C3343CB43C22168BE
:10018000002955D001314B0059188900606802F0F0
:100190008BFB00280BD0606023685A00D2189200B5
:1001A00005AB801846CB46C023680133236008AAFC
:1001B000264B183343CB43C2216800293CD0013180
:1001C0004B0059188900606802F06EFB00280BD0C4
:1001D000606023685A00D218920008AB801846CBA2
:1001E00046C02368013323600BAA184B243343CB4A
:1001F00043C22168002923D001314B0059188900DE
:10020000606802F051FB00280BD0606023685A0040
:10021000D21892000BAB801846CB46C0236801333E
:10022000236028000FB0F0BD0C2002F061FA93E7C4
:100230000C2002F05DFAACE70C2002F059FAC5E799
:100240000C2002F055FADEE70044004114330000B0
:1002500010B50400C068002801D002F053FA200055
:1002600010BDFFFFF8B5040017001E00036900224F
:10027000812080001A5225481A52002082229200C2
:10028000985401225242206901F0DEFD0D212069BF
:1002900001F0CCFD01F068FC050012E08122920023
:1002A000995A1A4A9B5AC91A89B280239B009C46C4
:1002B000614489B2002916D101F056FC401BB042BE
:1002C0001FD2236981229200995A89B20F4A9A5A01
:1002D00092B29142E2D381229200995A0B4A9B5AE0
:1002E000C91A89B2E6E70A4803F0A6FA002F0AD035
:1002F0002069390001F03CFE0130431E9841C0B234
:1003000000E00020F8BD0120FCE7C0460602000026
:10031000A0860100F8B5CE46474680B580460F005E
:1003200016001D00089B99460024AC420CDA4B468F
:10033000320039004046FFF795FF002805D10548F7
:1003400003F07AFA0134F0E700200CBC904699469D
:10035000F8BDC04620A10700F0B5C64600B582B082
:1003600004000D21006901F061FDFA235B001C4AC5
:100370001C492000FFF776FF071E2BD10026022E16
:1003800028DC01252A0063689A402368DB011649AE
:100390008C4663445A61154B9846180003F04CFA9A
:1003A00063689D402368DB010F4A944663449D6166
:1003B000404603F041FAFA235B000093EF3BFF3B1A
:1003C000074A08492000FFF7A5FF002801D10136A0
:1003D000D5E70700380002B004BC9046F0BDC04627
:1003E00030350000AC3300000044004140420F00B3
:1003F00070B582B00500FFF7AFFF041E02D12000E8
:1004000002B070BD144C2300002214492800FFF7ED
:1004100029FF00941923124A12492800FFF77AFF96
:10042000041EECD00C4E330000220F492800FFF7C9
:1004300019FF330000220D492800FFF713FF2B6935
:100440000022812189005A5209495A5200218222F0
:1004500092009954D3E7C046B80B0000B0330000B7
:10046000B8330000C4330000D0330000DC33000098
:100470000602000030B591B004000B001500134ACD
:100480004021684602F02CFA114B002269462000F8
:10049000FFF7E8FE002801D111B030BD0122524221
:1004A0002900206901F0D0FC0A4B0B4A0B492000BF
:1004B000FFF7D8FE23690022812189005A5208499A
:1004C0005A520021822292009954E5E7F03300004D
:1004D000B80B000060EA000000340000083400009F
:1004E0000602000070B504000D0011000F4B002241
:1004F000FFF7B8FE002805D10D4A29002000FFF7BC
:10050000B9FF70BD206901F07FFD061E08D0020012
:1005100029002000FFF7AEFF300002F0F3F8F0E70B
:10052000044A29002000FFF7A5FFEAE7B80B000006
:100530000C3400002034000010B590B004000B0013
:10054000234A4021684602F0CBF9224B224A6946F1
:100550002000FFF787FE002836D0206981239B000A
:10056000C25A92B21D4BC35A9BB29A420AD38123FC
:100570009B00C35A194A825A9B1A9BB2022B0ED86F
:10058000002022E081239B00C35A144A825A9B1AFE
:100590009BB280229200944663449BB2EEE701F046
:1005A00081FC206901F07EFC206901F07BFC23695D
:1005B0000022812189005A5208495A520021822280
:1005C00092009954C04600E0002010B010BDC04613
:1005D0003C340000B80B000030350000060200007B
:1005E000F0B591B004000D0016000B00134A402135
:1005F000684602F075F9124F3B0000226946200060
:10060000FFF730FE2B000F4A4021684602F068F9E0
:100610003B000D4A69462000FFF724FE002801D167
:1006200011B0F0BD3100206901F000FC3B00002258
:1006300006492000FFF716FEF2E7C04658340000D6
:10064000B80B0000703400008C34000090340000BF
:10065000F0B5C64600B506000F00141E29D01000E4
:1006600002F0ACF902F044F8051E1CD0210002F0A3
:100670009DF9184B98461900280002F0E1F9040092
:100680004146002002F0DCF9002C15D0002813D0E0
:10069000027821003000FFF7A3FF0F4A3900300035
:1006A000FFF7E8FE0DE00D4A39003000FFF7E2FEEB
:1006B0000CE015001000E7E7094A39003000FFF7A9
:1006C000D9FE002D02D0280002F01CF804BC904690
:1006D000F0BDC046A4340000303500009434000062
:1006E000A834000010B590B004000B00064A402169
:1006F000684602F0F5F8054B002269462000FFF736
:10070000B1FD10B010BDC046C8340000B80B0000E9
:1007100010B50B00111E02D0FFF7E4FF10BD024A16
:100720001900FFF7A7FEF9E7DC340000F0B5C64674
:1007300000B504000E002B4B00222B49FFF792FD61
:10074000002804D10027380004BC9046F0BD206981
:1007500001F05AFC8046002842D0244902F070F98A
:100760000400002710E0042001F0C2FF002806D09A
:10077000706033689B00C5503368013333601B4998
:10078000002002F05DF90400002C25D0200002F0CA
:1007900015F905000428F2D904382018144902F08C
:1007A000FBF80028EBD10137002EE8D0E81E01212C
:1007B00001F062FF0500200002F000F9021F210095
:1007C000280001F0A9FF31680029CCD0013189004F
:1007D000706802F069F8C9E7404601F093FFB2E79C
:1007E0000027B0E7B80B0000F4340000903400009C
:1007F00000350000F0B5C64600B584B00700884655
:1008000002AA2F4B1B680293039B5B0D59050391B2
:100810005B012C490B40D3800023D371039BDB0287
:10082000DB0A062B26D902AC07222749029801F0E1
:1008300073FFE27980235B421343E371002300934B
:10084000019369463800FFF771FF019D009B9E00F0
:10085000AE19B54213D010CD21003800FFF76CFE61
:1008600003002200194902A800F002FE200001F056
:1008700049FFEEE70721100000F082FDD3E7029A5E
:1008800041463800FFF7F6FD0198002801D001F03D
:1008900039FF02ABDB795BB2002B03DB04B004BC95
:1008A0009046F0BD029804AB984202D001F02AFFB6
:1008B000F4E702ABDA88064B1A42EFD1F6E7C046FE
:1008C000100000201F80FFFF0835000010350000D9
:1008D000E07F0000F8B5CE46474680B580460E0062
:1008E00091462021300002F049F8071E02D0002373
:1008F000037001374346DC689B685D00ED18AD006E
:100900006519AC4213D03100206802F01DF80028B0
:1009100001D00C34F5E749464046FFF70DFE237A37
:10092000984208D363683A004946404698470CBC51
:1009300090469946F8BD00214046FFF7F7FE002893
:10094000F5D1EFE7F0B591B004000B00264A402145
:10095000684601F0C5FF254B254A69462000FFF790
:1009600081FC002801D111B0F0BD206901F04CFBE1
:10097000071EF8D01E4902F04DF805000A2101F0CB
:10098000FDFF002820D0461C1A49300002F042F832
:1009900000281DD0002303701749280002F03AF800
:1009A000002819D0851C2221280001F0E7FF00282B
:1009B00016D0002303702A0031002000FFF78AFFC1
:1009C000380001F09FFECEE7380001F09BFECAE739
:1009D000380001F097FEC6E7380001F093FEC2E749
:1009E000380001F08FFEBEE718350000B80B00009C
:1009F000243500002C3500003435000070B50400AB
:100A0000026981239B00D15A89B2204BD35A9BB2F1
:100A1000994209D381239B00D35A1C49525A9B1AED
:100A20009BB2002B0DD170BD81239B00D35A174977
:100A3000525A9B1A9BB280229200944663449BB206
:100A4000EFE7134802F0F8FE206901F0DDFA051E19
:100A5000E9D0104901F0DEFF002809D00E4B00223A
:100A60000E492000FFF7FEFB280001F04BFEDAE7FD
:100A70000B49280001F0CEFF0028F5D0FFF72AFB34
:100A800001002000FFF75EFFEEE7C046060200000F
:100A9000A086010038350000B80B0000403500008A
:100AA0004435000010B5C368046900290AD001224A
:100AB000A240DB0107498C4663449A61406A02F018
:100AC000BBFE10BD0122A240DB0102498C466344FB
:100AD0005A61F3E70044004170B584B004000D0092
:100AE000694603000C330A0041CB41C2082202A828
:100AF00001F012FE6368029A93420BD0A168002DA8
:100B00000DD001228A40DB0109498C4663449A6179
:100B100004B070BDA26803998A42EFD1F8E70122C0
:100B20008A40DB0102498C4663445A61F0E7C046C3
:100B30000044004170B504000D000021FFF7B2FF32
:100B40001F212940206800F025FFFF21206800F0C8
:100B500021FF050001212000FFF7A4FF280070BD40
:100B6000F8B5CE46474680B507000C0016001D00BC
:100B70000021FFF797FF1F21214020231943C9B20D
:100B8000386800F007FF81466C1EE4B2002D08D0E3
:100B9000731C98463178386800F0FCFE2500464604
:100BA000F2E701213800FFF77DFF48460CBC904674
:100BB0009946F8BD70B504000D0016000021FFF73E
:100BC00071FF1F21294020231943C9B2206800F07A
:100BD000E1FE05003100206800F0DCFE012120006C
:100BE000FFF760FF280070BDF8B5CE46474680B5D8
:100BF00007000C0016009846C57D954200D82E00CF
:100C00003B7E002B17D1AD1BEDB200213800FFF762
:100C100049FF4146386800F0BDFE8046731EDBB2D6
:100C20009946002E09D0661C2178386800F0B2FE83
:100C300034004E46F2E70025E7E76C1EE4B2002DD3
:100C400005D00021386800F0A5FE2500F5E7012158
:100C50003800FFF727FF40460CBC90469946F8BD88
:100C6000F8B5CE46474680B507000C001600C57D96
:100C7000954200D22E003B7E002B18D1AD1BEDB269
:100C800000213800FFF70EFF6121386800F082FE76
:100C90008046731EDBB29946002E0AD0661CFF21E7
:100CA000386800F077FE207034004E46F1E70025EA
:100CB000E6E76C1EE4B2002D05D0FF21386800F095
:100CC00069FE2500F5E701213800FFF7EBFE4046FD
:100CD0000CBC90469946F8BD70B504000D0000218B
:100CE000FFF7E0FE2900206800F054FE0500012116
:100CF0002000FFF7D7FE280070BD10B5E221FFF7F6
:100D0000EBFF10BD10B5E121FFF7E6FF10BD10B5F8
:100D1000FF21FFF7E1FF10BD82B030B583B06C4614
:100D20000091626007AA07930300099902C322CCCD
:100D300022C303000C3312CA12C30023837520227E
:100D4000C27503761B3A82774262437603B030BCA9
:100D500008BC02B0184710B50A007C2900D97D22D2
:100D60000521FFF727FF10BD0B1C202900D92023E8
:100D7000C375704710B504000021FFF7ADFE206A6F
:100D800002F05AFD1D212000FFF7D4FE830717D47F
:100D900000212000FFF7CEFE01239843C2B20021BC
:100DA0002000FFF707FF02212000FFF7C3FE42B239
:100DB00001200243D2B202212000FFF7FBFE10BD4A
:100DC000206A02F039FD2000FFF79CFFE0E7FFFFFB
:100DD00010B504000021FFF7ADFE830700D510BD5C
:100DE00002220243D2B200212000FFF7E3FE0248B4
:100DF00002F022FDF3E7C046881300000123C37709
:100E0000704770B5040004A80578002B06D0B02305
:100E10002000FFF7E9FE002D02D170BDA023F7E707
:100E200001212000FFF758FEF7E730B583B004003A
:100E3000012000902000FFF7E4FF00F095FE050080
:100E40002000FFF764FF302303420AD100F08CFE3C
:100E5000401B5F28F4D92000FFF7D0FF002003B02B
:100E600030BD00212000FFF737FE7022072120004F
:100E7000FFF7A0FEC30601D40120F0E72000FFF732
:100E800041FF0020EBE710B50023FFF7CEFF10BDB8
:100E900070B504000D001721FFF74CFEC30701D504
:100EA000002070BD002D06D02000FFF730FF43105A
:100EB0000720184028700120F3E710B50021FFF744
:100EC000E7FF10BD10B50400FFF7CAFE702207212E
:100ED0002000FFF76FFE10BD10B582B00400009235
:100EE0000193837F6A460A21FFF73AFEA37F6A4691
:100EF00010212000FFF734FEE27D11212000FFF7D2
:100F000059FE02B010BDFFFF30B583B005000C00E4
:100F100000920193002921D0062C1DD8012C23D941
:100F2000154B195D01236A462800FFF719FEEA7D7B
:100F3000124B195D2800FFF73DFE02212800FFF744
:100F4000F9FD42B20E4B1B5D012098400243D2B224
:100F500002212800FFF72EFE03B030BD827F6946D4
:100F6000193001F0D9FBD7E7AB7F034A115D6A4620
:100F70002800FFF7F5FDDAE74C3500005C3500008E
:100F80005435000070B504000D000221FFF7D2FDBA
:100F900042B2054B595D01238B409A43D2B20221E4
:100FA0002000FFF707FE70BD5435000010B50400A7
:100FB000FFF70EFF00212000FFF7BCFD01220243D6
:100FC000D2B200212000FFF7F5FD7022072120009A
:100FD000FFF7F0FD01212000FFF77EFD637E002B6F
:100FE0000DD0A37F220019320A212000FFF7B8FD9F
:100FF0001D212000FFF79EFD830705D410BD0021B1
:101000002000FFF7BFFFF3E72000FFF77BFEF5E7C7
:1010100010B504000021FFF745FD5021206800F0C5
:10102000B9FC7321206800F0B5FC01212000FFF716
:1010300039FD10BD10B5002904D03F220121FFF772
:10104000B9FD10BD00220121FFF7B4FDF9E770B52D
:1010500005000C000621FFF76DFD07239843C0B281
:10106000032C09D86400E2B20132D2B20243062155
:101070002800FFF79FFD70BD0722F7E770B5060057
:101080000D000621FFF756FD28239843C4B2D23342
:101090003362022D0ED0012D12D022000621300025
:1010A000FFF788FD06213000FFF744FDA0420DD078
:1010B000002070BD20200443E4B2C8333362ECE763
:1010C00008200443E4B2BE233362E6E70120F0E7E0
:1010D00010B509010F2313400B43DAB20421FFF7C7
:1010E00069FD10BD70B584B00400694603000C337F
:1010F0000A0021CB21C2082202A801F00DFB63687F
:10110000029A9A4200D185E0A16801228A40DB015F
:101110004648844663449A605B1840331A7802213B
:101120008A431A70694623000C330A0021CB21C27E
:10113000082202A801F0F0FA6368029A934200D1F3
:101140006EE0216901228A40E368DB01374884466A
:1011500063449A605B1840331A7802218A431A70FC
:1011600000212000FFF7B8FC01212000FFF79AFCC6
:101170002F4802F061FB0C2200212000FFF71AFD2E
:101180000F2205212000FFF7A3FF02212000FFF717
:1011900075FF002801D00123A37506212000FFF769
:1011A000C9FC060000212000FFF768FF2000FFF7C0
:1011B0002FFF00221D212000FFF7FCFC00221C2134
:1011C0002000FFF7F7FC002525767022072120007C
:1011D000FFF7F0FC4C212000FFF7BDFD2000FFF7DA
:1011E0008CFD2000FFF78EFD2000FFF7F1FD0021B0
:1011F0002000FFF79FFC01239843C2B2002120008A
:10120000FFF7D8FC013EF6B2FD23B3426D41E8B2D0
:1012100004B070BDA26803998A4200D074E781E7E8
:10122000A368039A934200D08BE799E700440041FA
:101230008813000010B5074B586B002802D01B6BB9
:10124000002B04D1034B00225A631A6310BD01F036
:1012500059FAF7E7A800002010B50400406B0028F9
:1012600001D001F04FFAE06A002801D001F04AFAFB
:10127000200010BD10B513000A000100014801F064
:1012800059F810BDA800002070B592B0012801D017
:1012900012B070BD124B9942FAD10024114E124B7C
:1012A000210002223000FEF723FF104D2A001049D2
:1012B000300001F01FF90F4B01930F23009323001F
:1012C00021000E2202A8FFF727FD0B4C02A92000E7
:1012D00000F0FAFE2A000949200001F00BF9D7E7D7
:1012E000FFFF000094000020FC0200200C00002002
:1012F00051020000E0000020A80000205912000068
:10130000F8B504000E004368DB02DB0A8B4220DAEA
:10131000C5886D04AD0D8D421CDD070008376E1EBB
:1013200032002168380001F061FBBE1900233370E0
:101330000723E356002B13DB2760ED02ED0A6368F9
:101340005B0D5B051D4365601B0E802252421343FB
:10135000E371F8BD080001F0CBF907003500DEE7C6
:10136000206823000833984202D001F0CBF9E3E76C
:10137000E288024B1A42DFD1F7E7C046E07F000067
:1013800070B504000D004368DB02DB0A8B4215DAFE
:101390000723C356002B12DBE3885B049B0DAB4293
:1013A0001ADD2200083222606268520D5205134392
:1013B0006360E27980235B421343E37170BD006890
:1013C00023000833834202D001F09CF9E4E7E2886D
:1013D000074B1A42E0D1F7E7280001F089F92060B5
:1013E000ED02ED0A6368590D49050D436560E0E7BC
:1013F000E07F0000F0B583B005000E0017000193F8
:1014000007228256002A10DB0020002A10DB002170
:101410003A0001F027FC040031186B68DB02DB0A9C
:1014200099420ADA200003B0F0BD01688819ECE7A0
:101430006A68D102C90A891BEAE701312800FFF76F
:101440005FFF2868611C8019019B3A0001F00AFCCB
:101450000400E7E770B504000D001600006801F015
:10146000ADFA010033002A002000FFF7C3FF70BD72
:101470000EB400B582B003AA02CA0192FFF7EAFFD8
:1014800002B008BC03B01847F0B5D6464F464646F2
:10149000C0B584B08146884602AA3C4B1B680293C3
:1014A000039B5B0D590503915B0139490B40D380C8
:1014B0000023D371039BDB02DB0A062B12D902AC9B
:1014C00007223449029801F027F9E27980235B4230
:1014D0001343E371304B5C6B1B6BDE00F618B600F8
:1014E000A6190BE007211000FFF74AFFE7E7628922
:1014F000A3892A4902A8FFF7BBFF2434B44228D0AD
:101500000027E757651C637A9A4600F02DFB236A93
:10151000C01AFA21890000F0F5FF019053460093AC
:101520002B003A001E4902A8FFF7A2FF637A022BA4
:10153000DDD0032B07D0012BDFD16289194902A826
:10154000FFF796FFD9E76289174902A8FFF790FFD6
:10155000D3E7029A41464846FEF78CFF02ABDB799F
:101560005BB2002B05DB04B01CBC90469946A2463A
:10157000F0BD029804AB984202D001F0C3F8F2E744
:1015800002ABDA88094B1A42EDD1F6E710000020D1
:101590001F80FFFF08350000A8000020D0350000A4
:1015A0006C350000A835000014360000E07F000014
:1015B00070B504000D000168002915D001314B0001
:1015C00059188900406801F06FF90300002B0AD018
:1015D000636022685000801880001B1807CD07C385
:1015E00023680133236070BD0C2001F081F80300F3
:1015F000ECE7FFFF70B59CB00EA9364C0B00220043
:1016000061CA61C321CA21C3334A344800F0F2FAE7
:1016100006A8143402002ACC2AC22ACC2AC20ACC38
:101620000AC21423059309AB6A4632CB32C212CBED
:1016300012C20699079A089B294800F06DF8294BB9
:1016400010229A6044215A5C022082435A54264850
:1016500000F04AFD002806D1224B1022DA6123480F
:1016600002F0EAF8F8E72248FEF7C2FE002809D1A6
:101670001D4800F049FE1B4B1022DA611D4802F0A4
:10168000DBF8F5E713A9134B34330A0031CB31C231
:10169000174C08342000FFF78BFF16A9164B169342
:1016A000164B4B6061250D722000FFF781FF19A9D1
:1016B000134B1993134B4B600D722000FFF778FF0B
:1016C0000B48FFF79BF9084800F01EFE054B10225F
:1016D000DA61F5E7443300002BF60000FC0200203D
:1016E000E000002000440041A800002000350C006C
:1016F00094000020400D03003C36000075120000ED
:10170000443600003512000010B502490120FFF7F1
:10171000BBFD10BDFFFF000084B0F0B5C64600B5AC
:101720000791089209930FAB1B889846834B026878
:101730009A4200D1C1E0824A136A0424234313620F
:10174000804B814A5A807F4B5B78DB09FBD107AB2A
:101750001B7E002B00D1BDE00325079A089CE30700
:1017600000D4B9E0E30F1B195F100F263540D301F9
:1017700076498C466344DB1930331F782D013E4097
:101780002E431E70D301714A944663441B194033A3
:101790001A78012422431A7007AB5B7E002B00D11C
:1017A000A9E00325099A0A9CE30700D4A5E0E30F0A
:1017B0001B195F100F263540D30164498C466344E2
:1017C000DB1930331F782D013E402E431E70D301AC
:1017D0005E4A944663441B1940331A78012422431D
:1017E0001A7007AB9B7E002B00D195E003250B9A66
:1017F0000C9CE30700D491E0E30F1B195F100F2648
:101800003540D30151498C466344DB1930331F788E
:101810002D013E402E431E70D3014C4A9446634432
:101820001B1940331A78012422431A700268136886
:101830000224A343136002681368013C234313602E
:1018400003681A68D207FBD41A681C24A243103C10
:1018500022431A60066807AD2C7F03231C403268C0
:1018600024043B4F3A40224332600468ED7E2268F4
:101870002B401B05374D2A40134323600368DA6968
:101880005207FBD45C688022920222435A600368AC
:10189000DA695207FBD44246D1B219730268136861
:1018A00002210B4313600368DB699B07FBD404BC74
:1018B0009046F0BC08BC04B01847214A136A0824BB
:1018C000234313621F4B244A5A801E4B5B78DB096B
:1018D000FBD13CE7022540E7E30F1B195E10D30163
:1018E0001A498C4663449B1930331E780F27BE4338
:1018F00035431D7046E7022554E7E30F1B195E10C0
:10190000D30112498C4663449B1930331E780F274C
:10191000BE4335431D705AE7022568E7E30F1B19E4
:101920005E10D30109498C4663449B1930331E78FD
:101930000F27BE4335431D706EE7C046000C0042C2
:1019400000040040000C00400E4000000044004134
:10195000FFFFFCFFFFFFCFFF0F400000016070475B
:1019600010B5012800D010BD054B9942FBD10549A7
:101970000548FFF7F3FF05490548FFF7EFFFF2E7DA
:10198000FFFF000000080042E0000020000C0042C1
:10199000E40000200268002A0AD0137EDB07FCD591
:1019A000916203681A7E5207FBD5986AC0B27047ED
:1019B000FF20FCE710B502490120FFF7D1FF10BD61
:1019C000FFFF0000484A116AC0239B000B431362CB
:1019D00046494A681E239A431C3B13434B60444AC2
:1019E000916908230B439361424A137801210B4309
:1019F0001370404B1B78DB0703D53E4B5B78DB094C
:101A0000F7D1394B196A802291431962394B3A4A0E
:101A10009A603A4A5A60374B5B78DB09FBD1354B09
:101A20008622D2015A80334B5B78DB09FBD12E4AE8
:101A3000938C80218B4393842B4BDB68DB06FBD597
:101A4000294BDA6A120C1204C02109011143D96230
:101A5000DA6A920192098021C9041143D962D96AD4
:101A6000274A1140802252020A43DA621E4BDB6889
:101A7000DB06FBD51C4A938C812189000B439384A0
:101A8000194BDB68DB06FBD5174B996880220A43AC
:101A90009A60996840220A439A60996810220A4322
:101AA0009A609A8C02210A439A840F4BDB68DB060A
:101AB000FBD50D4B9B681B0603D40B4B9B685B0649
:101AC000F7D5094B9B68DB06FBD50A4B00229A60D1
:101AD000084B5B78DB09FBD1064B0A4A5A60054B81
:101AE0005B78DB09FBD170470008004000400041F3
:101AF00000040040000C0040034000000306010009
:101B0000FFFF00FC0007030010B5FFF75BFF094B68
:101B10000020002118605960074B00221A60074A14
:101B20005A609A6007221A60054B802212061A60DA
:101B300010BDC046E800002010E000E0FFFFFF00FD
:101B400000E100E0054B9B68054AD01A0021054BD7
:101B50001A685B68801859417047C04610E000E081
:101B6000FFFFFF00E800002010B5FFF7EBFF034A7E
:101B7000002300F053FDC80810BDC04634EC0A0035
:101B800030B505490A684B688024640400251219A1
:101B90006B410A604B6030BDE800002070B5012841
:101BA00000D070BD0C4B9942FBD10C4A8125AD0091
:101BB000002353530A4C13538220800013540949C5
:101BC0005354094E1660094A535313531354535434
:101BD000074B1360E5E7C046FFFF0000F000002060
:101BE000060200000902000000080042FC0200207A
:101BF000000C0042F0B5CE46474680B591466C4B8E
:101C000004689C4200D19DE06A4C236A04252B4362
:101C10002362694B694C5C808B7C002B00D19AE07D
:101C200003260C684D68EB0700D496E0EB0F5B19B8
:101C30005B109C460F273E40E301614A90464344B7
:101C4000634430331A783601174037431F70E3017D
:101C50005B4CA44663445B1940331C7801252C433C
:101C60001C70CB7C002B00D186E003268C68CD68ED
:101C7000EB0700D482E0EB0F5B195B109C460F274B
:101C80003E40E3014E4A90464344634430331A7861
:101C90003601174037431F70E301494CA4466344A3
:101CA0005B1940331C7801252C431C7004682368A1
:101CB0000225AB43236004682368013D2B43236066
:101CC00003681C68E407FBD41C681C25AC43183D62
:101CD0002C431C60046825688023DB052B432360AC
:101CE00006680D7C03231D4034682D04354F3C40AD
:101CF0002C43346004684D7C21682B401B05324D19
:101D000029400B43236003684A469A810368C02236
:101D100092025A600268937D04210B439375036815
:101D20002A4A934239D0224A93423BD00268136830
:101D300002210B431360264B0122C2540CBC904677
:101D40009946F0BD1B4C236A08252B4323621A4B8E
:101D5000204C5C8060E7022663E7EB0F5B195F10A5
:101D6000E301174A94466344DB1930331F780F228E
:101D700097433E431E706AE7022677E7EB0F5B1935
:101D80005F10E3010E4A94466344DB1930331F7839
:101D90000F2297433E431E707EE70F4B8022920036
:101DA0001A60C3E70C4B8022D2001A60BEE7C0461F
:101DB000000C004200040040000C00400E400000F7
:101DC00000440041FFFFFCFFFFFFCFFF000800427F
:101DD000090200000F40000000E100E0114BC35C6D
:101DE000002B1BD082239B00C35C002B17D1036800
:101DF000198D81229200835AC9B2C3181971835A6E
:101E00000133DB05DB0D8352074BC35A825A9B1A01
:101E10005A425341DBB282229200835470470368D6
:101E20001B8DFBE70902000006020000054BC35CA6
:101E3000002B06D089B20368198503681B7EDB0777
:101E4000FBD570470902000070B506001400094B6D
:101E5000C35C002B0AD170BD2300013C002BFAD0DB
:101E60004D1C09783000FFF7E1FF2900631CF3D116
:101E70000B78F3E70902000082239B00C35C002B70
:101E80000AD181239B00C25A92B2054BC35A9BB21E
:101E90009A4203D0002000E0002070470120FCE7B8
:101EA0000602000010B504000C4BC35C002B13D0DD
:101EB0002000FFF7E1FF0028FAD1094AA35AE318EE
:101EC0001879C0B282239B000021E154A35A013348
:101ED000DB05DB0DA35210BD0020FCE7090200006A
:101EE0000602000070B504000D001F4BC35C002B00
:101EF00001D1002070BDFFF7BFFF00282FD1812343
:101F00009B00E25A92B2194BE35A9BB29A4213D306
:101F100081239B00E35A154AA25A9B1A9BB2AB42FB
:101F20001FDD6B1C15D0114BE05A4019C005C00DC8
:101F300024182079C0B2DDE781239B00E35A0B4AC5
:101F4000A25A9B1A9BB280229200944663449BB291
:101F5000E5E7064BE05A24182079C0B2CAE7002012
:101F6000C8E70020C6E7C0460902000006020000DC
:101F7000F0B5C64600B507000D00214BC35C002B31
:101F800035D00023984681239B00FA5A92B21D4B0C
:101F9000FB5A9BB29A4219D381239B00FB5A194AE0
:101FA000BA5A9B1A9BB2434525DD00242E5D434659
:101FB00019193800FFF796FF864214D101342B5DC2
:101FC000002BF3D1404604BC9046F0BD81239B001A
:101FD000FB5A0C4ABA5A9B1A9BB280229200944632
:101FE00063449BB2DFE701239C46E044CBE7012337
:101FF0005B429846E6E701235B429846E2E7C0462B
:102000000902000006020000F0B5C64600B5050052
:102010001F4BC35C002B36D081239B00C25A92B267
:102020001C4BC35A9BB29A4210D381239B00C05AC7
:10203000184BEB5AC01A80B28046002825D00130D8
:1020400000F056FB071E1AD0002412E081239B00EB
:10205000C05A104BEB5AC01A80B280239B009C469A
:10206000604480B2E8E73E192800FFF71BFF30709C
:1020700001344445F7D34346FB1800221A70380058
:1020800004BC9046F0BD0027F9E70027F7E7C046FB
:10209000090200000602000010B50248FFF79EFE8C
:1020A00010BDC046F000002010B50248FFF796FEB4
:1020B00010BDC046FC02002010B502490120FFF708
:1020C0006DFD10BDFFFF000030B5030034C934C3FF
:1020D00034C934C334C934C30A681A600023836224
:1020E000C3620363436330BD70B50400FEF7FAFFBB
:1020F000051E01D1280070BD78212000FEF72BFEBF
:1021000001212000FEF796FF0F2205212000FEF797
:10211000DFFF20212000FEF727FE03212000FEF72D
:1021200096FF00212000FEF7A9FF054A00230121A8
:102130002000FEF7E9FE2000FEF738FFDAE7C04690
:10214000FF04000070B58AB00600446B036BDD002D
:10215000ED18AD006519AC420FD00022A256002345
:10216000CB569A4201D02434F5E72022200000F01B
:10217000D3FAFFF7F9FC206224E034003034202247
:1021800001A800F0C9FAFFF7EFFC0990316B0029B4
:102190001AD00131CB0059188900606800F084FB27
:1021A00000280FD06060336BDA00D218920001ABC8
:1021B000801816CB16C016CB16C016CB16C0336BC4
:1021C000013333630AB070BD242000F091FAE7E7D1
:1021D000F0B5C64600B506000D000023CB56002B17
:1021E0003BD101330B70446B036BDF00FF18BF0062
:1021F000E7191FE00023E3562B7029003000FFF79A
:10220000A1FF3000FEF7B6FDFF236B72FE3BAB7201
:102210008022D20000233000FEF75EFE202229003B
:102220003000FEF730FE3000FEF7C0FE04BC9046E2
:10223000F0BD2434BC42E0D0601C691C082200F0D0
:10224000C4FB0028D6D00023E3560022AA569342AE
:10225000EFDBDBB201332B70EBE7FFF773FF0024FA
:1022600008E04346586800F04DFA002342465360A8
:10227000013C0134B36A9C42D8D2F36A6701DA198F
:102280009046DA570023EB569A42F2D13000FEF71F
:1022900071FD434600215956CB178022D2000A43D4
:1022A0003000FEF719FE202241463000FEF7EBFD1C
:1022B0003000FEF77BFE28239846B044F36A9C4624
:1022C0006744B36A002BD3D0424652689742CFD3BB
:1022D0005B01D1188F42CBD239002031BA1A52118A
:1022E0009A1A203A380000F017FAB36A591EB16200
:1022F0000029B6D049014346586800F0D5FA0028B5
:10230000B6D043465860B3E710B588B00400FEF776
:10231000D4FD002801D108B010BD2022694620005C
:10232000FEF7D0FD69462000FFF752FF2000FEF7C0
:10233000E4FCF0E7F0B5CE46474680B589B006002C
:10234000884691461C1E32D0180000F037FB00F082
:10235000CFF9051E25D0210000F028FB2E4F3900B3
:10236000280000F06DFB04003900002000F068FB3D
:102370000700002C06D0002F04D0200000F076F9D2
:10238000002817D1254A49464046FEF773F8002D2C
:1023900002D0280000F0B6F909B00CBC904699466E
:1023A000F0BD1F4A49464046FEF764F8F4E71D00B9
:1023B0001F00DEE7200000F059F96B461870FF237C
:1023C0006A465372FD3B9372082239006B46581CD3
:1023D00000F00CFB34002834B16A002917D0013119
:1023E0004901606800F060FA00280AD06060B36AB2
:1023F0005B01C0182022694600F08EF9B36A0133F0
:10240000B362084A49464046FEF734F8BFE7202049
:1024100000F06EF9E8E7C046A43400005C36000026
:10242000943400004C360000FEE7FFFF10B51E4A52
:102430001E4B9A4207D01D4B1B4A01E002CA02C341
:102440001B498B42FAD31B4B01E0002204C31A4AFA
:102450009342FAD3194B7F229343194A9360194A46
:1024600090235B000221D150174B9A7B2E318A4377
:1024700020210A439A739A7B0C218A4308210A433C
:102480009A739A7B03218A4302210A439A730F4A63
:10249000516880230B435360FFF736FB00F004F9CB
:1024A000FFF7A8F8FEE7C0464C3800000000002007
:1024B00078000020780000202405002000000000A3
:1024C00000ED00E000700041004800410040004184
:1024D0000300064A1268002A04D0044A1068C31890
:1024E00013607047014A02491160F6E708050020B1
:1024F00024050020030010B50800190000F0C6F8FC
:1025000010BDFFFF002243088B4274D303098B42A6
:102510005FD3030A8B4244D3030B8B4228D3030CB3
:102520008B420DD3FF22090212BA030C8B4202D355
:102530001212090265D0030B8B4219D300E0090A7D
:10254000C30B8B4201D3CB03C01A5241830B8B4286
:1025500001D38B03C01A5241430B8B4201D34B036F
:10256000C01A5241030B8B4201D30B03C01A5241D4
:10257000C30A8B4201D3CB02C01A5241830A8B4259
:1025800001D38B02C01A5241430A8B4201D34B0242
:10259000C01A5241030A8B4201D30B02C01A5241A6
:1025A000CDD2C3098B4201D3CB01C01A524183095A
:1025B0008B4201D38B01C01A524143098B4201D394
:1025C0004B01C01A524103098B4201D30B01C01ABF
:1025D0005241C3088B4201D3CB00C01A5241830839
:1025E0008B4201D38B00C01A524143088B4201D366
:1025F0004B00C01A5241411A00D2014652411046C6
:102600007047FFE701B5002000F006F802BDC046A4
:102610000029F7D076E770477047C046F0B515043B
:102620002D0C0F0001002E00C64684460004140C39
:10263000000C090C46434D43604361434019340C80
:10264000241800B5A54203D98020400280464144A9
:10265000250C6D18614659437A4330044919240406
:10266000000C2018891804BC9046F0BD10B50A2251
:10267000002100F0BFFA10BD10B5034B0A000100A5
:10268000186800F05AF810BD1400002010B50400BE
:1026900004481300002804D00A000220210000E0B2
:1026A00000BF10BD0000000070B500260C4D0D4CA1
:1026B000641BA410A64209D1002601F0A9F80A4D16
:1026C0000A4C641BA410A64205D170BDB300EB58A0
:1026D00098470136EEE7B300EB5898470136F2E72A
:1026E0001C3800001C3800001C3800002C3800008A
:1026F00010B5034B0100186800F078F810BDC04613
:102700001400002010B5034B0100186800F024F8F5
:1027100010BDC04614000020002310B59A4200D11D
:1027200010BDCC5CC4540133F8E703008218934217
:1027300000D1704719700133F9E74A4370B51100B1
:10274000150000F053F8041E03D02A000021FFF703
:10275000ECFF200070BDFFFF70B50500002910D010
:102760000C1F2368002B00DAE418280000F088FA18
:102770001D4A1368002B05D163601460280000F027
:1027800087FA70BDA34208D9216860188342F3D14B
:1027900018685B6841182160EEE71A005B68002B3F
:1027A00001D0A342F9D911685018A0420BD120687A
:1027B0000918501811608342E0D118685B6841180D
:1027C00011605360DAE7A04202D90C232B60D5E7F1
:1027D00021686018834203D118685B684118216042
:1027E00063605460CAE7C0460C050020F8B50323B7
:1027F000CD1C9D43083506000C2D1FD20C25A94287
:102800001ED8300000F03CFA25490A681400002C5C
:102810001AD1244F3B68002B04D12100300000F076
:102820004DF838602900300000F048F8431C2BD1E7
:102830000C233000336000F02BFA03E0002DDEDAC9
:102840000C2333600020F8BD23685B1B19D40B2BCD
:1028500003D92360E418256003E06368A2420ED127
:102860000B60300000F014FA200007220B30231D0B
:102870009043C21A9842E6D01B1AA350E3E7536074
:10288000EFE722006468C2E70323C41C9C43A04214
:10289000E1D0211A300000F011F8431CDBD1C7E76A
:1028A0000C0500201005002010B5034B0A000100A4
:1028B000186800F0F5F910BD14000020002370B571
:1028C000064D040008002B60FFF702FE431C03D1F5
:1028D0002B68002B00D0236070BDC046200500206F
:1028E0000CB430B5174B0C001D689DB0002908DAF8
:1028F0008B2301202B6040421DB030BC08BC02B0CD
:10290000184782236A469B00938200230290069018
:10291000994200D04B1E0493079301236A465B4201
:10292000D382280021AB209A02A9019300F040FA3B
:10293000431C01DA8B232B60002CDDD00023029A8C
:102940001370D9E714000020F0B505000024032718
:10295000094E2A5DB35C3B40012B00D120320B5D58
:10296000F05C3840012800D12033D01A9A4202D1BD
:102970000134002BEDD1F0BD7C360000C9B20378E4
:10298000002B04D08B4200D170470130F7E74B4257
:10299000594149420840F7E702780B78002A03D0F2
:1029A000013001319A42F7D0D01A704703000A78FB
:1029B00001311A700133002AF9D170470023C25C3B
:1029C0000133002AFBD1581E704730B50500101E98
:1029D0000BD00024013A2B5D085D834204D1944260
:1029E00002D00134002BF6D1181A30BD030030B5E7
:1029F0001D00002A06D00C78013A01332C700131F9
:102A0000002CF5D100219A18934200D130BD1970E5
:102A10000133F9E70A7830B5002A0CD130BD9A426B
:102A200008D10123CC5C002CF8D0C55CA54201D1B3
:102A30000133F7E701300378002BF0D11800EDE700
:102A4000F8B5124B05001F680E00BC6D002C16D1A6
:102A50005020FFF74DFEB865046044608460C46098
:102A60000461446184618462C46204634463846376
:102A7000C463046444648464C464047744623100BD
:102A80002800BA6D012300F003F8F8BD14000020FF
:102A9000F0B5002802D11068002813D004002000EF
:102AA0000E00057801343778002F04D1002D0FD1A6
:102AB0002800156006E00136BD42F4D1002BEED1AE
:102AC00014600370F0BD2F000FE00133002E04D11D
:102AD000230001341D7827000B001E78B542F4D185
:102AE000002DF0D00023013C23701760EAE7FFFFC0
:102AF000F0B51E003D4B87B00590029208009C4641
:102B000008220191030061461C78451C095D2800DC
:102B10000F0017401142F5D12D2C33D101272C780D
:102B20009D1C002E5DD0102E09D1302C07D1202203
:102B30002B789343582B4FD110266C7802352C4BB1
:102B40003100FB1818000393FFF762FD00230122F8
:102B5000844618000491524221003039092916D8C0
:102B60000C00A6421FDD591C09D01300844506D372
:102B700002D10499A14202DB0123704320182C7872
:102B80000135E9E72B2CCCD12C789D1CC9E721001D
:102B90004139192901D8373CE3E721006139192966
:102BA00001D8573CDDE75A1C08D1059A233313603E
:102BB000029B0398002B09D107B0F0BD002F00D075
:102BC0004042029A002AF7D0002B01D06B1E0193DD
:102BD000029B019A1A60EFE73024002EAFD108362D
:102BE000ADE7302CA3D00A26A9E7C0467C3600000A
:102BF000FFFFFF7F10B513000A00010002480068C4
:102C0000FFF776FF10BDC0461400002030B5140059
:102C100005001A009BB0002C05DA8B23036001200D
:102C200040421BB030BD822368469B008381002355
:102C3000009104919C4200D0631E029305930123EE
:102C400069465B42CB8128001E9B00F0B1F8431C13
:102C500001DA8B232B60002CE3D00023009A137041
:102C6000DFE7FFFF07B5009313000A0001000248E9
:102C70000068FFF7CBFF0EBD1400002070477047BF
:102C800010B50248FFF7FAFF10BDC0461805002036
:102C900010B50248FFF7F3FF10BDC046180500202D
:102CA000F8B507000D001600002905D11100FFF747
:102CB0009DFD04002000F8BD002A03D1FFF74CFD64
:102CC0003400F7E700F014FB2C00B042F2D23100E0
:102CD0003800FFF78BFD041EECD029003200FFF70F
:102CE0001BFD29003800FFF737FDE3E7F0B58E68DC
:102CF00085B007000C00039201939E423CD89023BC
:102D00008A89DB001A4234D00325096923685B1ADB
:102D10000293636902985D43EB0F5D19019B6D108F
:102D200001331B18AB4200D91D00530532D52900D1
:102D30003800FFF75BFD061E09D10C233B604023E2
:102D40000120A28940421343A38105B0F0BD029A3D
:102D50002169FFF7E1FCA389144A1A408023134339
:102D6000A381029B2661F61826606561019EED1A1B
:102D7000A560019B9E4200D9019E32000399206804
:102D800000F0A3FAA36800209B1BA36023689E1990
:102D90002660DAE72A003800FFF782FF061EE0D13E
:102DA00038002169FFF7D8FCC7E7C0467FFBFFFF6B
:102DB000F0B5A1B003901D008B890F0016001B0613
:102DC00011D50B69002B0ED14021FFF70FFD3860A4
:102DD0003861002805D10C23039A0138136021B013
:102DE000F0BD40237B61002308AC63612033637630
:102DF0001033A376079535002B78002B01D0252BB7
:102E000047D1AB1B0593B5420CD032003900039873
:102E1000FFF76CFF431C00D1AEE06269059B94464E
:102E2000634463612B78002B00D1A5E001220023CD
:102E30005242626004A9543252186E1C2360E3604F
:102E4000A3601370A36505223178544800F032FA6C
:102E5000751C00281FD12268D30604D5532304A96A
:102E60005B1820211970130704D5532304A95B189C
:102E70002B21197033782A2B16D0350000210A2017
:102E8000E3682A786E1C303A092A4ED9002911D1FC
:102E900017E00135B0E7414B2268C01A0123834097
:102EA00013432E002360CEE7079B191D1B68079173
:102EB000002B01DB0B9304E05B42E360022313432E
:102EC00023602B782E2B0AD16B782A2B35D1079BC8
:102ED00002351A1D1B680792002B2BDB0993304E1D
:102EE00003223000297800F0E5F9002806D04023BD
:102EF000801B834022680135134323602978062212
:102F000028486E1C217600F0D5F900283CD0264BCD
:102F1000002B25D10722079B0733934308330793E0
:102F20006369049A9B18636165E743433500012197
:102F30009B18A6E701235B42D0E700230A201A0072
:102F40000135636029786E1C3039092903D9002BBB
:102F5000C5D00992C3E74243350001235218F1E777
:102F600007AB00933A002100104B039800E000BF2C
:102F70000490049B0133D3D1BB890D985B0600D428
:102F80002DE7012040422AE707AB00933A002100D9
:102F9000064B039800F07CF8EAE7C046DC370000F7
:102FA000E2370000E637000000000000ED2C0000D2
:102FB000F7B5150001938A680B690C0000909342E5
:102FC00000DA130022002B6043321278002A01D06D
:102FD00001332B6023689B0602D52B6802332B60DC
:102FE0002268062317001F401A4227D023004333CC
:102FF0001B785A1E93412268920630D42200019910
:103000000098089E4332B047431C25D00623206811
:103010002A68E16800250340042B03D18D1AEB4395
:10302000DB171D40A3682269934201DD9B1AED184E
:103030000027BD4220D1002010E00137E3682A6854
:103040009B1ABB42D2DD2200012301990098089E01
:103050001932B047431CF0D101204042FEBD302060
:10306000E1184331087021005A1C45310978A21833
:10307000433202331170C1E7220001230199009805
:10308000089E1A32B047431CE6D00137D1E7FFFF54
:10309000F0B58BB006920A00433207930590049274
:1030A0000A7E0C00109B782A06D8622A08D8002ACB
:1030B00000D1C0E0582A52D026004236327022E0B9
:1030C000100063381528F7D800F01AF916001F0011
:1030D000F6FFF6FFF6FFF6FF1F00F6FFF6FFF6FF1E
:1030E000F6FFA80036009A00F6FFF6FFB900F6FFDB
:1030F0003600F6FFF6FF9E0026001A684236111DC4
:103100001960136833700123A7E0086819680A1D65
:1031100005060BD50D681A60002D03DA2D23049ADD
:103120006D421370614B0A27039332E00D681A60F9
:103130004106F1D52DB2EFE70D681968081D18603A
:103140002E0601D50D6803E06D06FBD50D68ADB206
:10315000564B0A2703936F2A17D1082715E04531EC
:103160000A70524A03921A68216820CA1A60080637
:1031700050D5CB0702D52023194321601027002DFD
:1031800003D1202322689A43226023000022433384
:103190001A706368A360002B03DB0422216891434B
:1031A0002160002D02D1049E002B0CD0049E28002B
:1031B0003900FFF72DFA039B013E5B5C33702B0057
:1031C00005009F42F3D9082F09D12368DB0706D5F4
:1031D00063682269934202DC3023013E3370049B12
:1031E0009B1B2361079B210000930598069B09AA5E
:1031F000FFF7DEFE431C35D1012040420BB0F0BD8D
:10320000202209680A432260220078214532117089
:10321000274AA7E74806ACD5ADB2AAE71A680D68F9
:10322000101D4969186013682E0601D5196002E067
:103230006D06FBD519800023049E2361D2E71A682E
:10324000111D1960166800213000626800F032F824
:10325000002801D0801B6060636823610023049A0A
:103260001370BFE72369320006990598079DA847A8
:10327000431CC1D023689B0715D4099BE068984282
:10328000BCDA1800BAE72200012306990598079EC8
:103290001932B047431CAFD00135E368099A9B1A35
:1032A000AB42F0DCE9E70025F7E7C046ED37000068
:1032B000FE370000C9B28218904201D10020704749
:1032C00003788B42FBD00130F6E710B5884202D973
:1032D0008B18984203D3002307E08B5C8354013A98
:1032E000FBD210BDCC5CC45401339A42FAD1F8E74A
:1032F0000B1F1B68181F002B01DA0B58C0187047F2
:1033000003B47146490840004900095E49008E44F3
:1033100003BC70478C330000E50400006700000028
:103320009433000051060000670000009C33000049
:103330001107000067000000A4330000F50700003B
:103340006100000000000000180000000000000004
:10335000190000000103000000000000050000004B
:10336000000000000800000000000000090000004C
:103370000101010101000000643500008914000012
:1033800061000000004E554C4C00FFFF65786563FE
:10339000000000007365746E756D000064656C6EEE
:1033A000756D00006C6973746E756D00415400FF9B
:1033B00041544530000000002B435245473A20302D
:1033C0002C31000041542B435245473F0000000080
:1033D00041542B434D47463D3100000041542B439F
:1033E0004D4744413D2244454C20414C4C2200FF76
:1033F00041542B434D47533D2225732200000000CA
:103400002B434D47530000001A00FFFF436F6D6DC3
:10341000616E642074696D6564206F7574000000CE
:10342000756172742D3E726561642829207265741D
:1034300075726E6564206E756C6C00FF41542B468E
:1034400053524541443D433A5C25732E7478742CA5
:10345000302C312C3000FFFF41542B465343524552
:103460004154453D433A5C25732E74787400000046
:1034700041542B465357524954453D433A5C2573BA
:103480002E7478742C302C312C3100003E0000005A
:103490000D0A00FF6D616C6C6F63206661696C657D
:1034A000640000002000000055736167653A2073D6
:1034B00065746E756D203C6E756D6265723E203C64
:1034C0006C6576656C3E00FF41542B465344454C79
:1034D0003D433A5C25732E74787400FF5573616721
:1034E000653A2064656C6E756D203C6E756D626525
:1034F000723E00FF41542B46534C533D433A5C000F
:103500002E74787400FFFFFF4C6973743A0A000050
:1035100025733A2025630A0041542B434D47523D01
:10352000256400002B434D47520000000D0A0D0A90
:103530004F4B00002C2200FF52494E470000000074
:10354000415448002B434D544900FFFF0A0B0C0D1A
:103550000E0FFFFF000102030405FFFF11121314F9
:103560001516FFFF696E666F00FFFFFF4E6F646503
:103570003A0A2049443A2025640A204E616D653A92
:103580002025730A20547970653A2025640A204C5E
:10359000617374207365656E3A20256420736563DA
:1035A0002061676F0A00000020536F696C206D6F07
:1035B0006973747572652073656E736F723A0A2051
:1035C000204D6F6973747572653A2025640A000096
:1035D0002054656D7065726174757265202B20686A
:1035E000756D69646974792073656E736F723A0AD8
:1035F000202054656D70657261747572653A20257E
:10360000640A202048756D69646974793A202564DC
:103610000A0000002054656D7065726174757265F2
:103620002073656E736F723A0A202054656D706561
:103630007261747572653A2025640A007365746E50
:10364000616D6500636C65617200FFFF436F6D6DB6
:10365000616E6420717565756564000055736167FE
:10366000653A207365746E616D65203C69643E2027
:103670003C6E6577206E616D653E00002020202045
:103680002020202020282828282820202020202012
:1036900020202020202020202020202088101010F2
:1036A000101010101010101010101010040404044A
:1036B00004040404040410101010101010414141BF
:1036C000414141010101010101010101010101012A
:1036D00001010101010101101010101010424242BD
:1036E00042424202020202020202020202020202FA
:1036F000020202020202021010101020000000005C
:1037000000000000000000000000000000000000B9
:1037100000000000000000000000000000000000A9
:103720000000000000000000000000000000000099
:103730000000000000000000000000000000000089
:103740000000000000000000000000000000000079
:103750000000000000000000000000000000000069
:103760000000000000000000000000000000000059
:103770000000000000000000000000000000000049
:103780000000000000000000000000000000000039
:103790000000000000000000000000000000000029
:1037A0000000000000000000000000000000000019
:1037B0000000000000000000000000000000000009
:1037C00000000000000000000000000000000000F9
:1037D000000000000000000000000000232D302B3E
:1037E0002000686C4C006566674546470030313202
:1037F0003334353637383941424344454600303159
:10380000323334353637383961626364656600FFB8
:10381000F8B5C046F8BC08BC9E467047B50000002D
:1038200009170000B5190000B9200000F8B5C0461E
:10383000F8BC08BC9E46704701B40248844601BCEF
:0C384000604700BF010000208D00000068
:10384C000F210139FDD10138FAD170470000000079
:10385C008433000018000020000000009C3700009A
:10386C00BC3700007C3700000000000000000000A6
:10387C00000000000000000000000000000000003C
:10388C00000000000000000000000000000000002C
:10389C00000000000000000000000000000000001C
:1038AC00000000000000000000000000000000000C
:0838BC00000000000000000004
:040000030000242DA8
:00000001FF
