:10000000001000206D240000692400006924000015
:1000100000000000000000000000000000000000E0
:100020000000000000000000000000006924000043
:10003000000000000000000069240000911D000085
:10004000692400006924000069240000FD170000F5
:1000500069240000692400006924000000000000F9
:1000600069240000B5200000C520000069240000BC
:10007000692400006924000069240000692400004C
:1000800069240000692400006924000010B5064CB2
:100090002378002B07D1054B002B02D0044800E049
:1000A00000BF0123237010BD50020020000000009B
:1000B000D43A0000044B10B5002B03D00349044888
:1000C00000E000BF10BDC046000000005402002048
:1000D000D43A0000802310B5084A9B00C45A815AC4
:1000E000C35A8C4203D3805A181A80B210BD8021A3
:1000F000825A89005818801AF7E7C04602020000A9
:10010000C37910B504007F2B0AD923000068083397
:10011000984203D1E288034B1A4201D102F00CFB52
:10012000200010BDE07F000010B504000069002829
:1001300001D002F001FB200010BDFFFFF7B5160053
:100140008022019300230500806892008352154AA3
:100150008352023283540122524201F0F3FE0D21F8
:10016000A86801F0DFFE01F007FE0700A868FFF7AE
:10017000B1FF041E07D101F0FFFD019BC01B984297
:10018000F4D320000DE0084803F09AFC0120002E73
:1001900007D03100A86801F045FF0130441EA0419E
:1001A000C0B2FEBD02020000A0860100F7B5050046
:1001B0000E00170000240193019B9C420CDA3A00C8
:1001C00031002800089BFFF7B9FF002805D103483C
:1001D00003F076FC0134EFE70020FEBD20A107000C
:1001E000F7B504000D21806801F09CFEFA23194E3A
:1001F000194F3200390020005B00FFF79FFF0028F5
:1002000026D103250122636814499A4023681448C3
:10021000DB015B181A6003F053FC0122636811498B
:100220009A4023680E48DB015B181A6003F048FC13
:10023000FA235B000093EF3B320039002000FF3BC4
:10024000FFF7B4FF002803D1013D002DDAD1FEBD38
:100250000120FCE7DD3500001534000014440041A6
:1002600040420F001844004130B5040091B00B002B
:1002700015004021114A684602F04CFB00226946F5
:1002800020000F4BFFF75AFF002814D0012229004D
:10029000A068524201F056FE0A4B0B4A0B4920005F
:1002A000FFF74CFF80210022A36889005A520849B9
:1002B0005A5202315A5411B030BDC04618340000B1
:1002C000B80B000060EA0000253400002B34000069
:1002D0000202000070B50F4B0E0011000022040056
:1002E000FFF72CFF0C4A002805D0A06801F0C0FEE3
:1002F000051E05D1094A31002000FFF7B5FF70BD8A
:10030000020031002000FFF7AFFF280002F014FACE
:10031000F5E7C046B80B00002D3400003F34000064
:1003200070B5160090B00022154B0D001549040061
:10033000FFF704FF300002F05BFB40210300124A8C
:10034000684602F0E7FA114A694620000C4BFFF7B5
:10035000F5FE0F4A00280CD001223100A06852425D
:1003600001F0F0FD00222000054B0A49FFF7E6FEF0
:10037000094A29002000FFF777FF10B070BDC04682
:10038000B80B00005A34000071340000DC38000063
:100390008E34000094340000DD350000F7B50F4BBB
:1003A0000C261B680500009300230193C3680F000F
:1003B0005E4303691C009E19A64206D02268684667
:1003C000074901F005F90C34F6E739002800009AD6
:1003D000FFF74AFF6846FFF793FEF7BDE8010020EC
:1003E0009734000010B5040090B00B00144A40216F
:1003F000684602F08FFA69462000124B124AFFF756
:100400009DFE002802D1002010B010BDA068FFF7AB
:1004100061FE0228F7D9A06801F0C2FDA06801F0D2
:10042000BFFDA06801F0BCFD80210022A368890007
:100430005A5206495A5202315A54C046E4E7C0465D
:100440009B340000B80B0000DD3500000202000004
:1004500070B504000D0090B00B0016004021124A48
:10046000684602F057FA00226946104B2000FFF759
:1004700065FE2B0040210E4A684602F04BFA6946A1
:1004800020000A4B0B4AFFF759FE002809D0310023
:10049000A06801F047FD00222000044B0649FFF749
:1004A0004DFE10B070BDC046B5340000B80B000062
:1004B000CB340000DC38000094340000F7B50500B0
:1004C0000E00171E2CD0100002F092FA02F02AF94A
:1004D000041E05D131002800164AFFF7C5FEF7BDFE
:1004E000390002F07DFA144F2000390002F0C2FA00
:1004F00039000190002002F0BDFA019B002B10D0C2
:1005000000280ED0027819002800FFF7A1FF310063
:1005100028000A4AFFF7A8FE200002F00DF9DEE7E6
:10052000140031002800064AFFF79EFE002CD6D0AA
:10053000F2E7C046E6340000543A0000DD35000022
:10054000F434000010B5040090B00B006846402160
:10055000054A02F0DFF9002269462000034BFFF74D
:10056000EDFD10B010BDC04613350000B80B000003
:1005700010B5002A03D1044AFFF776FE10BD110022
:10058000FFF7E0FFFAE7C04626350000F7B52A4B33
:100590000D00002229490400FFF7D0FD002802D1F8
:1005A00000273800FEBDA06801F062FD061EF7D0EE
:1005B000234902F05FFA00270400002C38D0200005
:1005C00002F016FA0190042828D904381D49201891
:1005D00002F0FCF9002821D10137002D1ED001982E
:1005E0000121033802F062F80190200002F000FAC5
:1005F0002100021F019802F0A9F82968002913D0F0
:1006000001316868890002F069F9002806D02B687A
:1006100001999A000133686011502B60002008494D
:1006200002F028FA0400C8E7042002F07BF8ECE7A7
:10063000300002F081F8B4E7B80B00003D3500004F
:1006400094340000BA380000F0B50024214B87B084
:100650001B6805000E0002A807210293039400F016
:100660002FFF07221C49029802F070F802ABDA79DA
:1006700080235B42134302AAD371280004A9049487
:100680000594FFF783FF059A049B14009B00D31881
:100690000193019BA3420ED080CC28003900FFF7C4
:1006A000A1FE3A0003000D4902A800F091FF3800B6
:1006B00002F042F8EDE731002800029AFFF7D4FD7E
:1006C0000598002801D002F037F802A8FFF718FDBE
:1006D00007B0F0BDE80100204935000050350000AA
:1006E000F0B587B00400FFF77BFD002803D100259B
:1006F000280007B0F0BD254E002233002449200019
:10070000FFF71CFD19232000224A23490096FFF71A
:100710004DFD051EEBD03300002220492000FFF7DD
:100720000DFD330000221E492000FFF707FD802148
:100730000023A268890053521A495352023153547C
:10074000194A12785206D10F03919A42D0DA20004A
:1007500004A904930593FFF719FF049B9E00059BD2
:100760001D009E19AE4209D080CD200039000F4AED
:10077000FFF77AFD380001F0DFFFF3E70598002866
:1007800001D001F0D9FF039DB2E7C046B80B0000CD
:10079000583500005D3500006835000071350000F7
:1007A0007B35000002020000380400408E35000056
:1007B000F0B585B00291040020210298170002F0E4
:1007C000F7F8051E02D00023013503700C23E26800
:1007D00053432269D31803931300039A1E009A42CD
:1007E00014D01868029902F0C9F8330001900C3354
:1007F0000028F2D139002000FFF7F4FD337A83425C
:1008000006D82A00390020007368984705B0F0BD6B
:1008100020000199FFF7BAFE0028F2D0F6E7FFFFAB
:10082000F0B5070091B00B001F4A4021684602F066
:1008300071F81E4D69462A0038001D4BFFF77EFCFB
:10084000002810D0B86801F013FC041E0BD029005A
:1008500002F0FAF80A21060002F0AAF8051E04D1F7
:10086000200001F069FF11B0F0BD013528001149E9
:1008700002F0EAF80028F3D000230F49037030009B
:1008800002F0E2F8061EEBD002362221300002F020
:100890008FF80028E4D000233200037029003800CC
:1008A000FFF786FFDCE7C046C8350000D3350000FF
:1008B000B80B0000D9350000E035000070B5050028
:1008C0008068FFF707FC002815D0164803F0F8F8F9
:1008D000A86801F0CDFB041E0DD0134902F0B4F856
:1008E000002809D000222800104B1149FFF726FCF0
:1008F000200001F021FF70BD20000E4902F0A4F895
:100900000028F5D00178002905D03039092906D80A
:1009100001F0C6FE01002800FFF782FFE8E7013082
:10092000F0E7C046A0860100E3350000B80B0000E8
:10093000E8350000EC35000073B504000E4E0022CF
:1009400033000E49FFF7FAFB330000220C49200068
:10095000FFF7F4FB192320000A4A0B490096FFF722
:1009600025FC051E05D10200330020000749FFF7D2
:10097000E5FB280076BDC046B80B0000F23500004C
:10098000103600001D360000293600003636000003
:10099000F7B5384B384A39490400FFF7CFFB0090D0
:1009A000002803D1002300930098FEBDA068FFF744
:1009B00091FB0228F6D9A06801F0F2FAA06801F0D4
:1009C000EFFAA06801F054FB051EEBD02C4F390064
:1009D00002F050F839000600002002F04BF82949D7
:1009E0000700002002F046F80190002E03D0002FEF
:1009F00001D0002803D1280001F09EFED2E7012299
:100A0000A0682149524201F09DFA01223100A068FC
:100A1000524201F097FA1D4E164B31000022200081
:100A2000FFF78CFB0122A0681949524201F08AFAB3
:100A300001223900A068524201F084FA0D4B3100C6
:100A400000222000FFF77AFB0122A06811495242E0
:100A500001F078FA01220199A068524201F072FA7D
:100A6000002231002000034BFFF768FB280001F053
:100A700063FE99E7B80B0000DD3500004336000047
:100A8000543A00005F3600006236000096340000E1
:100A90006E3600007836000070B590B004000E008D
:100AA0001500FFF775FF002803D10025280010B0BE
:100AB00070BD2B4B00222B492000FFF73FFB01228A
:100AC0002949A068524201F03DFA00223100244B2E
:100AD0002000FFF733FB00222000214B2349FFF7C2
:100AE0002DFB2000FFF728FF0028DED000221C4B42
:100AF0001F492000FFF722FB20001E4B1E4A1F4902
:100B0000FFF71CFB1E4E002806D1002231002000FA
:100B1000134BFFF713FBC8E7280001F069FF4021E2
:100B20000300184A684601F0F5FE0D4B00226946A5
:100B30002000FFF703FB01222900A068524201F0C8
:100B400001FA20000B4B104A1049FFF7F7FA051E77
:100B5000DBD0002231002000014BFFF7EFFAA5E7C0
:100B6000B80B00008236000092360000A13600006B
:100B7000B5360000F8240100C136000096340000AC
:100B800036360000CF360000DE360000EB360000BF
:100B900037B50025204B04001B6801950093FFF733
:100BA000F7FEA8422AD02A001C4B1D492000FFF75F
:100BB000C5FA2A00194B1B492000FFF7BFFA2A008B
:100BC0002000164B1849FFF7B9FA2000FFF7B4FED2
:100BD000A84213D02A00114B14492000FFF7AEFAA7
:100BE000134B144A14492000FFF7A8FA13490200D6
:100BF0000A4BA84207D12000FFF7A0FA6846FFF78A
:100C00007FFA00203EBD2A002000FFF797FA72B657
:100C1000200002F04DFFC046E8010020B80B0000A4
:100C2000F2350000F93600000937000022370000D5
:100C3000F82401003D3700009634000036360000ED
:100C400070B504000D00FFF7A3FF002804D12900B0
:100C50002000024AFFF708FB70BDC0464D37000078
:100C600070B50D0001680400002911D00C2301317A
:100C70005943406801F032FE002808D00C22236856
:100C800060605A430133801846CD46C0236070BD72
:100C90000C2001F047FDEFE7F0B587B0050068468E
:100CA0000091426001002A0050C950C2AB6000238D
:100CB0000121EB602B6142680224914003682748C0
:100CC000DB011B189A189960403210782E00A0435F
:100CD00003AC107022009961214B0C3683CB83C288
:100CE0001F0021003000FFF7BBFF3A00230083CA3A
:100CF00083C321003000FFF7B3FF2200184B1833E5
:100D000083CB83C221003000FFF7AAFF2200144BDF
:100D1000243383CB83C221003000FFF7A1FF2200E0
:100D20000F4B303383CB83C221003000FFF798FF95
:100D300022000B4B3C3383CB83C221003000FFF7F2
:100D40008FFF2200064B483383CB83C23000210043
:100D5000FFF786FF280007B0F0BDC0460044004101
:100D6000483300000122036910B59A40C368DB01D3
:100D7000002906D005495B189A61406A02F0A0FE7E
:100D800010BD02495B185A61F7E7C04600440041B4
:100D90004368C26810B58468934202D10269A242D6
:100DA00007D00122DB01A240002903D003495B18D0
:100DB0009A6110BD01495B185A61FAE7004400418D
:100DC00010B50021FFF7CEFF10BD10B50121FFF7D0
:100DD000C9FF10BD70B504000D00FFF7F1FF1F2122
:100DE0002068294000F0F0FEFF21206800F0ECFEB2
:100DF00005002000FFF7E9FF280070BDF8B50F00DF
:100E000014001E000500FFF7DBFF1F210F4001311A
:100E10003943286800F0D8FE0700A619B44205D06F
:100E20002178286800F0D0FE0134F7E72800FFF7AA
:100E3000CCFF3800F8BD70B5160004000D00FFF7B8
:100E4000BFFF1F210D4001312943206800F0BCFE87
:100E500005003100206800F0B7FE2000FFF7B5FF65
:100E6000280070BDF7B500911D00C37D04001F1C54
:100E7000934200D9171C0026227EFFB2B24201D154
:100E8000DE1BF6B22000FFF79BFF2900206800F070
:100E90009BFE009D0190EF19BD4205D02978206886
:100EA00000F092FE0135F7E7013EF6B2FF2E04D0C6
:100EB0000021206800F088FEF6E72000FFF785FF9C
:100EC0000198FEBDF7B5C37D04000D001F1C9342C1
:100ED00000D9171C0026227EFFB2B24201D1DE1BD0
:100EE000F6B22000FFF76CFF6121206800F06CFE75
:100EF000EF190190BD4206D0FF21206800F064FE8A
:100F000028700135F6E7013EF6B2FF2E04D0FF212E
:100F1000206800F059FEF6E72000FFF756FF019821
:100F2000FEBD70B504000D00FFF74AFF29002068E0
:100F300000F04AFE05002000FFF747FF280070BDC3
:100F400010B5E221FFF7EDFF10BD10B5E121FFF76D
:100F5000E8FF10BD10B5FF21FFF7E3FF10BD82B021
:100F600037B507936C46030000910999626002C38C
:100F700022CC22C3030007AA0C3312CA12C30523D2
:100F80008377436280239B01C382002303833EBC9B
:100F900008BC02B018470A0010B57C2900D97D2290
:100FA0000521FFF748FF10BD0B1C202900D9202385
:100FB000C375704770B504000021FFF7E9FE206A91
:100FC00002F07EFD1D212000FFF704FF830705D5F9
:100FD000206A02F075FD2000FFF7B7FF0021200016
:100FE000FFF7F8FE0125A843C2B200212000FFF759
:100FF00022FF02212000FFF7EDFE0543EAB20221A5
:101000002000FFF718FF70BD002110B50400FFF7A6
:10101000E1FE022201001140104207D10243D2B288
:101020002000FFF708FF024802F04AFD10BDC0464D
:101030008813000070B50400180004AB1D78B023BD
:10104000002800D1103B2000FFF70CFF002D03D03B
:1010500001212000FFF79CFE70BDF7B504000120C0
:1010600000902000FFF7E6FF00F086FE3027060024
:101070002000FFF76FFF384208D100F07DFE801B93
:101080005F28F5D90123E3770020FEBD0021200071
:10109000FFF77EFE702207212000FFF7CCFE030041
:1010A0000120DB06F1D52000FFF74FFFECE710B57C
:1010B0000023FFF7D2FF10BD70B50C00172106000A
:1010C000FFF788FE01230025184208D11D00002CDF
:1010D00005D03000FFF73EFF0007400F20702800CA
:1010E00070BD10B50021FFF7E7FF10BD10B504007B
:1010F000FFF7E8FE702207212000FFF79CFE10BDDD
:1011000013B50400009201930A216A46837FFFF71A
:1011100075FE6A46A37F10212000FFF76FFE1121A4
:101120002000E27DFFF787FE13BDFFFF37B5040007
:101130000D0000920193002908D1827F6946193081
:1011400001F004FB114AA37F515D06E006291CD87B
:101150000E4B595C0123012DF4D06A462000FFF7A5
:101160004DFE0B4BE27D595D2000FFF764FE02212E
:101170002000FFF72FFE0122064B02215B5D9A4003
:101180000243D2B22000FFF756FE37BD5B370000A6
:10119000673700006137000070B50D0002210400C0
:1011A000FFF718FE054B02215A5D01239340984337
:1011B000C2B22000FFF73FFE70BDC046613700009D
:1011C00070B50400FFF720FF00212000FFF702FEAA
:1011D00001252843C2B200212000FFF72CFE702217
:1011E00007212000FFF727FE29002000FFF7D0FD90
:1011F000617E002910D022000A212000A37F19322D
:10120000FFF7FCFD1D212000FFF7E4FD830702D559
:101210002000FFF79AFE70BD2000FFF7BDFFF1E749
:1012200010B50400FFF7CCFD5021206800F0CCFC85
:101230007321206800F0C8FC2000FFF7C6FD10BD38
:101240000A0010B5002900D03F220121FFF7F3FD6D
:1012500010BD70B50C0006210500FFF7BBFD07218E
:101260008843C2B2032C02D864000134E1B22800E2
:101270000A430621FFF7DFFD70BD70B50E000621A1
:101280000500D724FFF7A6FD0440022E12D120232B
:101290001C43A333FF3322002B6228000621FFF7F3
:1012A000CAFD28000621FFF795FD001B444260415E
:1012B000C0B270BDFA23012EEDD108231C43B63312
:1012C000E9E7FFFF70B504004068E368A268984250
:1012D00002D1236993420BD001219140394DC301C2
:1012E0005B19022599609B1840331978A94319703E
:1012F000E3682169834201D18A420BD001228A40EE
:101300003048DB011B189A605B18022140331A78C1
:101310008A431A7000212000FFF73AFD01212000C6
:10132000FFF720FD284802F0CBFB0C220021200013
:10133000FFF781FD04215F222000FFF77CFD0221E1
:101340002000FFF79AFF002801D00123A375062192
:101350002000FFF73FFD0025002106002000FFF7D9
:101360008CFF2000FFF75CFF00221D212000FFF70B
:1013700062FD00221C212000FFF75DFD7022257612
:1013800007212000FFF757FD4C212000FFF703FE47
:101390002000FFF7D5FD2000FFF7D7FD2000FFF765
:1013A00033FE29002000FFF715FDFE222900024030
:1013B0002000FFF740FDFD23013EF6B2B3426D4130
:1013C000E8B270BD00440041881300000F2310B53F
:1013D00009011A400A43D2B20421FFF72CFD10BDC7
:1013E00010B50400406B002801D001F0A5F9E06AB7
:1013F000002801D001F0A0F9200010BD10B51300A5
:101400000A000100014800F0A9FF10BD8002002081
:1014100010B5064C606B002804D0236B002B01D064
:1014200001F08AF900236363236310BD800200206A
:1014300003000200196808320020914205D1D888C3
:10144000024B1840431E9841C0B27047E07F000035
:10145000F8B543680500DB020F00DB0A8B4225DA92
:10146000C4886404A40DA14221DA06000836621E75
:101470003000296801F0D4FA00223319013B1A70B8
:10148000EB797F2B07D92800FFF7D2FF002802D184
:10149000286801F051F98023E4021B06E40A6A6817
:1014A0001C43064B2E6013401C436C60F8BD0800C3
:1014B00001F038F93C000600D9E7C0460000E07FA3
:1014C000436870B5DB0204000D00DB0A8B421BDAB7
:1014D000C3797F2B06D9FFF7ABFF002802D1206824
:1014E00001F02AF9E3885B049A0D95420DDA230096
:1014F0000833236063685B0D5B05134363608023DF
:10150000E2795B421343E37170BD280001F00AF9F0
:101510006368ED02590DED0A49050D4320606560D1
:10152000EDE7F8B543684F1CDB0204000D00160020
:10153000DB0A9F4202DB0231FFF78AFF00222368A9
:1015400001205E552368DA55F8BDF7B51700C2795A
:1015500005000E0001937F2A1DD9026850186A68A1
:10156000D102C90A891B3A0001F096FB6B68311859
:10157000DB020400DB0A99420BDB28000131FFF794
:1015800067FF2868611C3A00019B801901F084FB09
:1015900004002000FEBD00200100E4E770B5040057
:1015A00000680D0001F024FA2A0001002000FFF776
:1015B000B8FF70BD70B5040000680D00160001F0A2
:1015C00017FA330001002A002000FFF7BEFF70BDAC
:1015D0000EB403B503AA02CA0192FFF7EBFF02B0F3
:1015E00008BC03B01847FFFFF0B52D4B89B01B684E
:1015F00005000693002306A80E0007210793FFF7B6
:101600005FFF07222749069801F0A0F804ABDA7BB8
:1016100080235B42134304AAD3732422FA27224B6C
:10162000BF005C6B1B6B5343E3180593059BA34200
:101630002CD00023E3560393637A049300F09CFBC1
:10164000236A3900C01A00F077FF049B01900093D1
:10165000039A631C154906A8FFF7BAFF637A022BA9
:1016600009D0032B0FD0012B0BD16289104906A89A
:10167000FFF7AEFF05E0A38962890E4906A8FFF7D0
:10168000A7FF2434D2E762890B49F0E73100069ABC
:101690002800FEF7E9FD06A8FEF732FD09B0F0BD0F
:1016A000E801002049350000800200207237000068
:1016B000AC370000D3370000153800000F4B104A3C
:1016C0009A60104A5A605A78D209FCD10E4A5A8060
:1016D0005A78D209FCD10D4B0D4919800D490A6089
:1016E00001320A71D9790A430821DA710A4A116074
:1016F000022219880A431A807047C046000C004035
:10170000012000000103010004410000001400401A
:10171000080A00001814004000E100E0F8B52E4C63
:101720002E4D220028002E4B2E49FEF707FD0028E3
:101730000CD0A86800F09CFC061E07D0210001F028
:1017400083F9051E03D1300000F0F6FFF8BD083024
:1017500000F0A6FF244C820623693F2798018009E8
:101760001043206128000B3000F09AFF0F222369FC
:1017700010401E4A800513400343280023610E30A9
:1017800000F08EFF1F2223691040194A40041340C5
:10179000034328002361113000F082FF1F222369D8
:1017A0001040144A000313400343280023611430FF
:1017B00000F076FF2369104A38408001134003434C
:1017C00028002361173000F06BFF23693840BB43CA
:1017D00003432361B7E7C0463D3800006C02002098
:1017E000B80B00004538000000140040FFFF3FFC2C
:1017F000FFFFC1FFFF0FFEFF3FF0FFFF0122034B82
:101800001A72034A136801331360704700140040D2
:10181000E4010020F0B5664C95B00CAD2B00220021
:1018200043CA43C303CA03C329006248624A00F0A3
:10183000BDFA23002A00143343CB43C243CB43C237
:1018400003CB03C214236A4605930FAB43CB43C2B9
:1018500003CB03C210266A68AB680C99574800F0A6
:1018600029F90221564F574ABE601378564D8B43D3
:10187000137028007E6100F063FC0697002805D1F4
:10188000069B5248DE6102F01BF9F9E7504F380021
:10189000FEF726FF002808D1280000F049FD069B2E
:1018A0004C48DE6102F00CF9F6E709AD2B00343448
:1018B00007CC07C33C0061270C3429002000FFF748
:1018C000CFF9454B29000993444B20006B602F72E0
:1018D000FFF7C6F9424B29000993424B20006B6089
:1018E0002F72FFF7BDF9FFF7E9FEFFF717FF079625
:1018F0003748FEF7E3FF344C200000F019FD069B4B
:10190000079ADA61384B1A68092AF1DD00261E6051
:10191000FFF704FF256BB542EAD0344B646B1B68BC
:101920000A96099324235D436519A54237D0677A47
:101930002F4E326933693169306936690597671C02
:10194000049700278902E757C0033605C90EC00E69
:101950009B01B60E1B0F01900091920E2549039733
:10196000029609A8FFF734FE637A032B03D0042BF9
:101970000CD0012B04D162891F4909A8FFF728FE6A
:101980000A2109A8FFF70AFE2434CEE7A17BA38928
:10199000628909A800911949FFF71AFEF0E7099A30
:1019A00017490B48FFF778F809A8FEF7A9FB9FE74E
:1019B0009C330000D40400202BF60000B802002065
:1019C00000440041444400418002002000350C00E6
:1019D0006C020020400D03004E380000FD13000093
:1019E0005638000011140000E4010020E801002036
:1019F000001400405C3800008F3800009938000067
:101A0000B638000070B50024114E92B02100114B81
:101A100002223000FFF740F90F4D30002A000F4935
:101A200000F082FD0E4B210001930F230E22009344
:101A300008A82300FFF793FA0A4C08A9200000F039
:101A40006FFB2A002000084900F06EFD12B070BD47
:101A50006C020020D4040020AC0100202901000009
:101A6000B802002080020020E1130000030030B51E
:101A700005CB0F25D30F9B180C4C5B10C0011B1816
:101A800029401B19D4070CD51C780901254029438E
:101A90001970074B1218D218012311780B431370D9
:101AA00030BD1C78AC432143F2E7C04630440041CE
:101AB0004044004184B0F8B50400079100683B49F8
:101AC00009930FAB07AD1E886A60394B394A8842CB
:101AD00061D10821106A01431162374A5A805A784D
:101AE000D209FCD1297E28004B1E99410231FFF713
:101AF000BDFF697E09A84B1E99410231FFF7B6FF71
:101B0000A97E0BA84B1E99410231FFF7AFFF0221BE
:101B1000226813688B4313600123226811680B430A
:101B2000136023681A68D207FCD41C211A680320AA
:101B30008A4311000C220A431A6022682B7F116825
:101B40001E4F03401B043940194311602168EA7E8F
:101B50000B6802401A481205034013430B602368C8
:101B6000DA695207FCD48022596892020A435A600B
:101B70002368DA695207FCD4F6B21E730223226886
:101B800011680B4313602268D3699B07FCD4F8BC2F
:101B900008BC04B018470421106A01431162094AC5
:101BA0005A805A78D209FCD19CE7C046000C00420A
:101BB000000C0040000400400F400000FFFFFCFF4D
:101BC000FFFFCFFF0E40000002680300FF20002A45
:101BD00009D0107EC007FCD591621B681A7E52079F
:101BE000FCD5986AC0B27047034B044A1A60044B94
:101BF000044A1A607047C046B8020020000800423C
:101C0000BC020020000C0042C02230B5454B9200BF
:101C1000196A45480A431E211A6242688A43110024
:101C200002220A43426008224049886902438A61CD
:101C300001213F4A1078014311701178C90702D57C
:101C40005178C909F9D18020196A8143196239494B
:101C50009160394951605178C909FCD18621C90187
:101C600051805178C909FCD18020998C8143998495
:101C7000D968C906FCD5C020D96A0001090C09043D
:101C800001438020D962D96AC004890189090143CE
:101C9000D962D96A29480840802149020143D962A2
:101CA000D968C906FCD58121988C890001439984A3
:101CB000D968C906FCD58021986801439960402104
:101CC0009868014399601021986801439960022146
:101CD000988C01439984D968C906FCD5996809068E
:101CE00002D499684906F9D59968C906FCD500233C
:101CF00093605378DB09FCD1114B53605178C909CB
:101D0000FCD1002500240F4B0F4A1C605D600F4B77
:101D100019605A609A6007221A6080220C4B1206E2
:101D20001A6030BD0008004000400041000400403F
:101D3000000C00400340000003060100FFFF00FC10
:101D400000070300C0020020FFFFFF0010E000E0DA
:101D500000E100E0002130B5044B054D9C68054BC7
:101D6000281B1A685B688018594130BD10E000E0FC
:101D7000FFFFFF00C002002010B5FFF7EBFF0023BC
:101D8000024A00F065FCC80810BDC04634EC0A00E9
:101D900030B580240025044964040A684B68121990
:101DA0006B410A604B6030BDC00200208223F0B559
:101DB0009B0085B001923D4EC2583D4B04000D0082
:101DC000186A3C49B24266D1082202431A623A4B71
:101DD0004B80A97C28004B1E99410231FFF746FE3B
:101DE000E97C28004B1E994108300231FFF73EFE86
:101DF000822302209B00E1580A6882430A60012284
:101E0000E158086802430A60E2581368DB07FCD413
:101E10001C21042013688B43034313608223802218
:101E20009B00E158D2050F683A4303270A60E25845
:101E3000297C1268394002920A04039202991F4ACF
:101E400011400A0003990A43E1580A60E2586D7C88
:101E500011683D401A4F2D050F402F431760E2587F
:101E600001999181C021E25889025160E258917D27
:101E700008439075E258134B9A4211D18021124BBE
:101E800089001960022311680B43136001220F4B74
:101E9000E25405B0F0BD042202431A620C4B97E7EE
:101EA000B242EFD18021084BC900EAE7000C0042A2
:101EB00000040040000C00400F400000FFFFFCFF4A
:101EC000FFFFCFFF0008004200E100E00502000034
:101ED0000E400000114B10B5C35C002B1BD08122BB
:101EE00082239200815C9B00C358002914D1802179
:101EF00089001C8D435AE4B29BB2C454435A013347
:101F0000DB05DB0D4352064BC35A415A5B1A59425B
:101F10004B41DBB2835410BD1B8DFCE70502000072
:101F200002020000064BC35C002B08D082239B00FA
:101F3000C25889B21185C258137EDB07FCD57047A1
:101F40000502000070B50B4B0500C35C0C001600C9
:101F5000002B0DD0731C08D12378002B08D02178DA
:101F60002800FFF7DFFF0134F4E73300013EF4E718
:101F700070BDC0460502000081239B000200C35CC7
:101F80000020834208D1802304499B00D35A505A31
:101F9000181A43425841C0B27047C04602020000BE
:101FA00010B50C4B0400C35C181E11D02000FFF7C5
:101FB000E3FF031EFAD1084AA15A89B2605C81216D
:101FC00089006354A35AC0B20133DB05DB0DA35271
:101FD00010BDC046050200000202000070B50F4BA4
:101FE0000400C35C0D00002B01D1002070BDFFF781
:101FF000C3FF0028F9D12000FEF76CF8A842F4DDF9
:10200000074B6A1C04D1E35A9BB2E05CC0B2EDE717
:10201000E15A4919C905C90D605CF7E705020000DE
:1020200002020000F7B5114B0091C35C0400002BC5
:1020300019D04E42009B20009F19FEF74BF8B84282
:1020400011DD009D2B782000A9190193FFF7C6FF31
:10205000019B834205D16B780135002BF2D138000A
:10206000FEBD0136E6E701277F42F8E705020000E2
:10207000F7B50F4B0500C35C002B02D100242000F4
:10208000FEBDFEF727F8071EF8D0013000F04AFB2E
:10209000041EF3D00600C31901932800FFF780FF48
:1020A000019B307001369E42F7D10023E355E6E7ED
:1020B0000502000010B50248FFF70CFF10BDC04636
:1020C000C802002010B50248FFF704FF10BDC0464B
:1020D000D4040020F0B582218026812400230A4AFE
:1020E0000A4D0B480B4FB600A400890093531354BC
:1020F000535357501355084A93531354535313557E
:10210000064B5350F0BDC046C8020020020200003A
:102110000502000000080042D4040020000C004228
:10212000030030B534C934C334C934C334C934C3EB
:102130000A681A6000238362C3620363436330BD8D
:1021400070B50400FFF7BEF8051E21D078212000ED
:10215000FEF721FF01212000FFF772F80F22052171
:102160002000FFF733F920212000FEF71DFF032197
:102170002000FFF76EF800212000FFF77EF8200016
:1021800000230121034AFEF7D1FF2000FFF718F8D2
:10219000280070BDFF040000242270B50500036B09
:1021A0008AB05A43436B9A181C0093420FD0002602
:1021B0000020A657085624338642F5D1202220005D
:1021C00000F0C4FAFFF7D8FD20620AB070BD01AC80
:1021D0002022200000F0BAFAFFF7CEFD296B06009E
:1021E000002918D0242301315943686B00F076FB95
:1021F0000028EAD024222B6B68635A430996821880
:102200000BCC0BC211000DCC0DC10DCC0DC12B6B35
:1022100001332B63D9E7242000F084FAE8E7F7B50F
:102220000D00002180226956D200CB170A4304001A
:10223000FEF766FF0023EB56002B6BD101332B70AA
:10224000226B23335343626B08271600D318009385
:102250006B1C0193009BB34209D03A000199701C9A
:1022600000F0CDFB0023F35600284BD12B70290042
:102270002000FFF791FF2000FEF79CFEFF236B720A
:10228000FE3B202229002000AB72FEF710FF200049
:10229000FEF796FF0026A36A9E4248D2E36A7701C2
:1022A000DA190092DA570023EB569A4228D120001F
:1022B000FEF780FE202220000099FEF7F8FE00289D
:1022C0001BD0A26A002A17D0E36AD819984213D308
:1022D00052019B1898420FD201007F11203AD21B65
:1022E000203100F033FAA36A5F1EA762002F16D1D7
:1022F000E06A00F021FAE762013E2000FEF760FF8D
:102300000136C8E70022AA569A4201DC01332B703D
:1023100024369FE729002000FFF73EFFBAE7E06A76
:10232000790100F0DBFA0028E6D0E062E4E7F7BDCF
:1023300010B588B00400FEF7D4FE00280BD0202290
:1023400069462000FEF7D2FE20006946FFF767FFCE
:102350002000FEF7F5FD08B010BDFFFFF0B58BB013
:10236000040017001E1E009163D0180000F040FB0F
:1023700000F0D8F9051E06D13900374A0098FDF75C
:1023800073FF0BB0F0BD310000F02AFB3349280089
:1023900000F070FB31490600002000F06BFB01905B
:1023A000002E47D0002845D0300000F079F90028F1
:1023B00040D0300000F074F902AB46B21E70FF232B
:1023C00002AA5372FD3B937202AB01990822581C7A
:1023D00000F026FBA16A002927D00131E06A4901FB
:1023E00000F07CFA00280AD0A36AE0625B01C01802
:1023F000202202A900F0AAF9A36A0133A3622421D2
:10240000626B236B14004B43D3180193019B9C42D6
:102410001BD00023E356B34205D102AB0822601C57
:10242000591C00F0FDFA2434F0E7202000F07AF97E
:10243000D8E71D0039000A4A0098FDF715FF002D66
:102440009FD0280000F078F99BE73900054A0098F2
:10245000FDF70AFFF5E7C046E6340000543A0000F5
:10246000BF380000DE380000FEE7FFFF1C4A1D4BAE
:1024700010B51D499A422ED100211C4B1C4A934293
:102480002CD37F221B4B302093431B4A93600222A4
:102490001A4B5A621A4B997B814308002021014351
:1024A0000C209973997B8143080008210143032084
:1024B0009973997B81430A439A738023114A516827
:1024C0000B435360FFF7A0FB00F008F9FFF7A2F9F8
:1024D000FEE701CA01C38B42FBD3CDE702C3CEE7BF
:1024E000D43A0000000000205002002050020020DA
:1024F000FC0600200000000000ED00E0FC70004140
:102500000048004100400041054A030011680029CD
:1025100001D1044911601068C31813607047C046A8
:10252000E0060020FC060020030010B5080019009A
:1025300000F0C6F810BDFFFF002243088B4274D3A1
:1025400003098B425FD3030A8B4244D3030B8B42B4
:1025500028D3030C8B420DD3FF22090212BA030CBD
:102560008B4202D31212090265D0030B8B4219D39E
:1025700000E0090AC30B8B4201D3CB03C01A5241BE
:10258000830B8B4201D38B03C01A5241430B8B4206
:1025900001D34B03C01A5241030B8B4201D30B03EF
:1025A000C01A5241C30A8B4201D3CB02C01A524116
:1025B000830A8B4201D38B02C01A5241430A8B42D9
:1025C00001D34B02C01A5241030A8B4201D30B02C2
:1025D000C01A5241CDD2C3098B4201D3CB01C01ADC
:1025E000524183098B4201D38B01C01A52414309E6
:1025F0008B4201D34B01C01A524103098B4201D3D4
:102600000B01C01A5241C3088B4201D3CB00C01A40
:10261000524183088B4201D38B00C01A52414308B8
:102620008B4201D34B00C01A5241411A00D20146DD
:10263000524110467047FFE701B5002000F006F850
:1026400002BDC0460029F7D076E770477047C04604
:10265000F0B515042D0C0F0001002E00C64684466F
:102660000004140C000C090C46434D4360436143C5
:102670004019340C241800B5A54203D9802040022B
:1026800080464144250C6D18614659437A43300415
:1026900049192404000C2018891804BC9046F0BD88
:1026A00010B50A22002100F0BFFA10BD10B5034B8F
:1026B0000A000100186800F05AF810BDEC01002073
:1026C00010B5040004481300002804D00A000220BA
:1026D000210000E000BF10BD0000000070B5002622
:1026E0000C4D0D4C641BA410A64209D1002601F02C
:1026F000C9F90A4D0A4C641BA410A64205D170BD4D
:10270000B300EB5898470136EEE7B300EB58984713
:102710000136F2E7903A0000903A0000903A00004B
:10272000A03A000010B5034B0100186800F078F8DB
:1027300010BDC046EC01002010B5034B0100186825
:1027400000F024F810BDC046EC010020002310B5B5
:102750009A4200D110BDCC5CC4540133F8E70300A9
:102760008218934200D1704719700133F9E74A4348
:1027700070B51100150000F053F8041E03D02A00B4
:102780000021FFF7ECFF200070BDFFFF70B50500D2
:10279000002910D00C1F2368002B00DAE418280051
:1027A00000F088FA1D4A1368002B05D1636014609D
:1027B000280000F087FA70BDA34208D9216860188C
:1027C0008342F3D118685B6841182160EEE71A0074
:1027D0005B68002B01D0A342F9D911685018A042C0
:1027E0000BD120680918501811608342E0D1186895
:1027F0005B68411811605360DAE7A04202D90C23EC
:102800002B60D5E721686018834203D118685B68A4
:102810004118216063605460CAE7C046E4060020A6
:10282000F8B50323CD1C9D43083506000C2D1FD29F
:102830000C25A9421ED8300000F03CFA25490A6850
:102840001400002C1AD1244F3B68002B04D1210026
:10285000300000F04DF838602900300000F048F8F2
:10286000431C2BD10C233000336000F02BFA03E023
:10287000002DDEDA0C2333600020F8BD23685B1BDB
:1028800019D40B2B03D92360E418256003E0636897
:10289000A2420ED10B60300000F014FA2000072293
:1028A0000B30231D9043C21A9842E6D01B1AA35046
:1028B000E3E75360EFE722006468C2E70323C41C28
:1028C0009C43A042E1D0211A300000F011F8431CD3
:1028D000DBD1C7E7E4060020E806002010B5034B73
:1028E0000A000100186800F0F5F910BDEC010020A5
:1028F000002370B5064D040008002B60FFF704FEAE
:10290000431C03D12B68002B00D0236070BDC04650
:10291000F80600200CB430B5174B0C001D689DB0B4
:10292000002908DA8B2301202B6040421DB030BC07
:1029300008BC02B0184782236A469B00938200239A
:1029400002900690994200D04B1E049307930123F6
:102950006A465B42D382280021AB209A02A90193E8
:1029600000F040FA431C01DA8B232B60002CDDD0F1
:102970000023029A1370D9E7EC010020F0B505009E
:1029800000240327094E2A5DB35C3B40012B00D194
:1029900020320B5DF05C3840012800D12033D01A82
:1029A0009A4202D10134002BEDD1F0BDEE38000087
:1029B000C9B20378002B04D08B4200D1704701309C
:1029C000F7E74B42594149420840F7E702780B7854
:1029D000002A03D0013001319A42F7D0D01A704753
:1029E00003000A7801311A700133002AF9D17047C7
:1029F0000023C25C0133002AFBD1581E704730B55A
:102A00000500101E0BD00024013A2B5D085D8342A7
:102A100004D1944202D00134002BF6D1181A30BDF3
:102A2000030030B51D00002A06D00C78013A0133AE
:102A30002C700131002CF5D100219A18934200D15D
:102A400030BD19700133F9E70A7830B5002A0CD18E
:102A500030BD9A4208D10123CC5C002CF8D0C55C73
:102A6000A54201D10133F7E701300378002BF0D103
:102A70001800EDE7F8B5124B05001F680E00BC6D9D
:102A8000002C16D15020FFF74DFEB865046044605D
:102A90008460C4600461446184618462C4620463CC
:102AA00044638463C463046444648464C4640477D6
:102AB000446231002800BA6D012300F003F8F8BD2C
:102AC000EC010020F0B5002802D11068002813D0D6
:102AD000040020000E00057801343778002F04D15F
:102AE000002D0FD12800156006E00136BD42F4D15B
:102AF000002BEED114600370F0BD2F000FE0013306
:102B0000002E04D1230001341D7827000B001E780D
:102B1000B542F4D1002DF0D00023013C23701760A2
:102B2000EAE7FFFFF0B51E003D4B87B0059002922B
:102B300008009C4608220191030061461C78451C50
:102B4000095D28000F0017401142F5D12D2C33D11B
:102B500001272C789D1C002E5DD0102E09D1302C21
:102B600007D120222B789343582B4FD110266C7815
:102B700002352C4B3100FB1818000393FFF762FD60
:102B8000002301228446180004915242210030396A
:102B9000092916D80C00A6421FDD591C09D01300C4
:102BA000844506D302D10499A14202DB012370437C
:102BB00020182C780135E9E72B2CCCD12C789D1CE2
:102BC000C9E721004139192901D8373CE3E7210041
:102BD0006139192901D8573CDDE75A1C08D1059AFB
:102BE00023331360029B0398002B09D107B0F0BD7B
:102BF000002F00D04042029A002AF7D0002B01D0CB
:102C00006B1E0193029B019A1A60EFE73024002E9D
:102C1000AFD10836ADE7302CA3D00A26A9E7C046CD
:102C2000EE380000FFFFFF7F10B513000A0001001F
:102C300002480068FFF776FF10BDC046EC01002097
:102C400030B5140005001A009BB0002C05DA8B2368
:102C50000360012040421BB030BD822368469B00C8
:102C600083810023009104919C4200D0631E029353
:102C70000593012369465B42CB8128001E9B00F02F
:102C8000B1F8431C01DA8B232B60002CE3D0002326
:102C9000009A1370DFE7FFFF07B5009313000A00E7
:102CA000010002480068FFF7CBFF0EBDEC010020D9
:102CB0007047704710B50248FFF7FAFF10BDC046D5
:102CC000F006002010B50248FFF7F3FF10BDC04624
:102CD000F0060020F8B507000D001600002905D108
:102CE0001100FFF79DFD04002000F8BD002A03D16C
:102CF000FFF74CFD3400F7E700F014FB2C00B04266
:102D0000F2D231003800FFF78BFD041EECD0290011
:102D10003200FFF71BFD29003800FFF737FDE3E71E
:102D2000F0B58E6885B007000C00039201939E42B7
:102D30003CD890238A89DB001A4234D003250969E4
:102D400023685B1A0293636902985D43EB0F5D1978
:102D5000019B6D1001331B18AB4200D91D005305B8
:102D600032D529003800FFF75BFD061E09D10C2380
:102D70003B6040230120A28940421343A38105B058
:102D8000F0BD029A2169FFF7E1FCA389144A1A40B9
:102D900080231343A381029B2661F6182660656198
:102DA000019EED1AA560019B9E4200D9019E320052
:102DB0000399206800F0A3FAA36800209B1BA3607E
:102DC00023689E192660DAE72A003800FFF782FFA1
:102DD000061EE0D138002169FFF7D8FCC7E7C046DE
:102DE0007FFBFFFFF0B5A1B003901D008B890F00A2
:102DF00016001B0611D50B69002B0ED14021FFF7E1
:102E00000FFD38603861002805D10C23039A013882
:102E1000136021B0F0BD40237B61002308AC6361E7
:102E2000203363761033A376079535002B78002B7B
:102E300001D0252B47D1AB1B0593B5420CD03200F6
:102E400039000398FFF76CFF431C00D1AEE06269C4
:102E5000059B9446634463612B78002B00D1A5E069
:102E6000012200235242626004A9543252186E1C9F
:102E70002360E360A3601370A36505223178544892
:102E800000F032FA751C00281FD12268D30604D541
:102E9000532304A95B1820211970130704D5532369
:102EA00004A95B182B21197033782A2B16D0350012
:102EB00000210A20E3682A786E1C303A092A4ED98C
:102EC000002911D117E00135B0E7414B2268C01A43
:102ED0000123834013432E002360CEE7079B191D77
:102EE0001B680791002B01DB0B9304E05B42E3605E
:102EF0000223134323602B782E2B0AD16B782A2BC5
:102F000035D1079B02351A1D1B680792002B2BDB5E
:102F10000993304E03223000297800F0E5F90028AB
:102F200006D04023801B8340226801351343236071
:102F30002978062228486E1C217600F0D5F9002851
:102F40003CD0264B002B25D10722079B0733934308
:102F5000083307936369049A9B18636165E74343E9
:102F6000350001219B18A6E701235B42D0E700232F
:102F70000A201A000135636029786E1C303909294E
:102F800003D9002BC5D00992C3E742433500012382
:102F90005218F1E707AB00933A002100104B039859
:102FA00000E000BF0490049B0133D3D1BB890D988E
:102FB0005B0600D42DE7012040422AE707AB0093CF
:102FC0003A002100064B039800F07CF8EAE7C0467F
:102FD000503A0000563A00005A3A00000000000043
:102FE000212D0000F7B5150001938A680B690C00CC
:102FF0000090934200DA130022002B6043321278D3
:10300000002A01D001332B6023689B0602D52B6870
:1030100002332B602268062317001F401A4227D074
:10302000230043331B785A1E93412268920630D402
:10303000220001990098089E4332B047431C25D0D6
:10304000062320682A68E16800250340042B03D189
:103050008D1AEB43DB171D40A3682269934201DD03
:103060009B1AED180027BD4220D1002010E0013747
:10307000E3682A689B1ABB42D2DD22000123019932
:103080000098089E1932B047431CF0D101204042FD
:10309000FEBD3020E1184331087021005A1C453133
:1030A0000978A218433202331170C1E722000123CC
:1030B00001990098089E1A32B047431CE6D00137A8
:1030C000D1E7FFFFF0B58BB006920A0043320793B9
:1030D000059004920A7E0C00109B782A06D8622A7A
:1030E00008D8002A00D1C0E0582A52D02600423623
:1030F000327022E0100063381528F7D800F01AF972
:1031000016001F00F6FFF6FFF6FFF6FF1F00F6FFA2
:10311000F6FFF6FFF6FFA80036009A00F6FFF6FF6E
:10312000B900F6FF3600F6FFF6FF9E0026001A688B
:103130004236111D1960136833700123A7E0086837
:1031400019680A1D05060BD50D681A60002D03DAF3
:103150002D23049A6D421370614B0A27039332E0CA
:103160000D681A604106F1D52DB2EFE70D681968B8
:10317000081D18602E0601D50D6803E06D06FBD50D
:103180000D68ADB2564B0A2703936F2A17D1082753
:1031900015E045310A70524A03921A68216820CA24
:1031A0001A60080650D5CB0702D5202319432160A9
:1031B0001027002D03D1202322689A432260230088
:1031C000002243331A706368A360002B03DB0422E0
:1031D000216891432160002D02D1049E002B0CD068
:1031E000049E28003900FFF72DFA039B013E5B5C2B
:1031F00033702B0005009F42F3D9082F09D12368B3
:10320000DB0706D563682269934202DC3023013E66
:103210003370049B9B1B2361079B2100009305983F
:10322000069B09AAFFF7DEFE431C35D10120404270
:103230000BB0F0BD202209680A43226022007821E9
:1032400045321170274AA7E74806ACD5ADB2AAE7C8
:103250001A680D68101D4969186013682E0601D59B
:10326000196002E06D06FBD519800023049E2361DE
:10327000D2E71A68111D19601668002130006268D3
:1032800000F032F8002801D0801B60606368236181
:103290000023049A1370BFE723693200069905984A
:1032A000079DA847431CC1D023689B0715D4099BE1
:1032B000E0689842BCDA1800BAE7220001230699B8
:1032C0000598079E1932B047431CAFD00135E3681B
:1032D000099A9B1AAB42F0DCE9E70025F7E7C04604
:1032E000613A0000723A0000C9B28218904201D1DE
:1032F0000020704703788B42FBD00130F6E710B511
:10330000884202D98B18984203D3002307E08B5CD4
:103310008354013AFBD210BDCC5CC45401339A42B1
:10332000FAD1F8E70B1F1B68181F002B01DA0B58A6
:10333000C018704703B47146490840004900095E4F
:1033400049008E4403BC7047E2330000D502000000
:1033500067000000E7330000BD04000067000000C4
:10336000EE3300007105000067000000F533000037
:103370004906000061000000FD330000410C000020
:1033800067000000043400009D030000610000009D
:10339000093400002103000061000000000000006B
:1033A00018000000000000001900000001030000E8
:1033B0000000000005000000000000000800000000
:1033C00000000000090000000101010101000000EF
:1033D0006D370000E915000061000000004E554CFB
:1033E0004C0065786563007365746E756D00646587
:1033F0006C6E756D006C6973746E756D00757064BC
:103400006174650068656C700073657466747063E0
:10341000726564730041540041542B434D47533D42
:1034200022257322002B434D4753001A00436F6D32
:103430006D616E642074696D6564206F75740075CC
:103440006172742D3E7265616428292072657475FD
:10345000726E6564206E756C6C0041542B4653434C
:1034600052454154453D433A5C6674702E64617424
:103470000041542B465357524954453D433A5C66EC
:1034800074702E6461742C302C25642C31004572CC
:10349000726F72000D0A0025730A0041542B4653C7
:1034A000524541443D433A5C25732E7478742C3068
:1034B0002C312C300041542B465343524541544546
:1034C0003D433A5C25732E7478740041542B465367
:1034D00057524954453D433A5C25732E7478742CF9
:1034E000302C312C31006D616C6C6F63206661692A
:1034F0006C65640055736167653A207365746E7519
:103500006D203C6E756D6265723E203C6C65766523
:103510006C3E0041542B465344454C3D433A5C2598
:10352000732E7478740055736167653A2064656C16
:103530006E756D203C6E756D6265723E0041542B58
:1035400046534C533D433A5C004C6973743A0A004D
:1035500025733A2025630A0041544530002B43521D
:1035600045473A20302C310041542B435245473FC8
:103570000041542B434D47463D310041542B434DB0
:103580004744413D2244454C20414C4C220055705B
:1035900064617465207375636365737366756C2C01
:1035A0002076657273696F6E20312E3020627569E6
:1035B0006C74204D6179203131203230323020312D
:1035C000393A32373A34310041542B434D47523D5A
:1035D0002564002B434D4752000D0A0D0A4F4B0046
:1035E0002C220052494E4700415448002B434D5471
:1035F000490041542B53415042523D332C312C222F
:1036000041504E222C22696E7465726E65742200E0
:1036100041542B53415042523D312C31002B5341E8
:103620005042523A20312C310041542B53415042E8
:10363000523D322C310041542B53415042523D30C7
:103640002C310041542B4653524541443D433A5C92
:103650006674702E6461742C302C36342C3000204B
:103660000D0041542B465450534552563D00415491
:103670002B465450554E3D0041542B465450505704
:103680003D0041542B465450505554504154483DF0
:103690002F0041542B4654505055544E414D453DFA
:1036A0000041542B4654505055544F50543D2241E4
:1036B000505045220041542B4654505055543D31F2
:1036C000002B4654505055543A20312C312C004197
:1036D000542B4654505055543D322C2564002B46F3
:1036E00054505055543A20312C300041542B4654FC
:1036F000505055543D322C300041542B46545047C5
:103700004554504154483D2F0041542B4654504796
:1037100045544E414D453D7570646174652E626936
:103720006E0041542B465450474554544F46533D28
:10373000302C7570646174652E62696E002B46547E
:1037400050474554544F46533A20302C005570642E
:10375000617465206661696C6564000A0B0C0D0E6E
:103760000F000102030405111213141516696E6689
:103770006F004E6F64653A0A2049443A2025640A76
:10378000204E616D653A2025730A20547970653AA0
:103790002025640A204C617374207365656E3A209D
:1037A0002564207365632061676F0A0020536F6989
:1037B0006C206D6F6973747572652073656E736FBD
:1037C000723A0A20204D6F6973747572653A20252C
:1037D000640A002054656D706572617475726520AD
:1037E0002B2068756D69646974792073656E736FD9
:1037F000723A0A202054656D706572617475726545
:103800003A2025640A202048756D69646974793A04
:103810002025640A002054656D70657261747572AC
:10382000652073656E736F723A0A202054656D705F
:10383000657261747572653A2025640A002B4343F2
:103840004C4B3A200041542B43434C4B3F00736593
:10385000746E616D6500636C656172002530326461
:103860002F253032642F2530326420253032643ADF
:1038700025303264202D204944202564206E616D5E
:103880006520252E3873207479706520256400200A
:1038900076616C75652025640020766F6C746167B5
:1038A00065202564206C6967687420256420726136
:1038B000696E20256400646174612E74787400550B
:1038C000736167653A207365746E616D65203C694C
:1038D000643E203C6E6577206E616D653E00436FEF
:1038E0006D6D616E642071756575656400002020E2
:1038F00020202020202020282828282820202020A0
:10390000202020202020202020202020202088105F
:1039100010101010101010101010101010100404BF
:1039200004040404040404041010101010101041C6
:103930004141414141010101010101010101010137
:1039400001010101010101010110101010101042CC
:103950004242424242020202020202020202020207
:1039600002020202020202020210101010200000E5
:103970000000000000000000000000000000000047
:103980000000000000000000000000000000000037
:103990000000000000000000000000000000000027
:1039A0000000000000000000000000000000000017
:1039B0000000000000000000000000000000000007
:1039C00000000000000000000000000000000000F7
:1039D00000000000000000000000000000000000E7
:1039E0000000000000000000000000000000FFFFD9
:1039F00000000000000000000000000000000000C7
:103A000000000000000000000000000000000000B6
:103A100000000000000000000000000000000000A6
:103A20000000000000000000000000000000000096
:103A30000000000000000000000000000000000086
:103A40000000000000000000000000000000000076
:103A5000232D302B2000686C4C0065666745464777
:103A600000303132333435363738394142434445FA
:103A70004600303132333435363738396162636469
:103A8000656600FFF8B5C046F8BC08BC9E467047A6
:103A9000B5000000051A0000E91B0000D520000059
:103AA000F8B5C046F8BC08BC9E467047FFFFFFFF54
:103AB00001B40248844601BC604700BF9900002061
:103AC00001B40248844601BC604700BFA101002048
:043AD0008D00000065
:103AD400822382689B00D25811858268D258137E53
:103AE400DB07FCD5704770B505000C002178002970
:103AF40004D028000134FFF7EBFFF7E770BDF8B5F9
:103B040007000C0005230F4E32881D00013BDBB279
:103B1400A2420CD8013DEDB2FF2D12D030213388E2
:103B2400A34209D8E41A0131A4B2C9B2F8E70236B3
:103B3400012BE9D11D00EDE73800FFF7C9FF02367C
:103B4400E8E7F8BDB0010020822382689B00D158C9
:103B5400044A0B7E5B07D80F002B02DB013A002AD4
:103B6400F7D1704741420F008021F0B53B4B8227CB
:103B74005A6804008A435A60002287B001920132D5
:103B8400FF3203920493BF00019B049A9D016B08CA
:103B9400D361334B049A1380002620003149FFF788
:103BA400A2FF2000A9B2FFF7AAFF0D212000FFF712
:103BB4008FFF2000FFF7C8FFA3682000DB591B8D8F
:103BC400FFF7C2FF3000A368DB591B8DEB1E059382
:103BD400002805D12000FFF7B7FF01235840C0B2E9
:103BE4000322FF233240D1008B409446029A9A4329
:103BF4000292002806D1A368DB591B8DDBB28B40EF
:103C04001A4302926346032B02D1059B029A9A51EE
:103C14000136402EDCD1002818D12000FFF794FF94
:103C2400002803D0A368DB591B8DF6E7039B4035BE
:103C3400AB42B1D1039B0133FF330393019B0433A4
:103C440001938023019A5B009A429DD1BFF34F8F69
:103C5400054B064ADA60BFF34F8FFEE70040004190
:103C640002A5FFFFBA01002000ED00E00400FA0500
:103C74000F210139FDD10138FAD17047000000004D
:103C84001027E80364000A00010041542B465352F4
:103C94004541443D433A5C557365725C4654505CFF
:103CA4007570646174652E62696E2C312C36342C07
:103CB40000FFFFFF0A000000DC330000F0010020D9
:103CC40000000000103A0000303A0000F039000013
:103CD40000000000000000000000000000000000E0
:103CE40000000000000000000000000000000000D0
:103CF40000000000000000000000000000000000C0
:103D040000000000000000000000000000000000AF
:103D1400000000000000000000000000000000009F
:040000030000246D68
:00000001FF
