:1000000000100020C1020000BD020000BD0200007F
:1000100000000000000000000000000000000000E0
:10002000000000000000000000000000BD02000011
:100030000000000000000000BD02000041020000BE
:10004000BD020000BD020000BD020000BD020000B4
:10005000BD020000BD020000BD0200000000000063
:10006000BD02000095020000A9020000BD020000D0
:10007000BD020000BD020000BD020000BD02000084
:10008000BD020000BD020000BD02000010B5064C1C
:100090002378002B07D1054B002B02D0044800E049
:1000A00000BF0123237010BD1000002000000000DD
:1000B0000C000020044B10B5002B03D0034904486A
:1000C00000E000BF10BDC04600000000140000208A
:1000D0000C00002070B51025044C00F00BF8A56151
:1000E0000348E56100F06CF9FAE7C04600440041BE
:1000F00090D00300C022464B9200196A45480A433B
:100100001E211A6242688A43110002220A43426099
:1001100008224149886902438A6101213F4A1078D7
:10012000014311701178C90702D55178C909F9D175
:100130008020196A814319623949916039495160B7
:100140005178C909FCD18621C90151805178C9096A
:10015000FCD18020998C81439984D968C906FCD54B
:10016000C020D96A0001090C090401438020D9622A
:10017000D96AC004890189090143D962D96A2A4828
:100180000840802149020143D962D968C906FCD5DB
:100190008121988C890001439984D968C906FCD5CE
:1001A00080219868014399604021986801439960D3
:1001B00010219868014399600221988C0143998429
:1001C000D968C906FCD59968090602D49968490618
:1001D000F9D59968C906FCD5002393605378DB09EB
:1001E000FCD1124B53605178C909FCD1104B00204F
:1001F000196000210F4A5A609A600F4A10605160DE
:1002000007221A6080220D4B12061A607047C04602
:10021000000800400040004100040040000C004085
:100220000340000003060100FFFF00FC000703007D
:1002300010E000E0FFFFFF003000002000E100E0E0
:1002400030B580240025044964040A684B681219FB
:100250006B410A604B6030BD300000208221890074
:10026000425C30B50368002A10D1812292001D8DB6
:10027000835AC4180133DB05DB0D25718352044A10
:10028000825AD31A5A425341435430BD1B8DFCE766
:1002900006020000034B10B51868002801D0FFF7D4
:1002A000DDFF10BD38000020034B10B51868002892
:1002B00001D0FFF7D3FF10BD3C000020FEE7FFFF99
:1002C0001B4A1C4B10B51C499A422CD100211B4BD8
:1002D0001B4A93422AD37F221A4B302093431A4A57
:1002E00093600222194B5A62194B997B8143080093
:1002F000202101430C209973997B81430800082138
:10030000014303209973997B81430A439A738023A5
:10031000104A51680B43536000F01EF8FFF7DAFEF5
:10032000FEE701CA01C38B42FBD3CFE702C3D0E78C
:10033000D4030000000000200C000020100000206A
:10034000400000200000000000ED00E0FC700041D3
:10035000004800410040004170B500260C4D0D4C96
:10036000641BA410A64209D1002600F019F80A4D1A
:100370000A4C641BA410A64205D170BDB300EB5813
:1003800098470136EEE7B300EB5898470136F2E79D
:10039000AC030000AC030000AC030000B00300009D
:1003A000F8B5C046F8BC08BC9E467047B5000000D2
:1003B000F8B5C046F8BC08BC9E467047FFFFFFFF7B
:1003C00001B40248844601BC604700BF0100002020
:0403D0008D0000009C
:0C03D4000F210139FDD10138FAD170472A
:04000003000002C136
:00000001FF
