:10000000001000201D1C00001B1C00001B1C000019
:1000100000000000000000000000000000000000E0
:100020000000000000000000000000001B1C000099
:1000300000000000000000001B1C0000A9140000CC
:100040001B1C00001B1C00001B1C00001B1C0000D4
:100050001B1C00001B1C00001B1C000000000000FB
:100060001B1C0000C1190000D11900001B1C00005E
:100070001B1C00001B1C00001B1C00001B1C0000A4
:100080001B1C00001B1C00001B1C000010B5064CB4
:100090002378002B07D1054B002B02D0044800E049
:1000A00000BF0123237010BD780000200000000075
:1000B000042E0000044B10B5002B03D00349044864
:1000C00000E000BF10BDC046000000007C00002022
:1000D000042E000010B50378002B07D0303B092B0D
:1000E00001D90130F7E701F0B9FE00E0002010BDB2
:1000F000F0B587B004006846009142602600020017
:1001000022CA22C635000022A260E2602361416853
:100110000132100088402368DB011A4FBC4663445B
:1001200098605B1840331978022081431970636826
:100130009A402368DB0163449A6103AA124B83CB84
:1001400083C23168002918D0706801314B005918FA
:10015000890001F089FF00280CD068602A685300EC
:100160009B189B00C0180C2203A901F0C3FE2B684A
:1001700001332B60200007B0F0BD0C2001F0A6FE7B
:10018000E9E7C04600440041E029000010B5040042
:10019000C068002801D001F0A3FE200010BDFFFFC1
:1001A000F8B5040017001E000369002281208000BA
:1001B0001A5225481A520020822292009854012295
:1001C0005242206901F0D4FA0D21206901F0C2FAEF
:1001D00001F05EF9050012E081229200995A1A4A54
:1001E0009B5AC91A89B280239B009C46614489B2FC
:1001F000002916D101F04CF9401BB0421FD22369EF
:1002000081229200995A89B20F4A9A5A92B2914227
:10021000E2D381229200995A0B4A9B5AC91A89B299
:10022000E6E70A4802F0E4FD002F0AD02069390011
:1002300001F032FB0130431E9841C0B200E00020C3
:10024000F8BD0120FCE7C04606020000A0860100C0
:10025000F8B5CE46474680B580460F0016001D0013
:10026000089B99460024AC420CDA4B463200390018
:100270004046FFF795FF002805D1054802F0B8FD7C
:100280000134F0E700200CBC90469946F8BDC0460A
:1002900020A10700F0B5C64600B582B004000D21CC
:1002A000006901F057FAFA235B001C4A1C49200040
:1002B000FFF776FF071E2BD10026022E28DC012532
:1002C0002A0063689A402368DB0116498C46634420
:1002D0005A61154B9846180002F08AFD63689D40EC
:1002E0002368DB010F4A944663449D61404602F057
:1002F0007FFDFA235B000093EF3BFF3B074A084971
:100300002000FFF7A5FF002801D10136D5E707003F
:10031000380002B004BC9046F0BDC046D82A0000A8
:100320007C2A00000044004140420F0070B582B0BA
:100330000500FFF7AFFF041E02D1200002B070BD20
:10034000144C2300002214492800FFF729FF0094D1
:100350001923124A12492800FFF77AFF041EECD035
:100360000C4E330000220F492800FFF719FF33001D
:1003700000220D492800FFF713FF2B69002281217D
:1003800089005A5209495A520021822292009954F6
:10039000D3E7C046B80B0000802A0000882A00007E
:1003A000942A0000A02A0000AC2A000006020000E7
:1003B000F0B5C64600B582B006000F0001922021BC
:1003C000380001F0BBFE8046002804D000230370F3
:1003D00001339C46E044F468B3685D00ED18AD005D
:1003E0006519AC420CD03900206801F08DFE002860
:1003F00001D00C34F5E76368424601993000984714
:1004000002B004BC9046F0BDF0B591B004000B0002
:10041000264A4021684601F043FE254B254A69469D
:100420002000FFF7BDFE002801D111B0F0BD20690A
:1004300001F07EFA071EF8D01E4901F0A8FE050063
:100440000A2101F07BFE002820D0461C1A4930000A
:1004500001F09DFE00281DD00023037017492800DD
:1004600001F095FE002819D0851C2221280001F0FA
:1004700065FE002816D0002303702A0031002000FA
:10048000FFF796FF380001F02BFDCEE7380001F0B2
:1004900027FDCAE7380001F023FDC6E7380001F068
:1004A0001FFDC2E7380001F01BFDBEE7C02A0000B7
:1004B000B80B0000CC2A0000D42A0000DC2A00007F
:1004C00070B50400026981239B00D15A89B2204B88
:1004D000D35A9BB2994209D381239B00D35A1C491A
:1004E000525A9B1A9BB2002B0DD170BD81239B00E9
:1004F000D35A1749525A9B1A9BB2802292009446B3
:1005000063449BB2EFE7134802F072FC206901F0EC
:100510000FFA051EE9D0104901F039FE002809D074
:100520000E4B00220E492000FFF73AFE280001F092
:10053000D7FCDAE70B49280001F029FE0028F5D0A6
:10054000FFF7C8FD01002000FFF75EFFEEE7C046A1
:1005500006020000A0860100E02A0000B80B00009F
:10056000E82A0000EC2A000030B591B004000B002E
:100570001500134A4021684601F092FD114B0022FC
:1005800069462000FFF70CFE002801D111B030BDF4
:10059000012252422900206901F0EAF80A4B0B4A75
:1005A0000B492000FFF7FCFD23690022812189000F
:1005B0005A5208495A520021822292009954E5E782
:1005C000F42A0000B80B000060EA0000042B0000D1
:1005D0000C2B00000602000070B504000D00110095
:1005E0000F4B0022FFF7DCFD002805D10D4A290042
:1005F0002000FFF7B9FF70BD206901F099F9061ED0
:1006000008D0020029002000FFF7AEFF300001F003
:1006100067FCF0E7044A29002000FFF7A5FFEAE79E
:10062000B80B0000102B0000242B000010B5C3688D
:10063000046900290AD00122A240DB0107498C4647
:1006400063449A61406A02F0D3FB10BD0122A240CC
:10065000DB0102498C4663445A61F3E700440041E0
:1006600070B584B004000D00694603000C330A0025
:1006700041CB41C2082202A801F03CFC6368029A07
:1006800093420BD0A168002D0DD001228A40DB01DE
:1006900009498C4663449A6104B070BDA26803990D
:1006A0008A42EFD1F8E701228A40DB0102498C46F9
:1006B00063445A61F0E7C0460044004170B504004D
:1006C0000D000021FFF7B2FF1F212940206800F034
:1006D000F5FDFF21206800F0F1FD0500012120005B
:1006E000FFF7A4FF280070BDF8B5CE46474680B599
:1006F00007000C0016001D000021FFF797FF1F21C7
:10070000214020231943C9B2386800F0D7FD814643
:100710006C1EE4B2002D08D0731C984631783868FE
:1007200000F0CCFD25004646F2E701213800FFF736
:100730007DFF48460CBC90469946F8BD70B5040054
:100740000D0016000021FFF771FF1F212940202313
:100750001943C9B2206800F0B1FD050031002068DE
:1007600000F0ACFD01212000FFF760FF280070BD04
:10077000F8B5CE46474680B507000C001600C57D8B
:10078000954200D22E003B7E002B18D1AD1BEDB25E
:1007900000213800FFF74AFF6121386800F08EFD24
:1007A0008046731EDBB29946002E0AD0661CFF21DC
:1007B000386800F083FD207034004E46F1E70025D4
:1007C000E6E76C1EE4B2002D05D0FF21386800F08A
:1007D00075FD2500F5E701213800FFF727FF4046AA
:1007E0000CBC90469946F8BD70B504000D00002180
:1007F000FFF71CFF2900206800F060FD05000121C3
:100800002000FFF713FF280070BD10B5E221FFF7AD
:10081000EBFF10BD10B5E121FFF7E6FF10BD10B5ED
:10082000FF21FFF7E1FF10BD82B030B583B06C4609
:100830000091626007AA07930300099902C322CCC2
:1008400022C303000C3312CA12C300238375202273
:10085000C27503761B3A82774262437603B030BC9E
:1008600008BC02B0184710B50A007C2900D97D22C7
:100870000521FFF763FF10BD0B1C202900D92023A1
:10088000C375704710B504000021FFF717FF8307F9
:1008900000D510BD02220243D2B200212000FFF792
:1008A0004DFF024802F0A4FAF3E7C04688130000A7
:1008B00070B504000D001721FFF700FFC30701D535
:1008C000002070BD002D06D02000FFF7A8FF4310C8
:1008D0000720184028700120F3E710B50021FFF72A
:1008E000E7FF10BD10B50400FFF742FF702207219B
:1008F0002000FFF723FF10BD10B582B00400009266
:100900000193837F6A460A21FFF7EEFEA37F6A46C2
:1009100010212000FFF7E8FEE27D11212000FFF703
:100920000DFF02B010BDFFFF30B583B005000C0015
:1009300000920193002921D0062C1DD8012C23D927
:10094000154B195D01236A462800FFF7CDFEEA7DAD
:10095000124B195D2800FFF7F1FE02212800FFF776
:10096000ADFE42B20E4B1B5D012098400243D2B255
:1009700002212800FFF7E2FE03B030BD827F694606
:10098000193001F0B7FAD7E7AB7F034A115D6A4629
:100990002800FFF7A9FEDAE7402B0000502B0000EB
:1009A000482B000070B504000D000221FFF786FE01
:1009B00042B2054B595D01238B409A43D2B20221CA
:1009C0002000FFF7BBFE70BD482B000010B50400EF
:1009D000FFF758FF00212000FFF770FE01220243BD
:1009E000D2B200212000FFF7A9FE702207212000CB
:1009F000FFF7A4FE01212000FFF732FE637E002BEB
:100A00000DD0A37F220019320A212000FFF76CFECF
:100A10001D212000FFF752FE830705D410BD0021E1
:100A20002000FFF7BFFFF3E72000FFF7F3FEF5E735
:100A300010B504000021FFF7F9FD5021206800F0F7
:100A40003DFC7321206800F039FC01212000FFF7F4
:100A5000EDFD10BD10B504001D21FFF72FFE06228D
:100A60000243D2B21D212000FFF768FE1C212000A6
:100A7000FFF724FE03220243D2B21C212000FFF71D
:100A80005DFE0123237610BD10B5002904D03F225E
:100A90000121FFF753FE10BD00220121FFF74EFE9A
:100AA000F9E770B505000C000621FFF707FE0723E4
:100AB0009843C0B2032C09D86400E2B20132D2B22A
:100AC000024306212800FFF739FE70BD0722F7E731
:100AD00070B506000D000621FFF7F0FD28239843AE
:100AE000C4B2D2333362022D0ED0012D12D02200B7
:100AF00006213000FFF722FE06213000FFF7DEFD61
:100B0000A0420DD0002070BD20200443E4B2C833C1
:100B10003362ECE708200443E4B2BE233362E6E725
:100B20000120F0E710B509010F2313400B43DAB29F
:100B30000421FFF703FE10BD70B584B004006946C0
:100B400003000C330A0021CB21C2082202A801F0C5
:100B5000D1F96368029A9A4200D185E0A168012226
:100B60008A40DB014648844663449A605B18403300
:100B70001A7802218A431A70694623000C330A004E
:100B800021CB21C2082202A801F0B4F96368029ABD
:100B9000934200D16EE0216901228A40E368DB01C3
:100BA0003748844663449A605B1840331A780221C0
:100BB0008A431A7000212000FFF752FD0121200016
:100BC000FFF734FD2F4802F013F90C22002120001A
:100BD000FFF7B4FD0F2205212000FFF7A3FF02213C
:100BE0002000FFF775FF002801D00123A37506211F
:100BF0002000FFF763FD060000212000FFF768FFDB
:100C00002000FFF715FF00221D212000FFF796FDB1
:100C100000221C212000FFF791FD0025257670227F
:100C200007212000FFF78AFD4C212000FFF71BFE63
:100C30002000FFF7EAFD2000FFF7ECFD2000FFF7A2
:100C400021FE00212000FFF739FD01239843C2B2A5
:100C500000212000FFF772FD013EF6B2FD23B342F2
:100C60006D41E8B204B070BDA26803998A4200D019
:100C700074E781E7A368039A934200D08BE799E772
:100C8000004400418813000010B50400C06A002829
:100C900001D001F025F9200010BDFFFF70B592B022
:100CA000012801D012B070BD124B9942FAD1002434
:100CB000114E124B210002223000FFF719FA104D9D
:100CC0002A001049300001F00DF80F4B01930F235B
:100CD0000093230021000E2202A8FFF7A5FD0B4C74
:100CE00002A9200000F084FE2A000949200000F03B
:100CF000F9FFD7E7FFFF000094000020F402002076
:100D00000C0000208D010000D8000020A800002069
:100D1000890C0000F8B504000E004368DB02DB0A12
:100D20008B4220DAC5886D04AD0D8D421CDD0700B5
:100D300008376E1E32002168380001F014FABE191F
:100D4000002333700723E356002B13DB2760ED02EB
:100D5000ED0A63685B0D5B051D4365601B0E802219
:100D600052421343E371F8BD080001F0AFF80700E9
:100D70003500DEE7206823000833984202D001F0F6
:100D8000AFF8E3E7E288024B1A42DFD1F7E7C0464B
:100D9000E07F0000F0B583B005000E00170001935E
:100DA00007228256002A10DB0020002A10DB0021D7
:100DB0003A0001F0BDFA040031186B68DB02DB0A6F
:100DC00099420ADA200003B0F0BD01688819ECE707
:100DD0006A68D102C90A891BEAE701312800FFF7D6
:100DE00099FF2868611C8019019B3A0001F0A0FA64
:100DF0000400E7E770B504000D001600006801F07C
:100E0000ABF9010033002A002000FFF7C3FF70BDDB
:100E10000EB400B582B003AA02CA0192FFF7EAFF3E
:100E200002B008BC03B01847F0B5D6464F46464658
:100E3000C0B584B08146884602AA324B1B68029333
:100E4000039B5B0D590503915B012F490B40D38038
:100E50000023D3712D4BDC6A9B6ADE00F618B600C6
:100E6000A61906E06289A389294902A8FFF7D0FFE5
:100E70002434B44228D00027E757651C637A9A4689
:100E800000F006FB236AC01AFA21890000F032FF45
:100E90000190534600932B003A001E4902A8FFF729
:100EA000B7FF637A022BDDD0032B07D0012BDFD1F4
:100EB0006289194902A8FFF7ABFFD9E76289174990
:100EC00002A8FFF7A5FFD3E7029A41464846FFF77D
:100ED0004BFB02ABDB795BB2002B05DB04B01CBC27
:100EE00090469946A246F0BD029804AB984202D0C3
:100EF00000F0F6FFF2E702ABDA88094B1A42EDD1B7
:100F0000F6E7C046100000201F80FFFFA800002069
:100F1000C42B0000602B00009C2B0000082C00005C
:100F2000E07F000070B596B00EA9384C0B0022008F
:100F300061CA61C321CA21C3354A364800F0EEFABE
:100F400006A8143402002ACC2AC22ACC2AC20ACC0F
:100F50000AC21423059309AB6A4632CB32C212CBC4
:100F600012C20699079A089B2B4800F069F82B4B90
:100F700010229A6044215A5C022082435A54284825
:100F800000F0C2FD002806D1244B1022DA6125486A
:100F900001F02EFFF8E72448FFF7C8F9002809D12F
:100FA0001F4800F027FE1D4B1022DA611F4801F098
:100FB0001FFFF5E713AA154B343313CB13C21A4B9B
:100FC0009B68002B1ED0184AD06801330C2159436E
:100FD00001F04AF800280BD0134CE0600C22A36803
:100FE0005343C01813A900F085FFA3680133A36021
:100FF0000D48FFF765FA0A4800F0FCFD074B102288
:10100000DA61F5E70C2000F061FFE3E7EC2900006E
:101010002BF60000F4020020D8000020004400411C
:10102000A800002000350C0094000020400D0300B3
:1010300010B502490120FFF731FE10BDFFFF00008F
:1010400084B0F0B5C64600B50791089209930FAB7E
:101050001B889846834B02689A4200D1C1E0824ABD
:10106000136A042423431362804B814A5A807F4BC6
:101070005B78DB09FBD107AB1B7E002B00D1BDE009
:101080000325079A089CE30700D4B9E0E30F1B1976
:101090005F100F263540D30176498C466344DB1937
:1010A00030331F782D013E402E431E70D301714A0C
:1010B000944663441B1940331A78012422431A7062
:1010C00007AB5B7E002B00D1A9E00325099A0A9C9F
:1010D000E30700D4A5E0E30F1B195F100F2635408E
:1010E000D30164498C466344DB1930331F782D01EA
:1010F0003E402E431E70D3015E4A944663441B1942
:1011000040331A78012422431A7007AB9B7E002BD0
:1011100000D195E003250B9A0C9CE30700D491E0E5
:10112000E30F1B195F100F263540D30151498C4640
:101130006344DB1930331F782D013E402E431E706F
:10114000D3014C4A944663441B1940331A78012456
:1011500022431A70026813680224A34313600268D2
:101160001368013C2343136003681A68D207FBD459
:101170001A681C24A243103C22431A60066807AD7B
:101180002C7F03231C40326824043B4F3A40224307
:1011900032600468ED7E22682B401B05374D2A40E3
:1011A000134323600368DA695207FBD45C6880222A
:1011B000920222435A600368DA695207FBD442461E
:1011C000D1B219730268136802210B4313600368DC
:1011D000DB699B07FBD404BC9046F0BC08BC04B0A0
:1011E0001847214A136A0824234313621F4B244AD9
:1011F0005A801E4B5B78DB09FBD13CE7022540E7B8
:10120000E30F1B195E10D3011A498C4663449B19E6
:1012100030331E780F27BE4335431D7046E7022545
:1012200054E7E30F1B195E10D30112498C46634447
:101230009B1930331E780F27BE4335431D705AE784
:10124000022568E7E30F1B195E10D30109498C469C
:1012500063449B1930331E780F27BE4335431D70FE
:101260006EE7C046000C004200040040000C004045
:101270000E40000000440041FFFFFCFFFFFFCFFFD6
:101280000F4000000160704710B5012800D010BD6C
:10129000054B9942FBD105490548FFF7F3FF054986
:1012A0000548FFF7EFFFF2E7FFFF000000080042EC
:1012B000D8000020000C0042DC0000200268002A58
:1012C0000AD0137EDB07FCD5916203681A7E5207B1
:1012D000FBD5986AC0B27047FF20FCE710B5024901
:1012E0000120FFF7D1FF10BDFFFF0000484A116A3F
:1012F000C0239B000B43136246494A681E239A434E
:101300001C3B13434B60444A916908230B43936190
:10131000424A137801210B431370404B1B78DB07C3
:1013200003D53E4B5B78DB09F7D1394B196A802234
:1013300091431962394B3A4A9A603A4A5A60374B9C
:101340005B78DB09FBD1354B8622D2015A80334BC7
:101350005B78DB09FBD12E4A938C80218B439384ED
:101360002B4BDB68DB06FBD5294BDA6A120C120427
:10137000C02109011143D962DA6A920192098021E0
:10138000C9041143D962D96A274A11408022520206
:101390000A43DA621E4BDB68DB06FBD51C4A938CE2
:1013A000812189000B439384194BDB68DB06FBD555
:1013B000174B996880220A439A60996840220A4331
:1013C0009A60996810220A439A609A8C02210A4313
:1013D0009A840F4BDB68DB06FBD50D4B9B681B0625
:1013E00003D40B4B9B685B06F7D5094B9B68DB0668
:1013F000FBD50A4B00229A60084B5B78DB09FBD1D6
:10140000064B0A4A5A60054B5B78DB09FBD17047F3
:10141000000800400040004100040040000C004073
:101420000340000003060100FFFF00FC000703006B
:1014300010B5FFF75BFF094B0020002118605960D1
:10144000074B00221A60074A5A609A6007221A6006
:10145000054B802212061A6010BDC046E000002035
:1014600010E000E0FFFFFF0000E100E0054B9B689B
:10147000054AD01A0021054B1A685B68801859414B
:101480007047C04610E000E0FFFFFF00E0000020D2
:1014900010B5FFF7EBFF034A002300F0B7FCC808C4
:1014A00010BDC04634EC0A0030B505490A684B68E7
:1014B00080246404002512196B410A604B6030BD22
:1014C000E000002070B5012800D070BD0C4B99429F
:1014D000FBD10C4A8125AD00002353530A4C135312
:1014E00082208000135409495354094E1660094A5A
:1014F0005353135313545354074B1360E5E7C0463B
:10150000FFFF0000E80000200602000009020000C2
:1015100000080042F4020020000C0042F0B5CE4664
:10152000474680B591466C4B04689C4200D19DE0D3
:101530006A4C236A04252B432362694B694C5C8007
:101540008B7C002B00D19AE003260C684D68EB07DA
:1015500000D496E0EB0F5B195B109C460F273E40D2
:10156000E301614A90464344634430331A783601BC
:10157000174037431F70E3015B4CA44663445B197B
:1015800040331C7801252C431C70CB7C002B00D1F0
:1015900086E003268C68CD68EB0700D482E0EB0F71
:1015A0005B195B109C460F273E40E3014E4A904674
:1015B0004344634430331A783601174037431F7071
:1015C000E301494CA44663445B1940331C78012570
:1015D0002C431C70046823680225AB432360046815
:1015E0002368013D2B43236003681C68E407FBD498
:1015F0001C681C25AC43183D2C431C6004682568FE
:101600008023DB052B43236006680D7C03231D40EC
:1016100034682D04354F3C402C43346004684D7CC5
:1016200021682B401B05324D29400B432360036882
:101630004A469A810368C02292025A600268937DEA
:1016400004210B43937503682A4A934239D0224AF6
:1016500093423BD00268136802210B431360264B70
:101660000122C2540CBC90469946F0BD1B4C236A23
:1016700008252B4323621A4B204C5C8060E702262E
:1016800063E7EB0F5B195F10E301174A944663446D
:10169000DB1930331F780F2297433E431E706AE7F1
:1016A000022677E7EB0F5B195F10E3010E4A9446C1
:1016B0006344DB1930331F780F2297433E431E707B
:1016C0007EE70F4B802292001A60C3E70C4B80220A
:1016D000D2001A60BEE7C046000C00420004004081
:1016E000000C00400E40000000440041FFFFFCFFE2
:1016F000FFFFCFFF00080042090200000F4000007A
:1017000000E100E0114BC35C002B1BD082239B0047
:10171000C35C002B17D10368198D81229200835A74
:10172000C9B2C3181971835A0133DB05DB0D83522B
:10173000074BC35A825A9B1A5A425341DBB2822248
:1017400092008354704703681B8DFBE70902000079
:1017500006020000054BC35C002B06D089B203686B
:10176000198503681B7EDB07FBD570470902000063
:1017700070B506001400094BC35C002B0AD170BD84
:101780002300013C002BFAD04D1C09783000FFF7F4
:10179000E1FF2900631CF3D10B78F3E70902000095
:1017A00082239B00C35C002B0AD181239B00C25A79
:1017B00092B2054BC35A9BB29A4203D0002000E07C
:1017C000002070470120FCE70602000010B504006D
:1017D0000C4BC35C002B13D02000FFF7E1FF002867
:1017E000FAD1094AA35AE3181879C0B282239B00A0
:1017F0000021E154A35A0133DB05DB0DA35210BDD8
:101800000020FCE7090200000602000070B5040099
:101810000D001F4BC35C002B01D1002070BDFFF7F2
:10182000BFFF00282FD181239B00E25A92B2194BAF
:10183000E35A9BB29A4213D381239B00E35A154A81
:10184000A25A9B1A9BB2AB421FDD6B1C15D0114BE9
:10185000E05A4019C005C00D24182079C0B2DDE758
:1018600081239B00E35A0B4AA25A9B1A9BB2802207
:101870009200944663449BB2E5E7064BE05A241875
:101880002079C0B2CAE70020C8E70020C6E7C046FA
:101890000902000006020000F0B5C64600B50700C8
:1018A0000D00214BC35C002B35D0002398468123CB
:1018B0009B00FA5A92B21D4BFB5A9BB29A4219D323
:1018C00081239B00FB5A194ABA5A9B1A9BB2434583
:1018D00025DD00242E5D434619193800FFF796FFD9
:1018E000864214D101342B5D002BF3D1404604BC59
:1018F0009046F0BD81239B00FB5A0C4ABA5A9B1AB2
:101900009BB280229200944663449BB2DFE701239E
:101910009C46E044CBE701235B429846E6E701237F
:101920005B429846E2E7C04609020000060200005A
:10193000F0B5C64600B505001F4BC35C002B36D082
:1019400081239B00C25A92B21C4BC35A9BB29A424B
:1019500010D381239B00C05A184BEB5AC01A80B297
:101960008046002825D0013000F0B0FA071E1AD0BA
:10197000002412E081239B00C05A104BEB5AC01A7E
:1019800080B280239B009C46604480B2E8E73E1909
:101990002800FFF71BFF307001344445F7D343465E
:1019A000FB1800221A70380004BC9046F0BD0027D6
:1019B000F9E70027F7E7C046090200000602000029
:1019C00010B50248FFF79EFE10BDC046E80000209B
:1019D00010B50248FFF796FE10BDC046F402002085
:1019E00010B502490120FFF76DFD10BDFFFF00009B
:1019F000F0B593B00400030025C925C325C925C34C
:101A000025C925C30A681A60250028350023A3626A
:101A1000E362089301276B461F703A4E062231009D
:101A2000581C00F067FA022200216B46D81D00F016
:101A30006AFA6B465F7233896A4653811422002129
:101A400003A800F060FAFFF723FD0890A16A0029BF
:101A500050D00131CB0059188900686800F004FBB0
:101A600000280CD06860A26AD3009B189B00C018A5
:101A70002422694600F03EFAA36A0133A36209AE4C
:101A800000231193023333701E4F39002031062298
:101A90002520684400F02EFA022200212B20684401
:101AA00000F031FA032373723B8D738114220021FD
:101AB0000CA800F028FAFFF7EBFC3062A16A0029BD
:101AC0001CD00131CB0059188900686800F0CCFAAD
:101AD00000280CD06860A26AD3009B189B00C01835
:101AE000242209A900F006FAA36A0133A3622000A8
:101AF00013B0F0BD242000F0E9F9B1E7242000F094
:101B0000E5F9E5E7342A000070B50400FFF714F8A2
:101B1000051E01D1280070BD78212000FEF7A3FE2C
:101B200001212000FEF7B0FF2000FEF793FF0F22F7
:101B300005212000FEF7F6FF20212000FEF79CFE85
:101B400003212000FEF7ADFF00212000FEF7C0FFBB
:101B5000382200232000FEF7CFFE37220023012188
:101B60002000FEF7E1FE2000FEF730FFD2E770B55F
:101B70008AB00600C46A836ADD00ED18AD006519FD
:101B8000AC420FD00022A2560023CB569A4201D07D
:101B90002434F5E72022200000F0ACF9FFF778FCB0
:101BA000206221E034002834202201A800F0A2F9AC
:101BB000FFF76EFC0990B16A002917D00131CB0004
:101BC00059188900606800F04FFA00280CD0606056
:101BD000B26AD3009B189B00C018242201A900F010
:101BE00089F9B36A0133B3620AB070BD242000F0F2
:101BF0006DF9EAE710B588B00400FEF76EFE002824
:101C000001D108B010BD202269462000FEF76AFE0F
:101C100069462000FFF7ABFFF3E7FEE710B51E4A69
:101C20001E4B9A4207D01D4B1B4A01E002CA02C359
:101C30001B498B42FAD31B4B01E0002204C31A4A12
:101C40009342FAD3194B7F229343194A9360194A5E
:101C500090235B000221D150174B9A7B2E318A438F
:101C600020210A439A739A7B0C218A4308210A4354
:101C70009A739A7B03218A4302210A439A730F4A7B
:101C8000516880230B435360FFF7D2FB00F0FAF852
:101C9000FFF748F9FEE7C046042E000000000020D0
:101CA00078000020780000201C05002000000000C3
:101CB00000ED00E00070004100480041004000419C
:101CC0000300064A1268002A04D0044A1068C318A8
:101CD00013607047014A02491160F6E700050020D1
:101CE0001C050020030010B50800190000F0BCF826
:101CF00010BDFFFF002243088B4274D303098B42BF
:101D00005FD3030A8B4244D3030B8B4228D3030CCB
:101D10008B420DD3FF22090212BA030C8B4202D36D
:101D20001212090265D0030B8B4219D300E0090A95
:101D3000C30B8B4201D3CB03C01A5241830B8B429E
:101D400001D38B03C01A5241430B8B4201D34B0387
:101D5000C01A5241030B8B4201D30B03C01A5241EC
:101D6000C30A8B4201D3CB02C01A5241830A8B4271
:101D700001D38B02C01A5241430A8B4201D34B025A
:101D8000C01A5241030A8B4201D30B02C01A5241BE
:101D9000CDD2C3098B4201D3CB01C01A5241830972
:101DA0008B4201D38B01C01A524143098B4201D3AC
:101DB0004B01C01A524103098B4201D30B01C01AD7
:101DC0005241C3088B4201D3CB00C01A5241830851
:101DD0008B4201D38B00C01A524143088B4201D37E
:101DE0004B00C01A5241411A00D2014652411046DE
:101DF0007047FFE701B5002000F006F802BDC046BD
:101E00000029F7D076E770477047C046F0B5150453
:101E10002D0C0F0001002E00C64684460004140C51
:101E2000000C090C46434D43604361434019340C98
:101E3000241800B5A54203D98020400280464144C1
:101E4000250C6D18614659437A433004491924041E
:101E5000000C2018891804BC9046F0BD10B50A2269
:101E6000002100F02DFA10BD10B504000448130045
:101E7000002804D00A000220210000E000BF10BDAD
:101E80000000000070B500260C4D0D4C641BA41022
:101E9000A64209D1002600F097FF0A4D0A4C641BA8
:101EA000A410A64205D170BDB300EB589847013687
:101EB000EEE7B300EB5898470136F2E7D42D000067
:101EC000D42D0000D42D0000E42D000010B5034BEC
:101ED0000100186800F06AF810BDC0461400002028
:101EE00010B5034B0100186800F016F810BDC0468D
:101EF00014000020002310B59A4200D110BDCC5C24
:101F0000C4540133F8E703008218934200D17047AC
:101F100019700133F9E7FFFF70B50500002910D0F3
:101F20000C1F2368002B00DAE418280000F00EFADA
:101F30001D4A1368002B05D163601460280000F06F
:101F40000DFA70BDA34208D9216860188342F3D10D
:101F500018685B6841182160EEE71A005B68002B87
:101F600001D0A342F9D911685018A0420BD12068C2
:101F70000918501811608342E0D118685B68411855
:101F800011605360DAE7A04202D90C232B60D5E739
:101F900021686018834203D118685B68411821608A
:101FA00063605460CAE7C04604050020F8B5032307
:101FB000CD1C9D43083506000C2D1FD20C25A942CF
:101FC0001ED8300000F0C2F925490A681400002C20
:101FD0001AD1244F3B68002B04D12100300000F0BF
:101FE0004DF838602900300000F048F8431C2BD130
:101FF0000C233000336000F0B1F903E0002DDEDA8D
:102000000C2333600020F8BD23685B1B19D40B2B15
:1020100003D92360E418256003E06368A2420ED16F
:102020000B60300000F09AF9200007220B30231DCE
:102030009043C21A9842E6D01B1AA350E3E75360BC
:10204000EFE722006468C2E70323C41C9C43A0425C
:10205000E1D0211A300000F011F8431CDBD1C7E7B2
:10206000040500200805002010B5034B0A000100FC
:10207000186800F07BF910BD14000020002370B533
:10208000064D040008002B60FFF71AFE431C03D125
:102090002B68002B00D0236070BDC04618050020BF
:1020A0000CB430B5174B0C001D689DB0002908DA40
:1020B0008B2301202B6040421DB030BC08BC02B015
:1020C000184782236A469B00938200230290069061
:1020D000994200D04B1E0493079301236A465B424A
:1020E000D382280021AB209A02A9019300F0C6F9FF
:1020F000431C01DA8B232B60002CDDD00023029AD5
:102100001370D9E714000020F0B505000024032760
:10211000094E2A5DB35C3B40012B00D120320B5DA0
:10212000F05C3840012800D12033D01A9A4202D105
:102130000134002BEDD1F0BD312C0000C9B2037881
:10214000002B04D08B4200D170470130F7E74B429F
:10215000594149420840F7E70023C25C0133002A95
:10216000FBD1581E7047030030B51D00002A06D071
:102170000C78013A01332C700131002CF5D100218B
:102180009A18934200D130BD19700133F9E70A78EB
:1021900030B5002A0CD130BD9A4208D10123CC5C65
:1021A000002CF8D0C55CA54201D10133F7E701301E
:1021B0000378002BF0D11800EDE7FFFFF0B51E000B
:1021C0003D4B87B00590029208009C460822019181
:1021D000030061461C78451C095D28000F0017406C
:1021E0001142F5D12D2C33D101272C789D1C002EC6
:1021F0005DD0102E09D1302C07D120222B789343AB
:10220000582B4FD110266C7802352C4B3100FB181F
:1022100018000393FFF7F4FD002301228446180001
:102220000491524221003039092916D80C00A642E7
:102230001FDD591C09D01300844506D302D104992F
:10224000A14202DB0123704320182C780135E9E715
:102250002B2CCCD12C789D1CC9E7210041391929A0
:1022600001D8373CE3E721006139192901D8573CEF
:10227000DDE75A1C08D1059A23331360029B0398AB
:10228000002B09D107B0F0BD002F00D04042029AC8
:10229000002AF7D0002B01D06B1E0193029B019AFC
:1022A0001A60EFE73024002EAFD10836ADE7302CAE
:1022B000A3D00A26A9E7C046312C0000FFFFFF7F0C
:1022C00010B513000A00010002480068FFF776FF0E
:1022D00010BDC0461400002030B5140005001A00DF
:1022E0009BB0002C05DA8B230360012040421BB019
:1022F00030BD822368469B008381002300910491B6
:102300009C4200D0631E02930593012369465B4201
:10231000CB8128001E9B00F0B1F8431C01DA8B230F
:102320002B60002CE3D00023009A1370DFE7FFFF3F
:1023300007B5009313000A00010002480068FFF788
:10234000CBFF0EBD140000207047704710B5024847
:10235000FFF7FAFF10BDC0461005002010B5024877
:10236000FFF7F3FF10BDC04610050020F8B50700C9
:102370000D001600002905D11100FFF717FE04001B
:102380002000F8BD002A03D1FFF7C6FD3400F7E7AF
:1023900000F014FB2C00B042F2D231003800FFF7FD
:1023A00005FE041EECD029003200FFF7A3FD290032
:1023B0003800FFF7B1FDE3E7F0B58E6885B00700A0
:1023C0000C00039201939E423CD890238A89DB0043
:1023D0001A4234D00325096923685B1A02936369A2
:1023E00002985D43EB0F5D19019B6D1001331B18C3
:1023F000AB4200D91D00530532D529003800FFF744
:10240000D5FD061E09D10C233B6040230120A28983
:1024100040421343A38105B0F0BD029A2169FFF742
:1024200069FDA389144A1A4080231343A381029BA8
:102430002661F61826606561019EED1AA560019B74
:102440009E4200D9019E32000399206800F0A3FA51
:10245000A36800209B1BA36023689E192660DAE70F
:102460002A003800FFF782FF061EE0D138002169FC
:10247000FFF752FDC7E7C0467FFBFFFFF0B5A1B0F5
:1024800003901D008B890F0016001B0611D50B69E8
:10249000002B0ED14021FFF789FD386038610028FC
:1024A00005D10C23039A0138136021B0F0BD4023FD
:1024B0007B61002308AC6361203363761033A3761D
:1024C000079535002B78002B01D0252B47D1AB1B6E
:1024D0000593B5420CD0320039000398FFF76CFF2A
:1024E000431C00D1AEE06269059B9446634463617E
:1024F0002B78002B00D1A5E001220023524262601C
:1025000004A9543252186E1C2360E360A360137058
:10251000A36505223178544800F032FA751C002872
:102520001FD12268D30604D5532304A95B182021A8
:102530001970130704D5532304A95B182B211970B4
:1025400033782A2B16D0350000210A20E3682A7838
:102550006E1C303A092A4ED9002911D117E00135F5
:10256000B0E7414B2268C01A0123834013432E0079
:102570002360CEE7079B191D1B680791002B01DB29
:102580000B9304E05B42E3600223134323602B7848
:102590002E2B0AD16B782A2B35D1079B02351A1DB9
:1025A0001B680792002B2BDB0993304E032230006F
:1025B000297800F0E5F9002806D04023801B8340ED
:1025C00022680135134323602978062228486E1CAF
:1025D000217600F0D5F900283CD0264B002B25D1E0
:1025E0000722079B07339343083307936369049AD1
:1025F0009B18636165E74343350001219B18A6E7FB
:1026000001235B42D0E700230A201A0001356360F2
:1026100029786E1C3039092903D9002BC5D00992BD
:10262000C3E74243350001235218F1E707AB00939B
:102630003A002100104B039800E000BF0490049B77
:102640000133D3D1BB890D985B0600D42DE701205F
:1026500040422AE707AB00933A002100064B03985B
:1026600000F07CF8EAE7C046942D00009A2D0000A7
:102670009E2D000000000000B9230000F7B51500F2
:1026800001938A680B690C000090934200DA1300F2
:1026900022002B6043321278002A01D001332B60D4
:1026A00023689B0602D52B6802332B602268062321
:1026B00017001F401A4227D0230043331B785A1EAD
:1026C00093412268920630D4220001990098089E16
:1026D0004332B047431C25D0062320682A68E168AE
:1026E00000250340042B03D18D1AEB43DB171D405B
:1026F000A3682269934201DD9B1AED180027BD42B1
:1027000020D1002010E00137E3682A689B1ABB4201
:10271000D2DD2200012301990098089E1932B047AA
:10272000431CF0D101204042FEBD3020E11843316E
:10273000087021005A1C45310978A218433202332F
:102740001170C1E72200012301990098089E1A32F6
:10275000B047431CE6D00137D1E7FFFFF0B58BB09F
:1027600006920A0043320793059004920A7E0C00F9
:10277000109B782A06D8622A08D8002A00D1C0E027
:10278000582A52D026004236327022E010006338B8
:102790001528F7D800F01AF916001F00F6FFF6FF0B
:1027A000F6FFF6FF1F00F6FFF6FFF6FFF6FFA800A4
:1027B00036009A00F6FFF6FFB900F6FF3600F6FF86
:1027C000F6FF9E0026001A684236111D1960136834
:1027D00033700123A7E0086819680A1D05060BD5A8
:1027E0000D681A60002D03DA2D23049A6D421370D0
:1027F000614B0A27039332E00D681A604106F1D558
:102800002DB2EFE70D681968081D18602E0601D576
:102810000D6803E06D06FBD50D68ADB2564B0A2777
:1028200003936F2A17D1082715E045310A70524AE1
:1028300003921A68216820CA1A60080650D5CB078F
:1028400002D52023194321601027002D03D1202316
:1028500022689A4322602300002243331A7063687F
:10286000A360002B03DB0422216891432160002D2B
:1028700002D1049E002B0CD0049E28003900FFF7E3
:10288000BFFA039B013E5B5C33702B0005009F4247
:10289000F3D9082F09D12368DB0706D563682269BD
:1028A000934202DC3023013E3370049B9B1B236167
:1028B000079B210000930598069B09AAFFF7DEFEFF
:1028C000431C35D1012040420BB0F0BD20220968E5
:1028D0000A4322602200782145321170274AA7E777
:1028E0004806ACD5ADB2AAE71A680D68101D496953
:1028F000186013682E0601D5196002E06D06FBD53D
:1029000019800023049E2361D2E71A68111D196003
:10291000166800213000626800F032F8002801D00B
:10292000801B6060636823610023049A1370BFE713
:102930002369320006990598079DA847431CC1D01A
:1029400023689B0715D4099BE0689842BCDA1800FD
:10295000BAE72200012306990598079E1932B0476D
:10296000431CAFD00135E368099A9B1AAB42F0DCF7
:10297000E9E70025F7E7C046A52D0000B62D0000C9
:10298000C9B28218904201D10020704703788B426F
:10299000FBD00130F6E710B5884202D98B18984277
:1029A00003D3002307E08B5C8354013AFBD210BDB4
:1029B000CC5CC45401339A42FAD1F8E70B1F1B6870
:1029C000181F002B01DA0B58C018704703B471466A
:1029D000490840004900095E49008E4403BC704725
:1029E000742A0000D905000000000000000000006B
:1029F00018000000000000001900000001030000A2
:102A000000000000050000000000000008000000B9
:102A100000000000090000000101010101000000A8
:102A2000582B0000290E000000000000004E554CFD
:102A30004C00FFFF7465737431000000C00000009B
:102A40000000000000000000000000000000000086
:102A5000000000007465737432000000180000006C
:102A60000000000000000000000000000000000066
:102A70000000FFFF6578656300FFFFFF415400FF22
:102A800041544530000000002B435245473A203066
:102A90002C31000041542B435245473F00000000B9
:102AA00041542B434D47463D3100000041542B43D8
:102AB0004D4744413D2244454C20414C4C2200FFAF
:102AC00041542B434D47523D256400002B434D4755
:102AD000520000000D0A0D0A4F4B00002C2200FF8F
:102AE00052494E4700000000415448002B434D54CA
:102AF0004900FFFF41542B434D47533D222573228C
:102B0000000000002B434D47530000001A00FFFF58
:102B1000436F6D6D616E642074696D6564206F75BF
:102B200074000000756172742D3E7265616428291D
:102B30002072657475726E6564206E756C6C00FF32
:102B40000A0B0C0D0E0FFFFF000102030405FFFF2F
:102B5000111213141516FFFF696E666F00FFFFFF59
:102B60004E6F64653A0A2049443A2025640A204E93
:102B7000616D653A2025730A20547970653A2025E5
:102B8000640A204C617374207365656E3A20256475
:102B9000207365632061676F0A00000020536F692E
:102BA0006C206D6F6973747572652073656E736FD9
:102BB000723A0A20204D6F6973747572653A202548
:102BC000640A00002054656D7065726174757265E9
:102BD000202B2068756D69646974792073656E7344
:102BE0006F723A0A202054656D7065726174757257
:102BF000653A2025640A202048756D6964697479F6
:102C00003A2025640A0000002054656D70657261E9
:102C1000747572652073656E736F723A0A20205462
:102C2000656D70657261747572653A2025640A007D
:102C3000002020202020202020202828282828208C
:102C40002020202020202020202020202020202084
:102C500020881010101010101010101010101010EC
:102C600010040404040404040404041010101010DC
:102C700010104141414141410101010101010101A6
:102C800001010101010101010101010110101010F8
:102C90001010424242424242020202020202020278
:102CA00002020202020202020202020210101010CC
:102CB00020000000000000000000000000000000F4
:102CC0000000000000000000000000000000000004
:102CD00000000000000000000000000000000000F4
:102CE00000000000000000000000000000000000E4
:102CF00000000000000000000000000000000000D4
:102D000000000000000000000000000000000000C3
:102D100000000000000000000000000000000000B3
:102D200000000000000000000000000000000000A3
:102D300000FFFFFF00000000000000000000000096
:102D40000000000000000000000000000000000083
:102D50000000000000000000000000000000000073
:102D60000000000000000000000000000000000063
:102D70000000000000000000000000000000000053
:102D80000000000000000000000000000000000043
:102D900000000000232D302B2000686C4C0065667D
:102DA000674546470030313233343536373839419C
:102DB00042434445460030313233343536373839B2
:102DC00061626364656600FFF8B5C046F8BC08BC84
:102DD0009E467047B500000031100000DD12000073
:102DE000E1190000F8B5C046F8BC08BC9E46704723
:102DF00001B40248844601BC604700BF01000020C6
:042E00008D00000041
:102E04000F210139FDD10138FAD1704700000000CB
:102E14002C2A00001800002000000000542D00009F
:102E2400742D0000342D000000000000000000009C
:102E3400000000000000000000000000000000008E
:102E4400000000000000000000000000000000007E
:102E5400000000000000000000000000000000006E
:102E6400000000000000000000000000000000005E
:082E7400000000000000000056
:0400000300001C1DC0
:00000001FF
