:1000000000100020051D0000031D0000031D00005E
:1000100000000000000000000000000000000000E0
:10002000000000000000000000000000031D0000B0
:100030000000000000000000031D00001116000079
:10004000031D0000031D0000031D0000031D000030
:10005000031D0000031D0000031D00000000000040
:10006000031D0000291B0000391B0000031D0000B8
:10007000031D0000031D0000031D0000031D000000
:10008000031D0000031D0000031D000010B5064CF9
:100090002378002B07D1054B002B02D0044800E049
:1000A00000BF0123237010BD780000200000000075
:1000B000BC2E0000044B10B5002B03D003490448AC
:1000C00000E000BF10BDC046000000007C00002022
:1000D000BC2E000010B50378002B07D0303B092B55
:1000E00001D90130F7E701F02DFF00E0002010BD3D
:1000F000F0B587B004006846009142602600020017
:1001000022CA22C635000022A260E2602361416853
:100110000132100088402368DB011A4FBC4663445B
:1001200098605B1840331978022081431970636826
:100130009A402368DB0163449A6103AA124B83CB84
:1001400083C23168002918D0706801314B005918FA
:10015000890001F0F5FF00280CD068602A68530080
:100160009B189B00C0180C2203A901F037FF2B68D5
:1001700001332B60200007B0F0BD0C2001F01AFF06
:10018000E9E7C04600440041D82A000010B5040049
:10019000C068002801D001F017FF200010BDFFFF4C
:1001A000F8B5040017001E000369002281208000BA
:1001B0001A5225481A520020822292009854012295
:1001C0005242206901F088FB0D21206901F076FB85
:1001D00001F012FA050012E081229200995A1A4A9F
:1001E0009B5AC91A89B280239B009C46614489B2FC
:1001F000002916D101F000FA401BB0421FD223693A
:1002000081229200995A89B20F4A9A5A92B2914227
:10021000E2D381229200995A0B4A9B5AC91A89B299
:10022000E6E70A4802F040FE002F0AD020693900B4
:1002300001F0E6FB0130431E9841C0B200E000200F
:10024000F8BD0120FCE7C04606020000A0860100C0
:10025000F8B5CE46474680B580460F0016001D0013
:10026000089B99460024AC420CDA4B463200390018
:100270004046FFF795FF002805D1054802F014FE1F
:100280000134F0E700200CBC90469946F8BDC0460A
:1002900020A10700F0B5C64600B582B004000D21CC
:1002A000006901F00BFBFA235B001C4A1C4920008B
:1002B000FFF776FF071E2BD10026022E28DC012532
:1002C0002A0063689A402368DB0116498C46634420
:1002D0005A61154B9846180002F0E6FD63689D4090
:1002E0002368DB010F4A944663449D61404602F057
:1002F000DBFDFA235B000093EF3BFF3B074A084915
:100300002000FFF7A5FF002801D10136D5E707003F
:10031000380002B004BC9046F0BDC046902B0000EF
:10032000342B00000044004140420F0070B582B001
:100330000500FFF7AFFF041E02D1200002B070BD20
:10034000144C2300002214492800FFF729FF0094D1
:100350001923124A12492800FFF77AFF041EECD035
:100360000C4E330000220F492800FFF719FF33001D
:1003700000220D492800FFF713FF2B69002281217D
:1003800089005A5209495A520021822292009954F6
:10039000D3E7C046B80B0000382B0000402B00000C
:1003A0004C2B0000582B0000642B000006020000BC
:1003B000F0B5C64600B582B006000F0001922021BC
:1003C000380001F027FF8046002804D00023037086
:1003D00001339C46E044F468B3685D00ED18AD005D
:1003E0006519AC420CD03900206801F0F9FE0028F4
:1003F00001D00C34F5E76368424601993000984714
:1004000002B004BC9046F0BDF0B591B004000B0002
:10041000264A4021684601F0AFFE254B254A694631
:100420002000FFF7BDFE002801D111B0F0BD20690A
:1004300001F032FB071EF8D01E4901F025FF050030
:100440000A2101F0E7FE002820D0461C1A4930009E
:1004500001F01AFF00281DD000230370174928005F
:1004600001F012FF002819D0851C2221280001F07C
:10047000D1FE002816D0002303702A00310020008E
:10048000FFF796FF380001F09FFDCEE7380001F03E
:100490009BFDCAE7380001F097FDC6E7380001F080
:1004A00093FDC2E7380001F08FFDBEE7782B000016
:1004B000B80B0000842B00008C2B0000942B000054
:1004C00070B50400026981239B00D15A89B2204B88
:1004D000D35A9BB2994209D381239B00D35A1C491A
:1004E000525A9B1A9BB2002B0DD170BD81239B00E9
:1004F000D35A1749525A9B1A9BB2802292009446B3
:1005000063449BB2EFE7134802F0CEFC206901F090
:10051000C3FA051EE9D0104901F0B6FE002809D043
:100520000E4B00220E492000FFF73AFE280001F092
:100530004BFDDAE70B49280001F0A6FE0028F5D0B4
:10054000FFF7C8FD01002000FFF75EFFEEE7C046A1
:1005500006020000A0860100982B0000B80B0000E6
:10056000A02B0000A42B000030B591B004000B00BC
:100570001500134A4021684601F0FEFD114B002290
:1005800069462000FFF70CFE002801D111B030BDF4
:10059000012252422900206901F09EF90A4B0B4AC0
:1005A0000B492000FFF7FCFD23690022812189000F
:1005B0005A5208495A520021822292009954E5E782
:1005C000AC2B0000B80B000060EA0000BC2B000060
:1005D000C42B00000602000070B504000D001100DD
:1005E0000F4B0022FFF7DCFD002805D10D4A290042
:1005F0002000FFF7B9FF70BD206901F04DFA061E1B
:1006000008D0020029002000FFF7AEFF300001F003
:10061000DBFCF0E7044A29002000FFF7A5FFEAE72A
:10062000B80B0000C82B0000DC2B000010B5C3681D
:10063000046900290AD00122A240DB0107498C4647
:1006400063449A61406A02F02FFC10BD0122A2406F
:10065000DB0102498C4663445A61F3E700440041E0
:1006600070B584B004000D00694603000C330A0025
:1006700041CB41C2082202A801F0B0FC6368029A93
:1006800093420BD0A168002D0DD001228A40DB01DE
:1006900009498C4663449A6104B070BDA26803990D
:1006A0008A42EFD1F8E701228A40DB0102498C46F9
:1006B00063445A61F0E7C0460044004170B504004D
:1006C0000D000021FFF7B2FF1F212940206800F034
:1006D000A9FEFF21206800F0A5FE050001212000F1
:1006E000FFF7A4FF280070BDF8B5CE46474680B599
:1006F00007000C0016001D000021FFF797FF1F21C7
:10070000214020231943C9B2386800F08BFE81468E
:100710006C1EE4B2002D08D0731C984631783868FE
:1007200000F080FE25004646F2E701213800FFF781
:100730007DFF48460CBC90469946F8BD70B5040054
:100740000D0016000021FFF771FF1F212940202313
:100750001943C9B2206800F065FE05003100206829
:1007600000F060FE01212000FFF760FF280070BD4F
:10077000F8B5CE46474680B507000C0016009846EF
:10078000C57D954200D82E003B7E002B17D1AD1BB6
:10079000EDB200213800FFF749FF4146386800F00C
:1007A00041FE8046731EDBB29946002E09D0661CBE
:1007B0002178386800F036FE34004E46F2E7002516
:1007C000E7E76C1EE4B2002D05D00021386800F088
:1007D00029FE2500F5E701213800FFF727FF4046F5
:1007E0000CBC90469946F8BDF8B5CE46474680B554
:1007F00007000C001600C57D954200D22E003B7EFE
:10080000002B18D1AD1BEDB200213800FFF70EFF11
:100810006121386800F006FE8046731EDBB29946FF
:10082000002E0AD0661CFF21386800F0FBFD207006
:1008300034004E46F1E70025E6E76C1EE4B2002DD9
:1008400005D0FF21386800F0EDFD2500F5E7012116
:100850003800FFF7EBFE40460CBC90469946F8BDC9
:1008600070B504000D000021FFF7E0FE29002068AC
:1008700000F0D8FD050001212000FFF7D7FE280079
:1008800070BD10B5E221FFF7EBFF10BD10B5E121FF
:10089000FFF7E6FF10BD10B5FF21FFF7E1FF10BD28
:1008A00082B030B583B06C460091626007AA0793AE
:1008B0000300099902C322CC22C303000C3312CADD
:1008C00012C3002383752022C27503761B3A8277F8
:1008D0004262437603B030BC08BC02B0184710B582
:1008E0000A007C2900D97D220521FFF727FF10BDD2
:1008F0000B1C202900D92023C375704710B50400B4
:100900000021FFF7ADFE206A02F0CEFA1D21200083
:10091000FFF7D4FE830717D400212000FFF7CEFE97
:1009200001239843C2B200212000FFF707FF0221F4
:100930002000FFF7C3FE42B201200243D2B20221DF
:100940002000FFF7FBFE10BD206A02F0ADFA200088
:10095000FFF79CFFE0E7FFFF10B504000021FFF761
:10096000ADFE830700D510BD02220243D2B20021A2
:100970002000FFF7E3FE024802F096FAF3E7C046D4
:10098000881300000123C377704770B5040004A8E2
:100990000578002B06D0B0232000FFF7E9FE002DDC
:1009A00002D170BDA023F7E701212000FFF758FE18
:1009B000F7E730B583B00400012000902000FFF776
:1009C000E4FF00F019FE05002000FFF764FF30236C
:1009D00003420AD100F010FE401B5F28F4D920002A
:1009E000FFF7D0FF002003B030BD00212000FFF74B
:1009F00037FE702207212000FFF7A0FEC30601D4B6
:100A00000120F0E72000FFF741FF0020EBE710B5E1
:100A10000023FFF7CEFF10BD70B504000D001721B5
:100A2000FFF74CFEC30701D5002070BD002D06D096
:100A30002000FFF730FF43100720184028700120E6
:100A4000F3E710B50021FFF7E7FF10BD10B5040074
:100A5000FFF7CAFE702207212000FFF76FFE10BDCE
:100A600010B582B0040000920193837F6A460A2188
:100A7000FFF73AFEA37F6A4610212000FFF734FEFD
:100A8000E27D11212000FFF759FE02B010BDFFFFEB
:100A900030B583B005000C0000920193002921D0ED
:100AA000062C1DD8012C23D9154B195D01236A464C
:100AB0002800FFF719FEEA7D124B195D2800FFF7A9
:100AC0003DFE02212800FFF7F9FD42B20E4B1B5DEF
:100AD000012098400243D2B202212800FFF72EFEE7
:100AE00003B030BD827F6946193001F077FAD7E74D
:100AF000AB7F034A115D6A462800FFF7F5FDDAE790
:100B0000F82B0000082C0000002C000070B5040039
:100B10000D000221FFF7D2FD42B2054B595D0123C2
:100B20008B409A43D2B202212000FFF707FE70BD2E
:100B3000002C000010B50400FFF70EFF002120007C
:100B4000FFF7BCFD01220243D2B200212000FFF7D3
:100B5000F5FD702207212000FFF7F0FD01212000A4
:100B6000FFF77EFD637E002B0DD0A37F220019329C
:100B70000A212000FFF7B8FD1D212000FFF79EFD90
:100B8000830705D410BD00212000FFF7BFFFF3E766
:100B90002000FFF77BFEF5E710B504000021FFF70A
:100BA00045FD5021206800F03DFC7321206800F0D5
:100BB00039FC01212000FFF739FD10BD10B50400FC
:100BC0001D21FFF77BFD06220243D2B21D2120002A
:100BD000FFF7B4FD1C212000FFF770FD0322024344
:100BE000D2B21C212000FFF7A9FD0123237610BDFE
:100BF00010B5002904D03F220121FFF79FFD10BD51
:100C000000220121FFF79AFDF9E770B505000C00FD
:100C10000621FFF753FD07239843C0B2032C09D8E0
:100C20006400E2B20132D2B2024306212800FFF78B
:100C300085FD70BD0722F7E770B506000D0006219F
:100C4000FFF73CFD28239843C4B2D2333362022D10
:100C50000ED0012D12D0220006213000FFF76EFDCC
:100C600006213000FFF72AFDA0420DD0002070BD04
:100C700020200443E4B2C8333362ECE70820044385
:100C8000E4B2BE233362E6E70120F0E710B50901C4
:100C90000F2313400B43DAB20421FFF74FFD10BDC1
:100CA00070B584B00400694603000C330A0021CB00
:100CB00021C2082202A801F091F96368029A9A42BF
:100CC00000D185E0A16801228A40DB0146488446C4
:100CD00063449A605B1840331A7802218A431A7081
:100CE000694623000C330A0021CB21C2082202A846
:100CF00001F074F96368029A934200D16EE02169B1
:100D000001228A40E368DB013748844663449A60E5
:100D10005B1840331A7802218A431A7000212000A0
:100D2000FFF79EFC01212000FFF780FC2F4802F016
:100D3000BBF80C2200212000FFF700FD0F22052147
:100D40002000FFF7A3FF02212000FFF775FF002816
:100D500001D00123A37506212000FFF7AFFC060098
:100D600000212000FFF768FF2000FFF715FF002299
:100D70001D212000FFF7E2FC00221C212000FFF7CC
:100D8000DDFC00252576702207212000FFF7D6FC28
:100D90004C212000FFF7A3FD2000FFF772FD20008B
:100DA000FFF774FD2000FFF7D7FD00212000FFF7BB
:100DB00085FC01239843C2B200212000FFF7BEFC4E
:100DC000013EF6B2FD23B3426D41E8B204B070BDFE
:100DD000A26803998A4200D074E781E7A368039A66
:100DE000934200D08BE799E700440041881300004C
:100DF00010B50400C06A002801D001F0E5F8200019
:100E000010BDFFFF70B592B0012801D012B070BDC7
:100E1000124B9942FAD10024114E124B21000222AA
:100E20003000FFF765F9104D2A001049300000F03E
:100E3000CDFF0F4B01930F230093230021000E22BF
:100E400002A8FFF72DFD0B4C02A9200000F084FE44
:100E50002A000949200000F0B9FFD7E7FFFF000092
:100E600094000020F40200200C0000208D010000FE
:100E7000D8000020A8000020F10D0000F8B5040003
:100E80000E004368DB02DB0A8B4220DAC5886D0462
:100E9000AD0D8D421CDD070008376E1E3200216843
:100EA000380001F0DDF9BE19002333700723E35643
:100EB000002B13DB2760ED02ED0A63685B0D5B0519
:100EC0001D4365601B0E802252421343E371F8BD3F
:100ED000080001F06FF807003500DEE72068230006
:100EE0000833984202D001F06FF8E3E7E288024B42
:100EF0001A42DFD1F7E7C046E07F0000F0B583B0CB
:100F000005000E001700019307228256002A10DB0D
:100F10000020002A10DB00213A0001F085FA0400CD
:100F200031186B68DB02DB0A99420ADA200003B051
:100F3000F0BD01688819ECE76A68D102C90A891B0B
:100F4000EAE701312800FFF799FF2868611C801942
:100F5000019B3A0001F068FA0400E7E770B504006D
:100F60000D001600006801F063F9010033002A004B
:100F70002000FFF7C3FF70BD0EB400B582B003AA16
:100F800002CA0192FFF7EAFF02B008BC03B018479B
:100F9000F0B5D6464F464646C0B584B08146884631
:100FA00002AA324B1B680293039B5B0D5905039108
:100FB0005B012F490B40D3800023D3712D4BDC6A9A
:100FC0009B6ADE00F618B600A61906E06289A389BE
:100FD000294902A8FFF7D0FF2434B44228D00027C3
:100FE000E757651C637A9A4600F006FB236AC01A2D
:100FF000FA21890000F0F2FE0190534600932B0085
:101000003A001E4902A8FFF7B7FF637A022BDDD032
:10101000032B07D0012BDFD16289194902A8FFF702
:10102000ABFFD9E76289174902A8FFF7A5FFD3E70D
:10103000029A41464846FFF797FA02ABDB795BB26A
:10104000002B05DB04B01CBC90469946A246F0BDBF
:10105000029804AB984202D000F0B6FFF2E702AB70
:10106000DA88094B1A42EDD1F6E7C046100000209D
:101070001F80FFFFA80000207C2C0000182C00001F
:10108000542C0000C02C0000E07F000070B596B02A
:101090000EA9384C0B00220061CA61C321CA21C3CA
:1010A000354A364800F0EEFA06A8143402002ACC7D
:1010B0002AC22ACC2AC20ACC0AC21423059309AB3D
:1010C0006A4632CB32C212CB12C20699079A089BEB
:1010D0002B4800F069F82B4B10229A6044215A5C8F
:1010E000022082435A54284800F044FD002806D1CB
:1010F000244B1022DA61254801F0D6FEF8E7244897
:10110000FFF714F9002809D11F4800F0E7FD1D4B37
:101110001022DA611F4801F0C7FEF5E713AA154B4C
:10112000343313CB13C21A4B9B68002B1ED0184AC2
:10113000D06801330C21594301F002F800280BD08C
:10114000134CE0600C22A3685343C01813A900F0AD
:1011500045FFA3680133A3600D48FFF7B1F90A48C2
:1011600000F0BCFD074B1022DA61F5E70C2000F01F
:1011700021FFE3E7E42A00002BF60000F402002040
:10118000D800002000440041A800002000350C00D9
:1011900094000020400D030010B502490120FFF724
:1011A00031FE10BDFFFF000084B0F0B5C64600B5AB
:1011B0000791089209930FAB1B889846834B0268EE
:1011C0009A4200D1C1E0824A136A04242343136285
:1011D000804B814A5A807F4B5B78DB09FBD107ABA0
:1011E0001B7E002B00D1BDE00325079A089CE30776
:1011F00000D4B9E0E30F1B195F100F263540D3016F
:1012000076498C466344DB1930331F782D013E400C
:101210002E431E70D301714A944663441B19403318
:101220001A78012422431A7007AB5B7E002B00D191
:10123000A9E00325099A0A9CE30700D4A5E0E30F7F
:101240001B195F100F263540D30164498C46634457
:10125000DB1930331F782D013E402E431E70D30121
:101260005E4A944663441B1940331A780124224392
:101270001A7007AB9B7E002B00D195E003250B9ADB
:101280000C9CE30700D491E0E30F1B195F100F26BD
:101290003540D30151498C466344DB1930331F7804
:1012A0002D013E402E431E70D3014C4A94466344A8
:1012B0001B1940331A78012422431A7002681368FC
:1012C0000224A343136002681368013C23431360A4
:1012D00003681A68D207FBD41A681C24A243103C86
:1012E00022431A60066807AD2C7F03231C40326836
:1012F00024043B4F3A40224332600468ED7E22686A
:101300002B401B05374D2A40134323600368DA69DD
:101310005207FBD45C688022920222435A60036821
:10132000DA695207FBD44246D1B2197302681368D6
:1013300002210B4313600368DB699B07FBD404BCE9
:101340009046F0BC08BC04B01847214A136A082430
:10135000234313621F4B244A5A801E4B5B78DB09E0
:10136000FBD13CE7022540E7E30F1B195E10D301D8
:101370001A498C4663449B1930331E780F27BE43AD
:1013800035431D7046E7022554E7E30F1B195E1035
:10139000D30112498C4663449B1930331E780F27C2
:1013A000BE4335431D705AE7022568E7E30F1B195A
:1013B0005E10D30109498C4663449B1930331E7873
:1013C0000F27BE4335431D706EE7C046000C004238
:1013D00000040040000C00400E40000000440041AA
:1013E000FFFFFCFFFFFFCFFF0F40000001607047D1
:1013F00010B5012800D010BD054B9942FBD105491D
:101400000548FFF7F3FF05490548FFF7EFFFF2E74F
:10141000FFFF000000080042D8000020000C00423E
:10142000DC0000200268002A0AD0137EDB07FCD50E
:10143000916203681A7E5207FBD5986AC0B2704762
:10144000FF20FCE710B502490120FFF7D1FF10BDD6
:10145000FFFF0000484A116AC0239B000B43136240
:1014600046494A681E239A431C3B13434B60444A37
:10147000916908230B439361424A137801210B437E
:101480001370404B1B78DB0703D53E4B5B78DB09C1
:10149000F7D1394B196A802291431962394B3A4A84
:1014A0009A603A4A5A60374B5B78DB09FBD1354B7F
:1014B0008622D2015A80334B5B78DB09FBD12E4A5E
:1014C000938C80218B4393842B4BDB68DB06FBD50D
:1014D000294BDA6A120C1204C02109011143D962A6
:1014E000DA6A920192098021C9041143D962D96A4A
:1014F000274A1140802252020A43DA621E4BDB68FF
:10150000DB06FBD51C4A938C812189000B43938415
:10151000194BDB68DB06FBD5174B996880220A4321
:101520009A60996840220A439A60996810220A4397
:101530009A609A8C02210A439A840F4BDB68DB067F
:10154000FBD50D4B9B681B0603D40B4B9B685B06BE
:10155000F7D5094B9B68DB06FBD50A4B00229A6046
:10156000084B5B78DB09FBD1064B0A4A5A60054BF6
:101570005B78DB09FBD17047000800400040004168
:1015800000040040000C004003400000030601007E
:10159000FFFF00FC0007030010B5FFF75BFF094BDE
:1015A0000020002118605960074B00221A60074A8A
:1015B0005A609A6007221A60054B802212061A6050
:1015C00010BDC046E000002010E000E0FFFFFF007B
:1015D00000E100E0054B9B68054AD01A0021054B4D
:1015E0001A685B68801859417047C04610E000E0F7
:1015F000FFFFFF00E000002010B5FFF7EBFF034AFC
:10160000002300F077FCC80810BDC04634EC0A0087
:1016100030B505490A684B68802464040025121916
:101620006B410A604B6030BDE000002070B50128BE
:1016300000D070BD0C4B9942FBD10C4A8125AD0006
:10164000002353530A4C135382208000135409493A
:101650005354094E1660094A5353135313545354A9
:10166000074B1360E5E7C046FFFF0000E8000020DD
:10167000060200000902000000080042F4020020F7
:10168000000C0042F0B5CE46474680B591466C4B03
:1016900004689C4200D19DE06A4C236A04252B43D8
:1016A0002362694B694C5C808B7C002B00D19AE0F3
:1016B00003260C684D68EB0700D496E0EB0F5B192E
:1016C0005B109C460F273E40E301614A904643442D
:1016D000634430331A783601174037431F70E301F3
:1016E0005B4CA44663445B1940331C7801252C43B2
:1016F0001C70CB7C002B00D186E003268C68CD6863
:10170000EB0700D482E0EB0F5B195B109C460F27C0
:101710003E40E3014E4A90464344634430331A78D6
:101720003601174037431F70E301494CA446634418
:101730005B1940331C7801252C431C700468236816
:101740000225AB43236004682368013D2B432360DB
:1017500003681C68E407FBD41C681C25AC43183DD7
:101760002C431C60046825688023DB052B43236021
:1017700006680D7C03231D4034682D04354F3C4022
:101780002C43346004684D7C21682B401B05324D8E
:1017900029400B43236003684A469A810368C022AC
:1017A00092025A600268937D04210B43937503688B
:1017B0002A4A934239D0224A93423BD002681368A6
:1017C00002210B431360264B0122C2540CBC9046ED
:1017D0009946F0BD1B4C236A08252B4323621A4B04
:1017E000204C5C8060E7022663E7EB0F5B195F101B
:1017F000E301174A94466344DB1930331F780F2204
:1018000097433E431E706AE7022677E7EB0F5B19AA
:101810005F10E3010E4A94466344DB1930331F78AE
:101820000F2297433E431E707EE70F4B80229200AB
:101830001A60C3E70C4B8022D2001A60BEE7C04694
:10184000000C004200040040000C00400E4000006C
:1018500000440041FFFFFCFFFFFFCFFF00080042F4
:10186000090200000F40000000E100E0114BC35CE2
:10187000002B1BD082239B00C35C002B17D1036875
:10188000198D81229200835AC9B2C3181971835AE3
:101890000133DB05DB0D8352074BC35A825A9B1A77
:1018A0005A425341DBB2822292008354704703684C
:1018B0001B8DFBE70902000006020000054BC35C1C
:1018C000002B06D089B20368198503681B7EDB07ED
:1018D000FBD570470902000070B506001400094BE3
:1018E000C35C002B0AD170BD2300013C002BFAD051
:1018F0004D1C09783000FFF7E1FF2900631CF3D18C
:101900000B78F3E70902000082239B00C35C002BE5
:101910000AD181239B00C25A92B2054BC35A9BB293
:101920009A4203D0002000E0002070470120FCE72D
:101930000602000010B504000C4BC35C002B13D052
:101940002000FFF7E1FF0028FAD1094AA35AE31863
:101950001879C0B282239B000021E154A35A0133BD
:10196000DB05DB0DA35210BD0020FCE709020000DF
:101970000602000070B504000D001F4BC35C002B75
:1019800001D1002070BDFFF7BFFF00282FD18123B8
:101990009B00E25A92B2194BE35A9BB29A4213D37C
:1019A00081239B00E35A154AA25A9B1A9BB2AB4271
:1019B0001FDD6B1C15D0114BE05A4019C005C00D3E
:1019C00024182079C0B2DDE781239B00E35A0B4A3B
:1019D000A25A9B1A9BB280229200944663449BB207
:1019E000E5E7064BE05A24182079C0B2CAE7002088
:1019F000C8E70020C6E7C046090200000602000052
:101A0000F0B5C64600B507000D00214BC35C002BA6
:101A100035D00023984681239B00FA5A92B21D4B81
:101A2000FB5A9BB29A4219D381239B00FB5A194A55
:101A3000BA5A9B1A9BB2434525DD00242E5D4346CE
:101A400019193800FFF796FF864214D101342B5D37
:101A5000002BF3D1404604BC9046F0BD81239B008F
:101A6000FB5A0C4ABA5A9B1A9BB2802292009446A7
:101A700063449BB2DFE701239C46E044CBE70123AC
:101A80005B429846E6E701235B429846E2E7C046A0
:101A90000902000006020000F0B5C64600B50500C8
:101AA0001F4BC35C002B36D081239B00C25A92B2DD
:101AB0001C4BC35A9BB29A4210D381239B00C05A3D
:101AC000184BEB5AC01A80B28046002825D001304E
:101AD00000F070FA071E1AD0002412E081239B0048
:101AE000C05A104BEB5AC01A80B280239B009C4610
:101AF000604480B2E8E73E192800FFF71BFF307012
:101B000001344445F7D34346FB1800221A703800CD
:101B100004BC9046F0BD0027F9E70027F7E7C04670
:101B2000090200000602000010B50248FFF79EFE01
:101B300010BDC046E800002010B50248FFF796FE31
:101B400010BDC046F402002010B502490120FFF785
:101B50006DFD10BDFFFF000030B5030034C934C374
:101B600034C934C334C934C30A681A600023836299
:101B7000C36230BD70B50400FFF792F8051E01D1B5
:101B8000280070BD78212000FEF7A9FE0121200069
:101B9000FFF72EF82000FFF711F80F220521200093
:101BA000FFF774F820212000FEF7A2FE0321200099
:101BB000FFF72BF800212000FFF73EF83822002322
:101BC0002000FEF74DFF3722002301212000FEF701
:101BD0005FFF2000FEF7AEFFD2E770B58AB00600C7
:101BE000C46A836ADD00ED18AD006519AC420FD000
:101BF0000022A2560023CB569A4201D02434F5E7A6
:101C00002022200000F0EAF9FFF7F6FC206221E034
:101C100034002834202201A800F0E0F9FFF7ECFCA2
:101C20000990B16A002917D00131CB0059188900F9
:101C3000606800F085FA00280CD06060B26AD300BA
:101C40009B189B00C018242201A900F0C7F9B36AB1
:101C50000133B3620AB070BD242000F0ABF9EAE7AB
:101C6000F8B507000D000023CB56002B33D101330C
:101C70000B70C46A836ADE00F618B600A61917E076
:101C80000023E3562B7029003800FFF7A6FF380029
:101C9000FEF734FEFF236B72FE3BAB72202229005D
:101CA0003800FEF7B4FE3800FEF744FFF8BD2434D8
:101CB000B442E8D0601C691C082200F0C0FA002879
:101CC000DED00023E3560022AA569342EFDBDBB2BC
:101CD00001332B70EBE7FFF780FFE7E710B588B023
:101CE0000400FEF7AEFE002801D108B010BD20228E
:101CF00069462000FEF7AAFE69462000FFF7B0FF04
:101D0000F3E7FEE710B51E4A1E4B9A4207D01D4B63
:101D10001B4A01E002CA02C31B498B42FAD31B4B88
:101D200001E0002204C31A4A9342FAD3194B7F22DE
:101D30009343194A9360194A90235B000221D150C2
:101D4000174B9A7B2E318A4320210A439A739A7B40
:101D50000C218A4308210A439A739A7B03218A4300
:101D600002210A439A730F4A516880230B43536040
:101D7000FFF712FC00F0FAF8FFF788F9FEE7C0461B
:101D8000BC2E000000000020780000207800002019
:101D90001C0500200000000000ED00E00070004184
:101DA00000480041004000410300064A1268002A32
:101DB00004D0044A1068C31813607047014A0249EE
:101DC0001160F6E7000500201C050020030010B597
:101DD0000800190000F0BCF810BDFFFF0022430806
:101DE0008B4274D303098B425FD3030A8B4244D3E3
:101DF000030B8B4228D3030C8B420DD3FF22090225
:101E000012BA030C8B4202D31212090265D0030BE3
:101E10008B4219D300E0090AC30B8B4201D3CB03D9
:101E2000C01A5241830B8B4201D38B03C01A52411B
:101E3000430B8B4201D34B03C01A5241030B8B421D
:101E400001D30B03C01A5241C30A8B4201D3CB0208
:101E5000C01A5241830A8B4201D38B02C01A5241ED
:101E6000430A8B4201D34B02C01A5241030A8B42F0
:101E700001D30B02C01A5241CDD2C3098B4201D308
:101E8000CB01C01A524183098B4201D38B01C01A86
:101E9000524143098B4201D34B01C01A52410309FD
:101EA0008B4201D30B01C01A5241C3088B4201D3AC
:101EB000CB00C01A524183088B4201D38B00C01A59
:101EC000524143088B4201D34B00C01A5241411A80
:101ED00000D20146524110467047FFE701B500208D
:101EE00000F006F802BDC0460029F7D076E770473B
:101EF0007047C046F0B515042D0C0F0001002E00F0
:101F0000C64684460004140C000C090C46434D439D
:101F1000604361434019340C241800B5A54203D92D
:101F20008020400280464144250C6D18614659438B
:101F30007A43300449192404000C2018891804BC81
:101F40009046F0BD10B50A22002100F035FA10BD10
:101F500010B5040004481300002804D00A00022031
:101F6000210000E000BF10BD0000000070B5002699
:101F70000C4D0D4C641BA410A64209D1002600F0A4
:101F80007FFF0A4D0A4C641BA410A64205D170BD08
:101F9000B300EB5898470136EEE7B300EB5898478B
:101FA0000136F2E78C2E00008C2E00008C2E0000F3
:101FB0009C2E000010B5034B0100186800F062F879
:101FC00010BDC0461400002010B5034B0100186876
:101FD00000F00EF810BDC04614000020002310B51C
:101FE0009A4200D110BDCC5CC4540133F8E7FFFF26
:101FF00070B50500002910D00C1F2368002B00DAF3
:10200000E418280000F01EFA1D4A1368002B05D1C1
:1020100063601460280000F01DFA70BDA34208D967
:10202000216860188342F3D118685B684118216009
:10203000EEE71A005B68002B01D0A342F9D91168C2
:102040005018A0420BD12068091850181160834223
:10205000E0D118685B68411811605360DAE7A0426C
:1020600002D90C232B60D5E721686018834203D185
:1020700018685B684118216063605460CAE7C04615
:1020800004050020F8B50323CD1C9D430835060048
:102090000C2D1FD20C25A9421ED8300000F0D2F919
:1020A00025490A681400002C1AD1244F3B68002BE4
:1020B00004D12100300000F04DF8386029003000D4
:1020C00000F048F8431C2BD10C233000336000F0A3
:1020D000C1F903E0002DDEDA0C2333600020F8BDE7
:1020E00023685B1B19D40B2B03D92360E4182560EC
:1020F00003E06368A2420ED10B60300000F0AAF941
:10210000200007220B30231D9043C21A9842E6D0CC
:102110001B1AA350E3E75360EFE722006468C2E7AD
:102120000323C41C9C43A042E1D0211A300000F0DC
:1021300011F8431CDBD1C7E7040500200805002087
:1021400010B5034B0A000100186800F08BF910BDB0
:1021500014000020002370B5064D040008002B6019
:10216000FFF722FE431C03D12B68002B00D0236015
:1021700070BDC046180500200CB430B5174B0C00DC
:102180001D689DB0002908DA8B2301202B60404296
:102190001DB030BC08BC02B0184782236A469B00C1
:1021A0009382002302900690994200D04B1E049324
:1021B000079301236A465B42D382280021AB209A11
:1021C00002A9019300F0D6F9431C01DA8B232B609E
:1021D000002CDDD00023029A1370D9E714000020F0
:1021E000F0B5050000240327094E2A5DB35C3B408F
:1021F000012B00D120320B5DF05C3840012800D16A
:102200002033D01A9A4202D10134002BEDD1F0BD17
:10221000E92C0000C9B20378002B04D08B4200D116
:1022200070470130F7E74B42594149420840F7E710
:102230000023C25C0133002AFBD1581E704730B521
:102240000500101E0BD00024013A2B5D085D83426F
:1022500004D1944202D00134002BF6D1181A30BDBB
:10226000030030B51D00002A06D00C78013A013376
:102270002C700131002CF5D100219A18934200D125
:1022800030BD19700133F9E70A7830B5002A0CD156
:1022900030BD9A4208D10123CC5C002CF8D0C55C3B
:1022A000A54201D10133F7E701300378002BF0D1CB
:1022B0001800EDE7F0B51E003D4B87B00590029287
:1022C00008009C4608220191030061461C78451CC9
:1022D000095D28000F0017401142F5D12D2C33D194
:1022E00001272C789D1C002E5DD0102E09D1302C9A
:1022F00007D120222B789343582B4FD110266C788E
:1023000002352C4B3100FB1818000393FFF7ECFD4E
:1023100000230122844618000491524221003039E2
:10232000092916D80C00A6421FDD591C09D013003C
:10233000844506D302D10499A14202DB01237043F4
:1023400020182C780135E9E72B2CCCD12C789D1C5A
:10235000C9E721004139192901D8373CE3E72100B9
:102360006139192901D8573CDDE75A1C08D1059A73
:1023700023331360029B0398002B09D107B0F0BDF3
:10238000002F00D04042029A002AF7D0002B01D043
:102390006B1E0193029B019A1A60EFE73024002E16
:1023A000AFD10836ADE7302CA3D00A26A9E7C04646
:1023B000E92C0000FFFFFF7F10B513000A000100A9
:1023C00002480068FFF776FF10BDC04614000020E9
:1023D00030B5140005001A009BB0002C05DA8B23E1
:1023E0000360012040421BB030BD822368469B0041
:1023F00083810023009104919C4200D0631E0293CC
:102400000593012369465B42CB8128001E9B00F0A7
:10241000B1F8431C01DA8B232B60002CE3D000239E
:10242000009A1370DFE7FFFF07B5009313000A005F
:10243000010002480068FFF7CBFF0EBD140000202A
:102440007047704710B50248FFF7FAFF10BDC0464D
:102450001005002010B50248FFF7F3FF10BDC0467D
:1024600010050020F8B507000D001600002905D161
:102470001100FFF707FE04002000F8BD002A03D179
:10248000FFF7B6FD3400F7E700F014FB2C00B04274
:10249000F2D231003800FFF7F5FD041EECD0290020
:1024A0003200FFF79BFD29003800FFF7A1FDE3E7AD
:1024B000F0B58E6885B007000C00039201939E4230
:1024C0003CD890238A89DB001A4234D0032509695D
:1024D00023685B1A0293636902985D43EB0F5D19F1
:1024E000019B6D1001331B18AB4200D91D00530531
:1024F00032D529003800FFF7C5FD061E09D10C238F
:102500003B6040230120A28940421343A38105B0D0
:10251000F0BD029A2169FFF761FDA389144A1A40B0
:1025200080231343A381029B2661F6182660656110
:10253000019EED1AA560019B9E4200D9019E3200CA
:102540000399206800F0A3FAA36800209B1BA360F6
:1025500023689E192660DAE72A003800FFF782FF19
:10256000061EE0D138002169FFF742FDC7E7C046EB
:102570007FFBFFFFF0B5A1B003901D008B890F001A
:1025800016001B0611D50B69002B0ED14021FFF759
:1025900079FD38603861002805D10C23039A013891
:1025A000136021B0F0BD40237B61002308AC636160
:1025B000203363761033A376079535002B78002BF4
:1025C00001D0252B47D1AB1B0593B5420CD032006F
:1025D00039000398FFF76CFF431C00D1AEE062693D
:1025E000059B9446634463612B78002B00D1A5E0E2
:1025F000012200235242626004A9543252186E1C18
:102600002360E360A3601370A3650522317854480A
:1026100000F032FA751C00281FD12268D30604D5B9
:10262000532304A95B1820211970130704D55323E1
:1026300004A95B182B21197033782A2B16D035008A
:1026400000210A20E3682A786E1C303A092A4ED904
:10265000002911D117E00135B0E7414B2268C01ABB
:102660000123834013432E002360CEE7079B191DEF
:102670001B680791002B01DB0B9304E05B42E360D6
:102680000223134323602B782E2B0AD16B782A2B3D
:1026900035D1079B02351A1D1B680792002B2BDBD7
:1026A0000993304E03223000297800F0E5F9002824
:1026B00006D04023801B83402268013513432360EA
:1026C0002978062228486E1C217600F0D5F90028CA
:1026D0003CD0264B002B25D10722079B0733934381
:1026E000083307936369049A9B18636165E7434362
:1026F000350001219B18A6E701235B42D0E70023A8
:102700000A201A000135636029786E1C30390929C6
:1027100003D9002BC5D00992C3E7424335000123FA
:102720005218F1E707AB00933A002100104B0398D1
:1027300000E000BF0490049B0133D3D1BB890D9806
:102740005B0600D42DE7012040422AE707AB009347
:102750003A002100064B039800F07CF8EAE7C046F7
:102760004C2E0000522E0000562E000000000000EB
:10277000B1240000F7B5150001938A680B690C00BD
:102780000090934200DA130022002B60433212784B
:10279000002A01D001332B6023689B0602D52B68E9
:1027A00002332B602268062317001F401A4227D0ED
:1027B000230043331B785A1E93412268920630D47B
:1027C000220001990098089E4332B047431C25D04F
:1027D000062320682A68E16800250340042B03D102
:1027E0008D1AEB43DB171D40A3682269934201DD7C
:1027F0009B1AED180027BD4220D1002010E00137C0
:10280000E3682A689B1ABB42D2DD220001230199AA
:102810000098089E1932B047431CF0D10120404275
:10282000FEBD3020E1184331087021005A1C4531AB
:102830000978A218433202331170C1E72200012344
:1028400001990098089E1A32B047431CE6D0013720
:10285000D1E7FFFFF0B58BB006920A004332079331
:10286000059004920A7E0C00109B782A06D8622AF2
:1028700008D8002A00D1C0E0582A52D0260042369B
:10288000327022E0100063381528F7D800F01AF9EA
:1028900016001F00F6FFF6FFF6FFF6FF1F00F6FF1B
:1028A000F6FFF6FFF6FFA80036009A00F6FFF6FFE7
:1028B000B900F6FF3600F6FFF6FF9E0026001A6804
:1028C0004236111D1960136833700123A7E00868B0
:1028D00019680A1D05060BD50D681A60002D03DA6C
:1028E0002D23049A6D421370614B0A27039332E043
:1028F0000D681A604106F1D52DB2EFE70D68196831
:10290000081D18602E0601D50D6803E06D06FBD585
:102910000D68ADB2564B0A2703936F2A17D10827CB
:1029200015E045310A70524A03921A68216820CA9C
:102930001A60080650D5CB0702D520231943216021
:102940001027002D03D1202322689A432260230000
:10295000002243331A706368A360002B03DB042258
:10296000216891432160002D02D1049E002B0CD0E0
:10297000049E28003900FFF7B7FA039B013E5B5C19
:1029800033702B0005009F42F3D9082F09D123682B
:10299000DB0706D563682269934202DC3023013EDF
:1029A0003370049B9B1B2361079B210000930598B8
:1029B000069B09AAFFF7DEFE431C35D101204042E9
:1029C0000BB0F0BD202209680A4322602200782162
:1029D00045321170274AA7E74806ACD5ADB2AAE741
:1029E0001A680D68101D4969186013682E0601D514
:1029F000196002E06D06FBD519800023049E236157
:102A0000D2E71A68111D196016680021300062684B
:102A100000F032F8002801D0801B606063682361F9
:102A20000023049A1370BFE72369320006990598C2
:102A3000079DA847431CC1D023689B0715D4099B59
:102A4000E0689842BCDA1800BAE722000123069930
:102A50000598079E1932B047431CAFD00135E36893
:102A6000099A9B1AAB42F0DCE9E70025F7E7C0467C
:102A70005D2E00006E2E0000C9B28218904201D176
:102A80000020704703788B42FBD00130F6E710B589
:102A9000884202D98B18984203D3002307E08B5C4D
:102AA0008354013AFBD210BDCC5CC45401339A422A
:102AB000FAD1F8E70B1F1B68181F002B01DA0B581F
:102AC000C018704703B47146490840004900095EC8
:102AD00049008E4403BC70472C2B0000D905000030
:102AE00000000000000000001800000000000000CE
:102AF00019000000010300000000000005000000B4
:102B000000000000080000000000000009000000B4
:102B10000101010101000000102C0000910F0000D4
:102B200000000000004E554C4C00FFFF65786563C7
:102B300000FFFFFF415400FF4154453000000000FA
:102B40002B435245473A20302C31000041542B434F
:102B50005245473F0000000041542B434D47463D3E
:102B60003100000041542B434D4744413D22444530
:102B70004C20414C4C2200FF41542B434D47523DC9
:102B8000256400002B434D47520000000D0A0D0A3A
:102B90004F4B00002C2200FF52494E47000000001E
:102BA000415448002B434D544900FFFF41542B43EF
:102BB0004D47533D22257322000000002B434D4713
:102BC000530000001A00FFFF436F6D6D616E6420BB
:102BD00074696D6564206F757400000075617274AE
:102BE0002D3E7265616428292072657475726E6568
:102BF00064206E756C6C00FF0A0B0C0D0E0FFFFF4E
:102C0000000102030405FFFF111213141516FFFF44
:102C1000696E666F00FFFFFF4E6F64653A0A2049D8
:102C2000443A2025640A204E616D653A2025730AD6
:102C300020547970653A2025640A204C6173742011
:102C40007365656E3A202564207365632061676F44
:102C50000A00000020536F696C206D6F69737475F2
:102C600072652073656E736F723A0A20204D6F692A
:102C700073747572653A2025640A00002054656DEE
:102C80007065726174757265202B2068756D69645A
:102C90006974792073656E736F723A0A20205465E7
:102CA0006D70657261747572653A2025640A202022
:102CB00048756D69646974793A2025640A000000DA
:102CC0002054656D70657261747572652073656EF0
:102CD000736F723A0A202054656D70657261747565
:102CE00072653A2025640A00002020202020202040
:102CF00020202828282828202020202020202020AC
:102D000020202020202020202088101010101010BB
:102D10001010101010101010100404040404040407
:102D200004040410101010101010414141414141A1
:102D30000101010101010101010101010101010183
:102D40000101010110101010101042424242424293
:102D50000202020202020202020202020202020253
:102D600002020202101010102000000000000000FB
:102D70000000000000000000000000000000000053
:102D80000000000000000000000000000000000043
:102D90000000000000000000000000000000000033
:102DA0000000000000000000000000000000000023
:102DB0000000000000000000000000000000000013
:102DC0000000000000000000000000000000000003
:102DD00000000000000000000000000000000000F3
:102DE000000000000000000000FFFFFF00000000E6
:102DF00000000000000000000000000000000000D3
:102E000000000000000000000000000000000000C2
:102E100000000000000000000000000000000000B2
:102E200000000000000000000000000000000000A2
:102E30000000000000000000000000000000000092
:102E4000000000000000000000000000232D302BD7
:102E50002000686C4C00656667454647003031329B
:102E600033343536373839414243444546003031F2
:102E7000323334353637383961626364656600FF52
:102E8000F8B5C046F8BC08BC9E467047B5000000C7
:102E90009911000045140000491B0000F8B5C04618
:102EA000F8BC08BC9E46704701B40248844601BC89
:0C2EB000604700BF010000208D00000002
:102EBC000F210139FDD10138FAD170470000000013
:102ECC00242B000018000020000000000C2E000035
:102EDC002C2E0000EC2D0000000000000000000073
:102EEC0000000000000000000000000000000000D6
:102EFC0000000000000000000000000000000000C6
:102F0C0000000000000000000000000000000000B5
:102F1C0000000000000000000000000000000000A5
:082F2C0000000000000000009D
:0400000300001D05D7
:00000001FF
