:1000000000100020B90D0000B50D0000B50D000076
:1000100000000000000000000000000000000000E0
:10002000000000000000000000000000B50D00000E
:100030000000000000000000B50D00006D08000089
:10004000B50D0000B50D0000B50D0000B50D0000A8
:10005000B50D0000B50D0000B50D0000000000005A
:10006000B50D0000850D0000950D0000B50D0000D8
:10007000B50D0000B50D0000B50D0000B50D000078
:10008000B50D0000B50D0000B50D000010B5064C13
:100090002378002B07D1054B002B02D0044800E049
:1000A00000BF0123237010BD780000200000000075
:1000B000FC1C0000044B10B5002B03D0034904487E
:1000C00000E000BF10BDC046000000007C00002022
:1000D000FC1C000010B50378002B07D0303B092B27
:1000E00001D90130F7E700F0FBFE00E0002010BD71
:1000F000F0B589B004006E4600917260320022CAE9
:1001000022C005000022A260E26023617168013212
:1001100016008E402368DB011C4FBC4663449E6082
:100120005B18403319780226B143197063689A400E
:100130002368DB0163449A6105AB9C46144A1900AD
:10014000C8CAC8C102AA6346C2CBC2C2016800299C
:1001500017D0406801314B005918890000F0B4FFF6
:1001600000280BD068602B685A00D218920002ABAE
:10017000801846CB46C02B6801332B60200009B0A5
:10018000F0BD0C2000F0E4FEEAE7C0460044004168
:10019000A41A000010B50400C068002801D000F0C7
:1001A000E1FE200010BDFFFFF8B5040017001E009F
:1001B00003690022812080001A5225481A5200202B
:1001C00082229200985401225242206900F0B2FC2F
:1001D0000D21206900F0A0FC00F03CFB050012E0BE
:1001E00081229200995A1A4A9B5AC91A89B28023CD
:1001F0009B009C46614489B2002916D100F02AFB7D
:10020000401BB0421FD2236981229200995A89B2C1
:100210000F4A9A5A92B29142E2D381229200995A9D
:100220000B4A9B5AC91A89B2E6E70A4801F05CFDFD
:10023000002F0AD02069390000F010FD0130431E64
:100240009841C0B200E00020F8BD0120FCE7C046A4
:1002500006020000A0860100F8B5CE46474680B5EC
:1002600080460F0016001D00089B99460024AC42F2
:100270000CDA4B46320039004046FFF795FF002864
:1002800005D1054801F030FD0134F0E700200CBC39
:1002900090469946F8BDC04620A10700F0B583B04E
:1002A00004000D21006900F037FC002600E0013653
:1002B000022E25DC01252A0063689A402368DB01B1
:1002C00011498C4663445A61104F380001F00CFD0F
:1002D00063689D402368DB010B4A944663449D613B
:1002E000380001F001FDFA235B000093EF3BFF3B78
:1002F000074A08492000FFF7AFFF0028D7D000E0E9
:10030000002003B0F0BDC0460044004140420F0051
:10031000281B0000CC1A000070B582B00500FFF762
:10032000BDFF041E02D1200002B070BD144C23009A
:10033000002214492800FFF737FF00941923124ABE
:1003400012492800FFF788FF041EECD00C4E330042
:1003500000220F492800FFF727FF330000220D4934
:100360002800FFF721FF2B690022812189005A52C2
:1003700009495A520021822292009954D3E7C0467B
:10038000B80B0000D01A0000D81A0000E41A0000D0
:10039000F01A0000FC1A000006020000F0B5C64684
:1003A00000B582B006000F0001922021380000F055
:1003B000DBFE8046002804D00023037001339C46F6
:1003C000E044F468B3685D00ED18AD006519AC4217
:1003D0000CD03900206800F0D5FE002801D00C3484
:1003E000F5E76368424601993000984702B004BCC3
:1003F0009046F0BDF0B591B004000B00264A4021B4
:10040000684600F07DFE254B254A69462000FFF72F
:10041000CBFE002801D111B0F0BD206900F06AFCCC
:10042000071EF8D01E4900F0B7FE05000A2100F0B3
:100430009BFE002820D0461C1A49300000F0ACFE7C
:1004400000281DD0002303701749280000F0A4FEE7
:10045000002819D0851C2221280000F085FE0028E4
:1004600016D0002303702A0031002000FFF796FF0A
:10047000380000F077FDCEE7380000F073FDCAE7E2
:10048000380000F06FFDC6E7380000F06BFDC2E7F2
:10049000380000F067FDBEE7101B0000B80B00003D
:1004A0001C1B0000241B00002C1B000070B5040066
:1004B000026981239B00D15A89B2204BD35A9BB247
:1004C000994209D381239B00D35A1C49525A9B1A43
:1004D0009BB2002B0DD170BD81239B00D35A1749CD
:1004E000525A9B1A9BB280229200944663449BB25C
:1004F000EFE7134801F0F8FB206900F0FBFB051E55
:10050000E9D0104900F048FE002809D00E4B002227
:100510000E492000FFF748FE280000F023FDDAE72F
:100520000B49280000F038FE0028F5D0FFF7D2FD77
:1005300001002000FFF75EFFEEE7C0460602000064
:10054000A0860100301B0000B80B0000381B000023
:100550003C1B000030B591B004000B0015000E4AA2
:100560004021684600F0CCFD0C4B0022694620007B
:10057000FFF71AFE002801D111B030BD012252420E
:100580002900206900F0D6FA054B064A06492000EA
:10059000FFF70AFEF0E7C046441B0000B80B00005E
:1005A00060EA0000541B00005C1B000070B50400F2
:1005B0000D0011000D4B0022FFF7F6FD002805D1BC
:1005C0000B4A29002000FFF7C5FF70BD206900F02D
:1005D00091FB021E04D029002000FFF7BBFFF4E7C7
:1005E000044A29002000FFF7B5FFEEE7B80B000032
:1005F000601B0000741B000010B582B0012801D000
:1006000002B010BD074B9942FAD1074C074B0021AD
:1006100002222000FFF76CFD054A0649200000F089
:100620002FFCEDE7FFFF000094000020BC0200203B
:100630000C0000209501000030B587B001A9124BD5
:100640000A0031CB31C211CB11C2104A104800F060
:1006500047F9104B10229A6044215A5C02208243D1
:100660005A540D48FFF758FE002806D1094B1022B6
:10067000DA610A4801F038FBF8E70748FFF716FF90
:10068000044B1022DA61F8E7B01A00002BF60000E4
:10069000BC0200200044004194000020400D0300F3
:1006A00010B502490120FFF7A7FF10BDFFFF0000B2
:1006B000484A116AC0239B000B43136246494A68AB
:1006C0001E239A431C3B13434B60444A9169082301
:1006D0000B439361424A137801210B431370404B43
:1006E0001B78DB0703D53E4B5B78DB09F7D1394B31
:1006F000196A802291431962394B3A4A9A603A4A00
:100700005A60374B5B78DB09FBD1354B8622D2012F
:100710005A80334B5B78DB09FBD12E4A938C8021C6
:100720008B4393842B4BDB68DB06FBD5294BDA6AC2
:10073000120C1204C02109011143D962DA6A920134
:1007400092098021C9041143D962D96A274A11400C
:10075000802252020A43DA621E4BDB68DB06FBD5BD
:100760001C4A938C812189000B439384194BDB68CD
:10077000DB06FBD5174B996880220A439A6099687B
:1007800040220A439A60996810220A439A609A8C20
:1007900002210A439A840F4BDB68DB06FBD50D4B25
:1007A0009B681B0603D40B4B9B685B06F7D5094B74
:1007B0009B68DB06FBD50A4B00229A60084B5B78EE
:1007C000DB09FBD1064B0A4A5A60054B5B78DB0913
:1007D000FBD1704700080040004000410004004089
:1007E000000C00400340000003060100FFFF00FC76
:1007F0000007030010B5FFF75BFF094B0020002145
:1008000018605960074B00221A60074A5A609A60C4
:1008100007221A60054B802212061A6010BDC046DE
:10082000A800002010E000E0FFFFFF0000E100E072
:10083000054B9B68054AD01A0021054B1A685B6876
:10084000801859417047C04610E000E0FFFFFF00EC
:10085000A800002010B5FFF7EBFF034A002300F0CB
:1008600017FBC80810BDC04634EC0A0030B5054976
:100870000A684B6880246404002512196B410A60E1
:100880004B6030BDA800002070B5012800D070BDBD
:100890000C4B9942FBD10C4A8125AD0000235353E8
:1008A0000A4C135382208000135409495354094EB3
:1008B0001660094A5353135313545354074B136090
:1008C000E5E7C046FFFF0000B00000200602000080
:1008D0000902000000080042BC020020000C004297
:1008E000F0B5CE46474680B591466C4B04689C42B5
:1008F00000D19DE06A4C236A04252B432362694B97
:10090000694C5C808B7C002B00D19AE003260C683C
:100910004D68EB0700D496E0EB0F5B195B109C462B
:100920000F273E40E301614A90464344634430331D
:100930001A783601174037431F70E3015B4CA44619
:1009400063445B1940331C7801252C431C70CB7C1D
:10095000002B00D186E003268C68CD68EB0700D41D
:1009600082E0EB0F5B195B109C460F273E40E301D2
:100970004E4A90464344634430331A783601174058
:1009800037431F70E301494CA44663445B1940336D
:100990001C7801252C431C70046823680225AB4396
:1009A000236004682368013D2B43236003681C68AF
:1009B000E407FBD41C681C25AC43183D2C431C6089
:1009C000046825688023DB052B43236006680D7CC3
:1009D00003231D4034682D04354F3C402C433460C4
:1009E00004684D7C21682B401B05324D29400B4388
:1009F000236003684A469A810368C02292025A60C3
:100A00000268937D04210B43937503682A4A93423D
:100A100039D0224A93423BD00268136802210B432B
:100A20001360264B0122C2540CBC90469946F0BD7F
:100A30001B4C236A08252B4323621A4B204C5C80F5
:100A400060E7022663E7EB0F5B195F10E301174ACB
:100A500094466344DB1930331F780F2297433E439B
:100A60001E706AE7022677E7EB0F5B195F10E30160
:100A70000E4A94466344DB1930331F780F229743A4
:100A80003E431E707EE70F4B802292001A60C3E740
:100A90000C4B8022D2001A60BEE7C046000C004218
:100AA00000040040000C00400E40000000440041E3
:100AB000FFFFFCFFFFFFCFFF00080042090200001C
:100AC0000F40000000E100E0114BC35C002B1BD085
:100AD00082239B00C35C002B17D10368198D8122F0
:100AE0009200835AC9B2C3181971835A0133DB05C6
:100AF000DB0D8352074BC35A825A9B1A5A42534109
:100B0000DBB2822292008354704703681B8DFBE79F
:100B10000902000006020000054BC35C002B06D052
:100B200089B20368198503681B7EDB07FBD5704714
:100B30000902000070B506001400094BC35C002BCD
:100B40000AD170BD2300013C002BFAD04D1C09785E
:100B50003000FFF7E1FF2900631CF3D10B78F3E7C6
:100B60000902000082239B00C35C002B0AD1812371
:100B70009B00C25A92B2054BC35A9BB29A4203D011
:100B8000002000E0002070470120FCE70602000082
:100B900010B504000C4BC35C002B13D02000FFF7F2
:100BA000E1FF0028FAD1094AA35AE3181879C0B224
:100BB00082239B000021E154A35A0133DB05DB0DA6
:100BC000A35210BD0020FCE709020000060200004D
:100BD00070B504000D001F4BC35C002B01D1002039
:100BE00070BDFFF7BFFF00282FD181239B00E25A81
:100BF00092B2194BE35A9BB29A4213D381239B00C2
:100C0000E35A154AA25A9B1A9BB2AB421FDD6B1CDA
:100C100015D0114BE05A4019C005C00D2418207999
:100C2000C0B2DDE781239B00E35A0B4AA25A9B1A0C
:100C30009BB280229200944663449BB2E5E7064B48
:100C4000E05A24182079C0B2CAE70020C8E7002083
:100C5000C6E7C0460902000006020000F0B5C6461D
:100C600000B507000D00214BC35C002B35D00023DD
:100C7000984681239B00FA5A92B21D4BFB5A9BB2B5
:100C80009A4219D381239B00FB5A194ABA5A9B1ADC
:100C90009BB2434525DD00242E5D434619193800DB
:100CA000FFF796FF864214D101342B5D002BF3D160
:100CB000404604BC9046F0BD81239B00FB5A0C4A81
:100CC000BA5A9B1A9BB280229200944663449BB20C
:100CD000DFE701239C46E044CBE701235B429846D3
:100CE000E6E701235B429846E2E7C04609020000BE
:100CF00006020000F0B5C64600B505001F4BC35CF8
:100D0000002B36D081239B00C25A92B21C4BC35A8F
:100D10009BB29A4210D381239B00C05A184BEB5AC6
:100D2000C01A80B28046002825D0013000F010F9AA
:100D3000071E1AD0002412E081239B00C05A104BDA
:100D4000EB5AC01A80B280239B009C46604480B25C
:100D5000E8E73E192800FFF71BFF307001344445D7
:100D6000F7D34346FB1800221A70380004BC9046A3
:100D7000F0BD0027F9E70027F7E7C04609020000A9
:100D80000602000010B50248FFF79EFE10BDC046E7
:100D9000B000002010B50248FFF796FE10BDC04617
:100DA000BC02002010B502490120FFF76DFD10BD07
:100DB000FFFF0000FEE7FFFF10B51E4A1E4B9A42E0
:100DC00007D01D4B1B4A01E002CA02C31B498B42DC
:100DD000FAD31B4B01E0002204C31A4A9342FAD310
:100DE000194B7F229343194A9360194A90235B0061
:100DF0000221D150174B9A7B2E318A4320210A437E
:100E00009A739A7B0C218A4308210A439A739A7B2E
:100E100003218A4302210A439A730F4A51688023AF
:100E20000B435360FFF7E6FC00F06EF8FFF704FC9D
:100E3000FEE7C046FC1C00000000002074000020FB
:100E400078000020E40400200000000000ED00E035
:100E50000070004100480041004000410300064A84
:100E60001268002A04D0044A1068C318136070473F
:100E7000014A02491160F6E7C8040020E40400209A
:100E8000030010B50800190000F030F810BDFFFF96
:100E9000F0B515042D0C0F0001002E00C646844647
:100EA0000004140C000C090C46434D43604361439D
:100EB0004019340C241800B5A54203D98020400203
:100EC00080464144250C6D18614659437A433004ED
:100ED00049192404000C2018891804BC9046F0BD60
:100EE00010B50A22002100F0EFF910BD10B5040082
:100EF00004481300002804D00A000220210000E06A
:100F000000BF10BD0000000070B500260C4D0D4C58
:100F1000641BA410A64209D1002600F0D3FE0A4D9E
:100F20000A4C641BA410A64205D170BDB300EB5857
:100F300098470136EEE7B300EB5898470136F2E7E1
:100F4000D01C0000D01C0000D01C0000DC1C0000E5
:100F500010B5034B0100186800F058F810BDC046EA
:100F60001000002010B5034B0100186800F004F8D1
:100F700010BDC0461000002070B50500002910D03B
:100F80000C1F2368002B00DAE418280000F0A8F9F1
:100F90001D4A1368002B05D163601460280000F01F
:100FA000A7F970BDA34208D9216860188342F3D124
:100FB00018685B6841182160EEE71A005B68002B37
:100FC00001D0A342F9D911685018A0420BD1206872
:100FD0000918501811608342E0D118685B68411805
:100FE00011605360DAE7A04202D90C232B60D5E7E9
:100FF00021686018834203D118685B68411821603A
:1010000063605460CAE7C046CC040020F8B50323EF
:10101000CD1C9D43083506000C2D1FD20C25A9427E
:101020001ED8300000F05CF925490A681400002C35
:101030001AD1244F3B68002B04D12100300000F06E
:101040004DF838602900300000F048F8431C2BD1DF
:101050000C233000336000F04BF903E0002DDEDAA2
:101060000C2333600020F8BD23685B1B19D40B2BC5
:1010700003D92360E418256003E06368A2420ED11F
:101080000B60300000F034F9200007220B30231DE4
:101090009043C21A9842E6D01B1AA350E3E753606C
:1010A000EFE722006468C2E70323C41C9C43A0420C
:1010B000E1D0211A300000F011F8431CDBD1C7E762
:1010C000CC040020D004002010B5034B0A0001001E
:1010D000186800F015F910BD10000020002370B54D
:1010E000064D040008002B60FFF7B8FE431C03D137
:1010F0002B68002B00D0236070BDC046D4040020B4
:101100000CB430B5174B0C001D689DB0002908DAEF
:101110008B2301202B6040421DB030BC08BC02B0C4
:10112000184782236A469B00938200230290069010
:10113000994200D04B1E0493079301236A465B42F9
:10114000D382280021AB209A02A9019300F060F914
:10115000431C01DA8B232B60002CDDD00023029A84
:101160001370D9E710000020C9B20378002B04D017
:101170008B4200D170470130F7E74B425941494259
:101180000840F7E702780B78002A03D001300131DC
:101190009A42F7D0D01A70470A7830B5002A0CD19D
:1011A00030BD9A4208D10123CC5C002CF8D0C55C3C
:1011B000A54201D10133F7E701300378002BF0D1CC
:1011C0001800EDE7F0B51E003D4B87B00590029288
:1011D00008009C4608220191030061461C78451CCA
:1011E000095D28000F0017401142F5D12D2C33D195
:1011F00001272C789D1C002E5DD0102E09D1302C9B
:1012000007D120222B789343582B4FD110266C788E
:1012100002352C4B3100FB181800039300F03CFC06
:1012200000230122844618000491524221003039E3
:10123000092916D80C00A6421FDD591C09D013003D
:10124000844506D302D10499A14202DB01237043F5
:1012500020182C780135E9E72B2CCCD12C789D1C5B
:10126000C9E721004139192901D8373CE3E72100BA
:101270006139192901D8573CDDE75A1C08D1059A74
:1012800023331360029B0398002B09D107B0F0BDF4
:10129000002F00D04042029A002AF7D0002B01D044
:1012A0006B1E0193029B019A1A60EFE73024002E17
:1012B000AFD10836ADE7302CA3D00A26A9E7C04647
:1012C000901B0000FFFFFF7F10B513000A00010014
:1012D00002480068FFF776FF10BDC04610000020EE
:1012E00010B5024800F016FB10BDC046DC0400201B
:1012F00010B5024800F00FFB10BDC046DC04002012
:10130000F8B507000D001600002905D11100FFF700
:101310007DFE04002000F8BD002A03D1FFF72CFE5B
:101320003400F7E700F01FFB2C00B042F2D231008E
:101330003800FFF76BFE041EECD02900320000F0ED
:10134000F6FA29003800FFF717FEE3E7F0B58E68DC
:1013500085B007000C00039201939E423CD8902375
:101360008A89DB001A4234D00325096923685B1A95
:101370000293636902985D43EB0F5D19019B6D1049
:1013800001331B18AB4200D91D00530532D529008B
:101390003800FFF73BFE061E09D10C233B604023BB
:1013A0000120A28940421343A38105B0F0BD029AF7
:1013B000216900F0BCFAA389144A1A408023134320
:1013C000A381029B2661F61826606561019EED1AD5
:1013D000A560019B9E4200D9019E320003992068BE
:1013E00000F0AEFAA36800209B1BA36023689E193F
:1013F0002660DAE72A003800FFF782FF061EE0D1F8
:1014000038002169FFF7B8FDC7E7C0467FFBFFFF43
:10141000F0B5A1B003901D008B890F0016001B06CC
:1014200011D50B69002B0ED14021FFF7EFFD38607D
:101430003861002805D10C23039A0138136021B0CC
:10144000F0BD40237B61002308AC636120336376E9
:101450001033A376079535002B78002B01D0252B70
:1014600047D1AB1B0593B5420CD03200390003982D
:10147000FFF76CFF431C00D1AEE06269059B944608
:10148000634463612B78002B00D1A5E00122002387
:101490005242626004A9543252186E1C2360E36009
:1014A000A3601370A36505223178544800F034FA24
:1014B000751C00281FD12268D30604D5532304A924
:1014C0005B1820211970130704D5532304A95B1856
:1014D0002B21197033782A2B16D0350000210A20D1
:1014E000E3682A786E1C303A092A4ED9002911D1B6
:1014F00017E00135B0E7414B2268C01A0123834051
:1015000013432E002360CEE7079B191D1B6807912C
:10151000002B01DB0B9304E05B42E36002231343E7
:1015200023602B782E2B0AD16B782A2B35D1079B81
:1015300002351A1D1B680792002B2BDB0993304ED6
:1015400003223000297800F0E7F9002806D0402374
:10155000801B8340226801351343236029780622CB
:1015600028486E1C217600F0D7F900283CD0264B85
:10157000002B25D10722079B07339343083307939A
:101580006369049A9B18636165E743433500012151
:101590009B18A6E701235B42D0E700230A201A002C
:1015A0000135636029786E1C3039092903D9002B75
:1015B000C5D00992C3E74243350001235218F1E731
:1015C00007AB00933A002100104B039800E000BFE6
:1015D0000490049B0133D3D1BB890D985B0600D4E2
:1015E0002DE7012040422AE707AB00933A00210093
:1015F000064B039800F07CF8EAE7C046901C000018
:10160000961C00009A1C0000000000004D13000012
:10161000F7B5150001938A680B690C00009093429E
:1016200000DA130022002B6043321278002A01D026
:1016300001332B6023689B0602D52B6802332B6095
:101640002268062317001F401A4227D02300433385
:101650001B785A1E93412268920630D422000199C9
:101660000098089E4332B047431C25D006232068CB
:101670002A68E16800250340042B03D18D1AEB434F
:10168000DB171D40A3682269934201DD9B1AED1808
:101690000027BD4220D1002010E00137E3682A680E
:1016A0009B1ABB42D2DD2200012301990098089EBB
:1016B0001932B047431CF0D101204042FEBD30201A
:1016C000E1184331087021005A1C45310978A218ED
:1016D000433202331170C1E72200012301990098BF
:1016E000089E1A32B047431CE6D00137D1E7FFFF0E
:1016F000F0B58BB006920A0043320793059004922E
:101700000A7E0C00109B782A06D8622A08D8002A84
:1017100000D1C0E0582A52D026004236327022E072
:10172000100063381528F7D800F026F916001F00BE
:10173000F6FFF6FFF6FFF6FF1F00F6FFF6FFF6FFD7
:10174000F6FFA80036009A00F6FFF6FFB900F6FF94
:101750003600F6FFF6FF9E0026001A684236111D7D
:101760001960136833700123A7E0086819680A1D1F
:1017700005060BD50D681A60002D03DA2D23049A97
:101780006D421370614B0A27039332E00D681A60B3
:101790004106F1D52DB2EFE70D681968081D1860F4
:1017A0002E0601D50D6803E06D06FBD50D68ADB2C0
:1017B000564B0A2703936F2A17D1082715E04531A6
:1017C0000A70524A03921A68216820CA1A600806F1
:1017D00050D5CB0702D52023194321601027002DB7
:1017E00003D1202322689A4322602300002243333E
:1017F0001A706368A360002B03DB04222168914305
:101800002160002D02D1049E002B0CD0049E2800E4
:10181000390000F041F9039B013E5B5C33702B0003
:1018200005009F42F3D9082F09D12368DB0706D5AD
:1018300063682269934202DC3023013E3370049BCB
:101840009B1B2361079B210000930598069B09AA17
:10185000FFF7DEFE431C35D1012040420BB0F0BD46
:10186000202209680A432260220078214532117043
:10187000274AA7E74806ACD5ADB2AAE71A680D68B3
:10188000101D4969186013682E0601D5196002E021
:101890006D06FBD519800023049E2361D2E71A68E8
:1018A000111D1960166800213000626800F034F8DC
:1018B000002801D0801B6060636823610023049AC4
:1018C0001370BFE72369320006990598079DA84762
:1018D000431CC1D023689B0715D4099BE06898423C
:1018E000BCDA1800BAE72200012306990598079E82
:1018F0001932B047431CAFD00135E368099A9B1AEF
:10190000AB42F0DCE9E70025F7E7C046A11C000088
:10191000B21C000070477047C9B28218904201D1D2
:101920000020704703788B42FBD00130F6E700239C
:1019300010B59A4200D110BDCC5CC4540133F8E715
:1019400010B5884202D98B18984203D3002307E0D0
:101950008B5C8354013AFBD210BDCC5CC454013380
:101960009A42FAD1F8E70B1F1B68181F002B01DA07
:101970000B58C0187047FFFF03B471464908400078
:101980004900095E49008E4403BC704700224308A9
:101990008B4274D303098B425FD3030A8B4244D337
:1019A000030B8B4228D3030C8B420DD3FF22090279
:1019B00012BA030C8B4202D31212090265D0030B38
:1019C0008B4219D300E0090AC30B8B4201D3CB032E
:1019D000C01A5241830B8B4201D38B03C01A524170
:1019E000430B8B4201D34B03C01A5241030B8B4272
:1019F00001D30B03C01A5241C30A8B4201D3CB025D
:101A0000C01A5241830A8B4201D38B02C01A524141
:101A1000430A8B4201D34B02C01A5241030A8B4244
:101A200001D30B02C01A5241CDD2C3098B4201D35C
:101A3000CB01C01A524183098B4201D38B01C01ADA
:101A4000524143098B4201D34B01C01A5241030951
:101A50008B4201D30B01C01A5241C3088B4201D300
:101A6000CB00C01A524183088B4201D38B00C01AAD
:101A7000524143088B4201D34B00C01A5241411AD4
:101A800000D20146524110467047FFE701B50020E1
:101A900000F006F802BDC0460029F7D076E770478F
:101AA0007047C046C41A0000AD05000000000000E9
:101AB00000000000180000000000000019000000F5
:101AC000010300006578656300FFFFFF415400FFDC
:101AD00041544530000000002B435245473A203026
:101AE0002C31000041542B435245473F0000000079
:101AF00041542B434D47463D3100000041542B4398
:101B00004D4744413D2244454C20414C4C2200FF6E
:101B100041542B434D47523D256400002B434D4714
:101B2000520000000D0A0D0A4F4B00002C2200FF4E
:101B300052494E4700000000415448002B434D5489
:101B40004900FFFF41542B434D47533D222573224B
:101B5000000000002B434D47530000001A00FFFF18
:101B6000436F6D6D616E642074696D6564206F757F
:101B700074000000756172742D3E726561642829DD
:101B80002072657475726E6564206E756C6C0000F1
:101B9000202020202020202020282828282820201D
:101BA0002020202020202020202020202020202035
:101BB00088101010101010101010101010101010AD
:101BC000040404040404040404041010101010108D
:101BD0001041414141414101010101010101010166
:101BE000010101010101010101010110101010109A
:101BF0001042424242424202020202020202020237
:101C0000020202020202020202020210101010205E
:101C100000000000000000000000000000000000C4
:101C200000000000000000000000000000000000B4
:101C300000000000000000000000000000000000A4
:101C40000000000000000000000000000000000094
:101C50000000000000000000000000000000000084
:101C60000000000000000000000000000000000074
:101C70000000000000000000000000000000000064
:101C80000000000000000000000000000000000054
:101C9000232D302B2000686C4C0065666745464755
:101CA00000303132333435363738394142434445D8
:101CB0004600303132333435363738396162636447
:101CC000656600FFF8B5C046F8BC08BC9E46704784
:101CD000B5000000A1060000A50D0000F8B5C04643
:101CE000F8BC08BC9E46704701B40248844601BC5B
:0C1CF000604700BF010000208D000000D4
:101CFC000F210139FDD10138FAD1704700000000E5
:101D0C001400002000000000000000000000000093
:101D1C0000000000000000000000000000000000B7
:101D2C0000000000000000000000000000000000A7
:101D3C000000000000000000000000000000000097
:101D4C000000000000000000000000000000000087
:101D5C000000000000000000000000000000000077
:041D6C000000000073
:0400000300000DB933
:00000001FF
