:1000000010B5064C2378002B07D1054B002B02D0EE
:10001000044800E000BF0123237010BDE800002069
:100020000000000054360000044B10B5002B03D034
:100030000349044800E000BF10BDC04600000000B6
:10004000EC000020543600000A4A10B55368D4680A
:100050009168A34202D11269914207D001228A40DD
:100060000549DB015B18002801D09A6110BD5A6177
:10007000FCE7C0460801002000440041064A10B5D4
:100080001169D36801228A400449DB015B185A6177
:1000900003F0CEFA10BDC046080100200044004124
:1000A000064A10B51169D36801228A400449DB0170
:1000B0005B189A6103F0BCFA10BDC046080100202D
:1000C0000044004130B50F4A0300825C101E18D076
:1000D000812580240C49AD00A4005A5D002A03D17B
:1000E000185B5A5A9042F8D05A5A002492B2985C3F
:1000F000812292009C545A5AC0B20132D205D20DCC
:100100005A5230BD0502000002020000064BC35CDB
:10011000002B08D082239B00C25889B21185C25897
:10012000137EDB07FCD570470502000070B5074B56
:100130000500C35C0C00002B07D02178002904D0F7
:1001400028000134FFF7E2FFF7E770BD0502000069
:10015000114B10B5C35C002B1BD08122822392006F
:10016000815C9B00C358002914D1802189001C8D1B
:10017000435AE4B29BB2C454435A0133DB05DB0D4E
:100180004352064BC35A415A5B1A59424B41DBB2A8
:10019000835410BD1B8DFCE7050200000202000025
:1001A0000021084B70B59C68074D084B281B9A6BC3
:1001B000DB6B801859410023054A02F089FEC8080C
:1001C00070BDC04610E000E0FFFFFF000801002006
:1001D00034EC0A0002680300FF20002A09D0107ED8
:1001E000C007FCD591621B681A7E5207FCD5986A3D
:1001F000C0B2704770B50400FFF740FF064D210004
:100200002868FFF7E7FFFF212868FFF7E3FF0400F6
:10021000FFF746FF200070BD08010020F8B506007A
:100220000C001500FFF72AFF1F210A4F0E40013175
:1002300031433868FFF7CEFF06006519AC4205D0A0
:1002400021783868FFF7C6FF0134F7E7FFF728FF8A
:100250003000F8BD0801002070B50D000400FFF764
:100260000DFF1F21074E0C40013130682143FFF77D
:10027000B1FF040029003068FFF7ACFFFFF710FF63
:10028000200070BD08010020002010B5FFF7B2FF6C
:100290000221030008400B4205D11943C9B2FFF700
:1002A000DBFF03F0C5F910BD70B505000620FFF7B0
:1002B000A1FFD724FA220A4B0440022D03D12022A9
:1002C0001443A332FF3221001A620620FFF7C4FF55
:1002D0000620FFF78FFF201A44426041C0B270BD74
:1002E0000801002010B50400FFF7C8FE044B2100F0
:1002F0001868FFF76FFF0400FFF7D2FE200010BD63
:100300000801002010B5E120FFF7ECFF10BD002030
:1003100010B5FFF799FE03F08BF91D20FFF76AFF78
:10032000830703D503F084F9FFF7ECFF0020FFF704
:1003300061FF0124A043C1B20020FFF78DFF02201E
:10034000FFF758FF0443E1B20220FFF785FF10BD1D
:1003500010B5FFF799FF0020FFF74CFF0124204361
:10036000C1B20020FFF778FF70210720FFF774FF6C
:100370002000FFF769FE0D494B7E002B0CD08A7FD1
:100380000A201931FFF74AFF1D20FFF733FF8307CB
:1003900001D5FFF7B7FF10BD0220FFF72BFFA043E9
:1003A000C1B20220FFF758FFEEE7C0460801002067
:1003B000F8B5254E0400F37D1D1C202B00D9202507
:1003C0000027327EEDB2BA4201D15F1BFFB2FFF7C8
:1003D00055FEA0213068FFF7FDFE6519A54205D046
:1003E00021783068FFF7F6FE0134F7E7013FFFB2EE
:1003F000FF2F04D000213068FFF7ECFEF6E7FFF78F
:100400004FFE0120FFF720FEFFF7CAFE3027050050
:10041000FF20FFF767FF384208D1FFF7C1FE401BFE
:100420005F28F5D90123F3770020F8BD0020FFF7FE
:100430000BFE70210720FFF70FFF03000120DB06F2
:10044000F3D5FFF75FFFEFE708010020030030B5A9
:1004500005CB0F25D30F9B180C4C5B10C0011B184C
:1004600029401B19D4070CD51C78090125402943C4
:100470001970074B1218D218012311780B4313700F
:1004800030BD1C78AC432143F2E7C0463044004104
:1004900040440041030002001968083200209142E4
:1004A00005D1D888024B1840431E9841C0B270470E
:1004B000E07F0000802310B5084A9B00C45A815A8F
:1004C000C35A8C4203D3805A181A80B210BD8021BF
:1004D000825A89005818801AF7E7C04602020000C5
:1004E000F0B585B0009280221E00002305008068D0
:1004F000314C92008352043203538354FFF716FEAB
:100500000D21A868FFF702FEFFF74AFE07000194DD
:10051000A868FFF7CFFF041E06D1FFF741FEC01BFE
:10052000B042F5D3200026E003F082F8009B0120C2
:10053000002B20D0214BAD68EA5C0393002A38D011
:1005400000242800FFF7B6FFA04232DD0026009B02
:100550009B5D0293039BEB5C002B0ED10023029A60
:100560009A4224D1009B01369B5D002BEFD10134D0
:10057000601E8441E0B205B0F0BD81239B00EB5CBE
:10058000002B06D180239B00EA5A019BEB5A9A422A
:10059000E4D02800A719FFF78DFF8742DEDA019B20
:1005A000EB5ADF19FF05FF0DEB5DDBB2D7E7013436
:1005B000C7E701246442DAE70202000005020000F6
:1005C000F7B50E0017000025009001933A003100A6
:1005D000089B0098FFF784FF041E05D103F028F85C
:1005E000019B0135AB42F1D12000FEBD73B5040083
:1005F0000E4E002233000E49FFF772FF3300002237
:100600000C492000FFF76CFF192320000A4A0B4910
:100610000096FFF7D5FF051E05D10200330020002C
:100620000749FFF75DFF280076BDC046B80B000004
:10063000D02F0000EE2F0000FB2F0000073000003D
:100640001430000010B50400406B002801D001F008
:1006500099FEE06A002801D001F094FE200010BD50
:1006600010B5064C606B002804D0236B002B01D022
:1006700001F088FE00236363236310BD080100209E
:1006800010B504000069002801D001F07BFE2000B5
:1006900010BDC37910B504007F2B06D9FFF7FAFE11
:1006A000002802D1206801F06DFE200010BD4368D3
:1006B00010B5DB020400DB0A062B16D8C3797F2BAA
:1006C00006D9FFF7E7FE002802D1206801F05AFEA4
:1006D000E3885B049A0D072A12D9230008332360AC
:1006E00063685B0D5B05134363600722094920685B
:1006F00001F028FF8023E2795B421343E37110BDD0
:10070000072001F035FE636807225B0D20605B0562
:10071000E9E7C04621300000F7B50F4B0500C35C88
:10072000002B02D100242000FEBDFFF7C3FE071EF0
:10073000F8D0013001F01CFE041EF3D00600C319EE
:1007400001932800FFF7BEFC019B307001369E42EA
:10075000F7D10023E355E6E705020000242201005B
:1007600070B5204D8AB02B6B5A436B6B9A181C00E6
:100770009A420FD000260020A657085624338642FE
:10078000F5D12022200001F0DDFEFFF709FD2062F7
:100790000AB070BD01AC2022200001F0D3FEFFF7AB
:1007A000FFFC296B0600002918D02423013159438E
:1007B000686B01F0DFFE0028EAD024232A6B68630F
:1007C0005343C018020009960BCC0BC20BCC0BC2D2
:1007D0000BCC0BC22B6B01332B63D9E7242001F028
:1007E000C7FDE8E70801002070B50D0001680400AE
:1007F000002911D00C2301315943406801F0BAFEA1
:10080000002808D00C22236860605A430133801806
:1008100046CD46C0236070BD0C2001F0A9FDEFE776
:10082000F0B517208DB0FFF7E5FC012302001A4058
:100830000192184200D0BDE05F4CE37D1E1C202BCE
:1008400000D92026227EF6B2002A02D19B1BDBB201
:100850000193FFF713FC04AF61212068FFF7BAFC96
:100860003D00013EF6B2FF2E06D0FF212068FFF7C3
:10087000B1FC38700137F4E7019B013BDBB2019317
:10088000FF2B04D0FF212068FFF7A4FCF4E7FFF75B
:1008900007FC70210720FFF7DFFC00228023AA5607
:1008A000DB001343D11702930391A27F02A90A2010
:1008B000FFF7B4FCA27F02A91020FFF7AFFC1120C4
:1008C000E17DFFF7C9FC0023EB56002B63D1226BBF
:1008D00001332B7023335343626B08271600D31860
:1008E0000193019BB3420CD0092302A95B181900A4
:1008F0003A00701C01F0BDFE0023F356002842D1DF
:100900002B702800FFF72AFFFFF701FDFF232800C7
:100910006B72FE3BAB72FFF74BFDFFF719FD002634
:10092000A36AB34243D9E36A7701DA190192DA572D
:100930000023EB569A4224D1FFF7E9FC0198FFF718
:1009400037FD00281BD0A26A002A17D0E36AD81905
:10095000834213D852019B1898420FD201007F1195
:10096000203AD21B203101F0EDFDA36A5F1EA76281
:10097000002F14D1E06A01F005FDE762013EFFF7A8
:10098000E7FC0136CCE70022AA569A4201DC01338B
:100990002B702436A5E72800FFF7E0FEBFE7E06AEA
:1009A000790101F0E7FD0028E8D0E062E6E7E22007
:1009B000FFF798FC0DB0F0BD08010020F8B5C48821
:1009C000050064040F00A40D8C4221DD06000836EA
:1009D000621E3000296801F05DFE00223319013BE0
:1009E0001A70EB797F2B07D92800FFF753FD0028F9
:1009F00002D1286801F0C6FC8023E4021B06E40A49
:100A00006A681C43054B2E6013401C436C60F8BDA4
:100A1000080001F0ADFC3C000600D9E70000E07FD3
:100A2000F8B52E4D2E4C280022002E4B2E4940307A
:100A3000FFF756FD00280CD0A86CFFF76DFE061ED0
:100A400007D0210001F03AFE051E03D1300001F06D
:100A500099FCF8BD083001F064FB244C8206236940
:100A60003F27980180091043206128000B3001F0D6
:100A700058FB0F22236910401D4A80051340034391
:100A8000280023610E3001F04CFB1F222369104027
:100A9000184A40041340034328002361113001F039
:100AA00040FB1F2223691040134A000313400343F5
:100AB00028002361143001F034FB23690F4A3840C9
:100AC00080011340034328002361173001F029FB04
:100AD00023693840BB4303432361B7E70801002083
:100AE00028300000B80B0000303000000014004037
:100AF000FFFF3FFCFFFFC1FFFF0FFEFF3FF0FFFFC7
:100B000010B5040090B00B00144A4021684601F073
:100B10003BFD69462000124B124AFFF7E1FC00281A
:100B200002D1002010B010BDA068FFF7C3FC02285E
:100B3000F7D9A068FFF7C6FAA068FFF7C3FAA06864
:100B4000FFF7C0FA80210022A36889005A520649A3
:100B50005A5202315A54C046E4E7C04639300000C8
:100B6000B80B0000E93300000202000030B50400B9
:100B700091B00B0015004021104A684601F004FDB9
:100B80000022694620000E4BFFF7AAFC002812D075
:100B90002900A068FFF7CAFA0A4B0B4A0B4920004C
:100BA000FFF79EFC80210022A36889005A52084961
:100BB0005A5202315A5411B030BDC0465330000071
:100BC000B80B000060EA00006030000066300000F2
:100BD0000202000070B5160090B00022144B0D0008
:100BE00014490400FFF77CFC300001F03BFD40217C
:100BF0000300114A684601F0C7FC104A694620000C
:100C00000B4BFFF76DFC0E4A00280AD03100A0689C
:100C1000FFF78CFA00222000054B0A49FFF760FC21
:100C2000094A29002000FFF7A1FF10B070BDC0469F
:100C3000B80B0000683000007F3000002731000052
:100C40009C300000A2300000E933000070B50F4B6B
:100C50000E00110000220400FFF742FC0C4A00289D
:100C600005D0A068FFF758FD051E05D1094A3100DF
:100C70002000FFF77BFF70BD020031002000FFF76E
:100C800075FF280001F07EFBF5E7C046B80B0000B9
:100C9000A5300000B730000010B51300040090B07C
:100CA000002A04D1084AFFF761FF10B010BD4021AF
:100CB0006846064A01F068FC002269462000044BA1
:100CC000FFF70EFCF1E7C046D2300000E93000002B
:100CD000B80B0000F0B505000E0017008BB0002A1D
:100CE00067D0100001F0BEFC01F042FB041E06D1EB
:100CF00031002800384AFFF739FF0BB0F0BD39004A
:100D000001F0A8FC3549200001F04CFA33490700F6
:100D1000002001F047FA0090002F4BD0002849D066
:100D2000380001F0FEF9002844D0380001F0F9F94C
:100D300043B20193019A02AB1A70FF2302AA5372C5
:100D4000FD3B937202AB00990822581C01F0A2FCF3
:100D5000234FB96A002928D00131F86A490101F00E
:100D600009FC00280AD0BB6AF8625B01C018202287
:100D700002A901F0E7FBBB6A0133BB622422184BD6
:100D80005F6B1B6B5343FB180093009BBB421CD053
:100D90000023019AFB56934205D102AB0822781C2E
:100DA000591C01F077FC2437EFE7202001F0E0FA2E
:100DB000D7E71400310028000A4AFFF7D7FE002CBD
:100DC0009BD0200001F0DEFA97E731002800064AA8
:100DD000FFF7CCFEF5E7C046FC300000CE35000042
:100DE000080100200A31000029310000F7B5324B1C
:100DF000324A33490400FFF773FB0090002803D107
:100E0000002300930098FEBDA068FFF753FB022863
:100E1000F6D9A068FFF756F9A068FFF753F9A06864
:100E2000FFF77AFC051EEBD0264F390001F0BAF926
:100E300039000600002001F0B5F923490700002021
:100E400001F0B0F90190002E03D0002F01D000284E
:100E500003D1280001F096FAD2E7A0681B49FFF7FA
:100E600065F93100A068FFF761F9194E0022124BB5
:100E700031002000FFF734FBA0681649FFF756F950
:100E80003900A068FFF752F900220B4B3100200017
:100E9000FFF726FBA0681049FFF748F90199A06801
:100EA000FFF744F9002231002000034BFFF718FB45
:100EB000280001F067FAA5E7B80B0000E93300004D
:100EC00038310000CE3500005431000057310000A9
:100ED000A4300000633100006D310000F0B5002542
:100EE000734B89B004000E0006930795FFF77EFF51
:100EF000A8422AD02A006F4B6F492000FFF7F0FA72
:100F00002A006C4B6D492000FFF7EAFA2A00200006
:100F1000684B6B49FFF7E4FA2000FFF767FBA84234
:100F200013D02A00634B67492000FFF7D9FA664BBC
:100F3000664A67492000FFF7D3FA664902005D4B15
:100F4000A8420CD12000FFF7CBFA06A8FFF7A1FBBF
:100F500031002000604AFFF709FE09B0F0BD2A0009
:100F60002000FFF7BDFA72B680215C4B5A688A43B5
:100F70005A6080225200029503920493029B049AC5
:100F80009B0100935B08D361554B049A1380554E27
:100F900035003178002904D02000013602F050FBE2
:100FA000F7E76B461F88052328352A881E00013B7A
:100FB000DBB2BA420CD8013EF6B2FF2E12D030217D
:100FC0002B88BB4209D8FF1A0131BFB2C9B2F8E77A
:100FD0000235012BE9D11E00EDE7200002F030FBC5
:100FE0000235E8E782250D21200002F029FB2000D0
:100FF00002F016FBA368AD005B5920001B8D02F0C8
:101000000FFB0020A36801275B5905001B8D009B87
:10101000033B0593002804D1200002F001FB784037
:10102000C0B203232A001A40D100FC338B40019E3A
:101030009E430196002809D18223A6689B00F3589D
:101040001B8DDBB28B40019919430191032A02D118
:10105000059B019A5A510135402DDBD100281ED144
:10106000C935FF35200002F0DBFA002803D0A36861
:101070005B591B8DF6E7009B039A40330093934224
:1010800000D084E7039B0133FF330393029B0433B7
:1010900002938023029A5B009A4200D06EE7BFF36E
:1010A0004F8F114B114ADA60BFF34F8FFEE7C046F6
:1010B000342F0000B80B0000D02F00007731000063
:1010C00087310000A0310000F8240100BB3100008E
:1010D000A430000014300000CB310000004000417B
:1010E00002A5FFFF4800002000ED00E00400FA0523
:1010F000F0B504000E00170093B0002A4CD0100089
:1011000001F0B0FA01F034F9051E06D131002000DB
:10111000264AFFF72BFD13B0F0BD390001F09AFA13
:10112000234F2800390001F03DF8390001900020DC
:1011300001F038F8019B002B2FD000282DD0402142
:1011400007781C4A02A801F01FFA00221A4B02A9D4
:101150002000FFF7C5F94021019B184A02A801F0C1
:1011600013FA2000144B164A02A9FFF7B9F9002818
:1011700009D03900A068FEF7C9FF002220000E4BFD
:101180001049FFF7ADF9310020000F4AFFF7EEFCE0
:10119000280001F0F7F8BEE71500310020000B4AE7
:1011A000FFF7E4FC002DB6D0F2E7C046FC300000AB
:1011B000CE350000D9310000B80B0000EF3100003F
:1011C00027310000A2300000E93300000A3200009D
:1011D0000EB4F3B507AC050080CC0068009401F0B4
:1011E00041FAEB79060001947F2B23D92B6818185C
:1011F0006B68D902C90A891B23003A0001F0A0FAE2
:101200006B683118DB020400DB0A99420DDB013107
:101210008B4202DA2800FFF7D1FB2868611C3A00F4
:10122000019B801901F08CFA04002000F6BC08BC78
:1012300003B0184700200100DEE7F0B5264B89B067
:1012400006930023050006A807930E00FFF72FFA68
:101250002422FA27214BBF005C6B1B6B5343E3181E
:101260000593059BA3422CD00023E3560393637A96
:101270000493FEF795FF236A3900C01A01F09CFD24
:10128000049B01900093039A631C154906A8FFF77D
:101290009FFF637A022B09D0032B0FD0012B0BD1B8
:1012A0006289104906A8FFF793FF05E0A3896289C8
:1012B0000D4906A8FFF78CFF2434D2E762890B4959
:1012C000F0E73100069A2800FFF750FC06A8FFF768
:1012D000E0F909B0F0BDC046342F0000080100203D
:1012E00029320000633200008A320000CC32000054
:1012F000F7B50F4B0C26009300230193C36805003C
:101300005E4303690F001C009E19A64206D02268A6
:1013100068460849FFF75CFF0C34F6E739002800FF
:10132000009AFFF723FC6846FFF7B3F9F7BDC04604
:10133000342F0000F4320000F7B52A4B0D000022D4
:1013400029490400FFF7CCF8002802D10027380013
:10135000FEBDA068FFF7E0F9061EF7D0234900F0B4
:1013600021FF00270400002C38D0200001F07AF97A
:101370000190042828D904381D49201801F060F98B
:10138000002821D10137002D1ED0019801210338FA
:1013900001F0CEF80190200001F064F92100021F55
:1013A000019801F0CFF82968002913D0013168684D
:1013B000890001F0DFF8002806D02B6801999A0017
:1013C0000133686011502B600020084900F0EAFEEC
:1013D0000400C8E7042000F0CBFFECE7300000F089
:1013E000D1FFB4E7B80B0000F8320000A2300000D3
:1013F0006C340000F0B50024050087B0194B04A838
:1014000004930E000594FFF752F9280002A90294F4
:101410000394FFF791FF039A029B14009B00D318DB
:101420000193019BA3420ED080CC28003900FFF726
:1014300067FB3A0003000C4904A8FFF7C9FE380017
:1014400000F0A0FFEDE731002800049AFFF78EFBC3
:101450000398002801D000F095FF04A8FFF719F9C0
:1014600007B0F0BD342F000004330000FEE7054A4A
:101470000300916D002901D103499165906DC31856
:10148000936570470801002094050020FEE710B521
:101490000148FEF75DFE10BD7003002010B5024844
:1014A000FEF756FE10BDC0466401002030B5802412
:1014B0000025044964048A6BCB6B12196B418A6363
:1014C000CB6330BD080100200122034B1A72034A8E
:1014D000536B0133536370470014004048000020F1
:1014E0005F4A604B70B560499A4200D0B3E000217A
:1014F0005E4B5F4A934200D2B0E07F225D4B3020CA
:1015000093435D4A0324936002225C4B5A625C4B16
:10151000997B81430800202101430C209973997B1A
:101520008143043801439973997BA1431143997313
:10153000802354494C682343C0244B60524BA40081
:101540001D6A2C431E251C624C68AC4322434A6032
:101550004E4A91690843012190614D4A1078014338
:1015600011701178C90702D55178C909F9D18020C5
:10157000196A81431962474991604749516051781E
:10158000C909FCD18621C90151805178C909FCD112
:101590008020998C81439984D968C906FCD5C020E4
:1015A000D96A0001090C090401438020D962D96A73
:1015B000C004890189090143D962D96A37480840C2
:1015C000802149020143D962D968C906FCD581212D
:1015D000988C890001439984D968C906FCD580217B
:1015E00098680143996040219868014399601021EF
:1015F0009868014399600221988C01439984D968C5
:10160000C906FCD59968090602D499684906F9D536
:101610009968C906FCD5002393605378DB09FCD197
:101620001F4B53605178C909FCD1002400251D4B84
:101630001D4A9C63DD631D4B19605A609A60072246
:101640001A6080221A4B12061A6000F07FFD00F02B
:10165000D9F801CA01C38B42FBD348E702C349E76B
:101660005436000000000020E4000020E8000020C4
:10167000940500200000000000ED00E0FC70004137
:1016800000480041004000410008004000040040C4
:10169000000C00400340000003060100FFFF00FCB7
:1016A0000007030008010020FFFFFF0010E000E03A
:1016B00000E100E0F0B58221802781240026444B20
:1016C000444D4548454ABF00A4008900DE531E54DE
:1016D0005E535A501E55424B87B0DE531E545E5324
:1016E0004048414D1E555850AB64404B04210224E4
:1016F00018006A656C642E64EE642E654230996051
:101700000278A24303AC027022009961384B08337F
:1017100083CB83C22F004C37380021000197FFF79D
:1017200063F82200324B143383CB83C2210001982B
:10173000FFF75AF822002E4B203383CB83C22100BF
:101740000198FFF751F82200294B2C3383CB83C239
:1017500021000198FFF748F82200254B383383CB4E
:1017600083C221000198FFF73FF82200204B443349
:1017700083CB83C221000198FFF736F822001C4B6F
:10178000503383CB83C221000198FFF72DF8194C09
:1017900019492200194800F0BDFC2B0054332B607E
:1017A0000E23AB6001332B6180239B01EB82052369
:1017B0002200280012496E60EE602E83AB776B62C8
:1017C000AE62EE622E636E6300F0A4FC07B0F0BD63
:1017D000640100200202000005020000000800422F
:1017E00070030020000C004208010020004400416A
:1017F000342F000044000020810600004801002032
:1018000045060000F0B5ABB01AAC2200EE4BEF4E2F
:101810005C3323CB23C203CB03C282239B00F35848
:10182000EB4AEC4D934200D007E208232A6A1343A7
:101830002B62E94BE94A20005380A17C4B1E994161
:101840000231FEF703FEE17C1CA84B1E99410231D8
:10185000FEF7FCFD822302209B00F1580A688243B8
:101860000A600122F158086802430A60F2581368BE
:10187000DB07FCD41C2113681AAF8B4318390B43C8
:10188000136082228021D14B92009858C9050468C8
:101890002143016003209E58397C34680140D048C0
:1018A000090404400C433460844698587E7C0168E7
:1018B0000320CC4C304000052140014398580426B9
:1018C00001609858C84908948181C02099588002C5
:1018D00048609958887D3043887560469A58C34956
:1018E00007908A4200D0AEE18020C14980000860A4
:1018F00002211068014311600121BE4A995412A9C6
:101900000A00B14B703351CB51C251CB51C211CBF4
:1019100011C22022380000F015FEB74C636D1A008A
:10192000AB4B9A4200D096E108232A6A13432B62FC
:10193000AA4AA94B5380A94B5B78DB09FBD1397EBE
:1019400038004B1E99410231FEF780FD797E1CA8BC
:101950004B1E99410231FEF779FDB97E1EA84B1E40
:1019600099410231FEF772FD0221626D13688B43CB
:1019700013600123626D11680B431360636D1A6875
:10198000D207FCD41C211A6803208A4311000C22C0
:101990000A431A60626D397F1368079E014009048B
:1019A0001E400E431660616DFA7E0B680240089877
:1019B0001205034013430B60636DDA695207FCD4D0
:1019C0008022596892020A435A60DA695207FCD4AD
:1019D00014221A731968123A0A431A60626DD369A5
:1019E0009B07FCD410210225844B8548996002781E
:1019F000AA4302705961E568626820690C93AA42A3
:101A000002D1A368834210D00121A668D301B1405E
:101A10008C467A495B18614699609B1902264033CF
:101A20001978B1431970AA4202D1A36883420DD03C
:101A300001222169E3688A407048DB011B189A6023
:101A40005B18022140331A788A431A70012500205E
:101A5000FEF7FAFA2A00236968499A40E368DB0135
:101A60005B189A6101F0E4FD01F0E2FD0C21002019
:101A7000FEF7F2FB5F210420FEF7EEFB0220FEF7EB
:101A800013FC002800D0A5750620FEF7B3FB002646
:101A900005000020FEF708FCFEF7F0FA5021206850
:101AA000FEF798FB73212068FEF794FBFEF7F8FA27
:101AB00000211D20FEF7D0FB00211C20FEF7CCFBEF
:101AC000702107202676FEF7C7FB4C210520FEF784
:101AD000C3FBE220FEF706FCFEF714FCFEF7D4FB86
:101AE0003000FEF787FB01239843C1B2013D30006F
:101AF000FEF7B2FBE8B21025FD2800D9B7E0782147
:101B00000520FEF7A9FB3F210120FEF7A5FB5F2181
:101B10000420FEF7A1FB20230620E375FEF76AFBF5
:101B200007239843C1B219430620FEF795FB300006
:101B3000FEF7BAFB0023334A0EA90E920F930B2037
:101B4000A27FFEF76BFBE17D1220FEF785FB0220F2
:101B5000FEF750FB010002200143C9B2FEF77CFBF7
:101B6000FEF7F6FB0D21A06CFEF7D0FA2000FA2359
:101B7000254D264E2A00310040305B00FEF7B0FCB8
:101B8000002879D103230793023B0893636C089ADA
:101B90001F499A40236CDB015B181A6001F048FD75
:101BA000636C089A1B499A40236CDB015B181A602E
:101BB00001F03EFDFA2320005B000093EF3B2A007A
:101BC00031004030FF3B27E0342F0000700300203D
:101BD000000C0042000400400F400000000C0040D8
:101BE000FFFFFCFFFFFFCFFF2BF6FFFF00080042C7
:101BF00000E100E00502000008010020004400416F
:101C000044440041FF040000E93300003F3300007A
:101C10001444004118440041FEF7D2FC00282BD1A7
:101C2000079B013B0793002BB0D11024FEF7F8FD72
:101C30000C9BDC6101F0FCFCF8E704232A6A1343E7
:101C40002B62D14BF6E5D1498A4200D050E6802084
:101C5000CF49C0004BE604232A6A13432B62CD4AC6
:101C6000C94B5380CB4B5B78DB09FBD167E60C9B00
:101C7000DD6101F0DDFCFAE72500C74E4035330099
:101C80000022C6492800FEF72BFC19232800C44A6D
:101C9000C4490096FEF794FC0028C6D03300002209
:101CA000C1492800FEF71CFC33000022BF49280070
:101CB000FEF716FC80210023A26C89005352BC4918
:101CC000535202315354BB4A127852061ED5280093
:101CD00039001A937B60FFF72FFB1A9B1B9D9E0018
:101CE0001B9B9B190793079B9D420AD0200040CD68
:101CF000B14A31004030FEF739FF300000F042FBBE
:101D0000F1E77868002801D000F03CFB3A00AB4BCB
:101D10004C34103323CB23C2612539002000FEF759
:101D200063FDA74B39001A93A64B20007B603D72E0
:101D3000FEF75AFDA44B39001A93A44B20007B6098
:101D40003D72FEF751FDA24B924A9360A14B536046
:101D5000904B5B78DB09FBD19F4B8E4A53808D4BB8
:101D60005B78DB09FBD19D4C9D4A22809D4A136024
:101D700001331371E27913430822E371844B1A6033
:101D80000223228813432380FEF74AFE0894964CD0
:101D9000A06CFEF78FFB002816D001F049FCA06C68
:101DA000FEF7BAFC099000280ED0904900F086FC9E
:101DB00000286AD020000022774B8D494030FEF782
:101DC0008FFB099800F0DEFAFEF72AFD10220C9B2B
:101DD000DA61884B5A6B092AD9DD00255D63FEF76D
:101DE0001FFE236BAB42D2D024275F43824A646B31
:101DF00010921195E719A74200D116E1667A089B67
:101E000008990898089D1A691B69096900692D6974
:101E10000596661C049600268902A657C0032D0568
:101E2000C90EC00E9B01AD0E1B0F01900091920ECA
:101E300072490396029510A8FFF7CAF9637A032B3B
:101E400004D0042B00D1E7E0012B04D162896C4956
:101E500010A8FFF7BDF9109800F004FC119B461C78
:101E60000793DB020500DB0A9E4205DB811C8B42E7
:101E700002DA10A8FEF7A2FD0A22109B24345A555C
:101E800000220793109B9A55B5E75E49099800F028
:101E900015FC002895D00378002B05D0303B092B8A
:101EA00025D800F03EF903004021574A1AA800F057
:101EB0006BFB2000554E384B320040301AA9FEF71C
:101EC0000FFB002800D17CE7A06CFEF725FC051E67
:101ED00000D176E7310000F0F1FB0A21070000F0A5
:101EE000A1FB002805D1280000F04CFA69E7013079
:101EF000D1E7431C180046490A9300F0DFFB002895
:101F0000F1D0002643490670380000F0D7FBB042FC
:101F1000E9D0831C222118000B9300F083FB0028DA
:101F2000E1D0067020210A9800F07CFB031E079088
:101F300002D00133067007930C23E76C5F43236DD7
:101F4000DF191E009F42CED018680A9900F050FB9E
:101F500033000D900C330028F3D1270040373800B0
:101F60000B99FEF7CDFD337A834206D820007368C3
:101F7000079A0B9940309847B5E738000D99FFF75D
:101F8000DBF90028F2D0AEE70E400000000C004262
:101F900000E100E0000C0040B80B000042330000FC
:101FA00047330000523300005B330000653300000C
:101FB000020200003804004078330000B42F000013
:101FC000B7330000D50C0000BF33000061060000ED
:101FD0000120000001030100044100000014004042
:101FE000080A00001814004008010020C533000052
:101FF000CA33000048000020342F0000EF330000F7
:1020000022340000CE330000D4330000DF33000060
:10201000E5330000EC330000A17BA389628910A89E
:1020200000912D49FFF7D4F815E72C4D109E2C0098
:1020300040342000FEF7DAFE00282FD00022284B83
:1020400028492000FEF74CFA2749A86CFEF76EF8E5
:102050000022234B25492000FEF742FA00222000EF
:102060001F4B2349FEF73CFA2000FEF7BFFA002879
:1020700014D000221A4B1F492000FEF731FA20002D
:102080001D4B1E4A1E49FEF72BFA00280AD12800D4
:102090000022134B1B494030FEF722FA10A8FEF72E
:1020A000F8FA74E6300000F0DDFA40210300164A29
:1020B0001AA800F069FA0022094B1AA92000FEF7BD
:1020C0000FFA3100A86CFEF731F820000A4B0F4AD6
:1020D0000F49FEF705FADAE72C340000080100206A
:1020E000B80B000049340000593400006834000087
:1020F0007134000085340000F824010091340000A0
:10210000A4300000143000009F340000AE34000002
:10211000BB340000030010B50800190000F008F8F7
:1021200010BD10B50A22002100F016F910BDFFFF06
:1021300010B5040004481300002804D00A0002204F
:10214000210000E000BF10BD0000000070B50026B7
:102150000C4D0D4C641BA410A64209D1002601F0C1
:102160004FFA0A4D0A4C641BA410A64205D170BD5B
:10217000B300EB5898470136EEE7B300EB589847A9
:102180000136F2E70C3600000C3600000C36000079
:102190001436000003008218934200D17047197072
:1021A0000133F9E7F8B5124B05001F680E00BC6D4E
:1021B000002C16D1502000F0DBF8B86504604460B4
:1021C0008460C4600461446184618462C4620463A5
:1021D00044638463C463046444648464C4640477AF
:1021E000446231002800BA6D012300F003F8F8BD05
:1021F00080000020F0B5002802D11068002813D01C
:10220000040020000E00057801343778002F04D137
:10221000002D0FD12800156006E00136BD42F4D133
:10222000002BEED114600370F0BD2F000FE00133DE
:10223000002E04D1230001341D7827000B001E78E6
:10224000B542F4D1002DF0D00023013C237017607B
:10225000EAE7FFFFF0B51E003D4B87B00590029204
:1022600008009C4608220191030061461C78451C29
:10227000095D28000F0017401142F5D12D2C33D1F4
:1022800001272C789D1C002E5DD0102E09D1302CFA
:1022900007D120222B789343582B4FD110266C78EE
:1022A00002352C4B3100FB181800039300F00AFE96
:1022B0000023012284461800049152422100303943
:1022C000092916D80C00A6421FDD591C09D013009D
:1022D000844506D302D10499A14202DB0123704355
:1022E00020182C780135E9E72B2CCCD12C789D1CBB
:1022F000C9E721004139192901D8373CE3E721001A
:102300006139192901D8573CDDE75A1C08D1059AD3
:1023100023331360029B0398002B09D107B0F0BD53
:10232000002F00D04042029A002AF7D0002B01D0A3
:102330006B1E0193029B019A1A60EFE73024002E76
:10234000AFD10836ADE7302CA3D00A26A9E7C046A6
:10235000CA340000FFFFFF7F10B513000A00010020
:1023600002480068FFF776FF10BDC04680000020DD
:1023700010B5034B0100186800F058F810BDC046B6
:102380008000002010B5034B0100186800F004F82D
:1023900010BDC0468000002070B50500002910D097
:1023A0000C1F2368002B00DAE418280000F0AEF8B8
:1023B0001D4A1368002B05D163601460280000F0EB
:1023C000ADF870BDA34208D9216860188342F3D1EB
:1023D00018685B6841182160EEE71A005B68002B03
:1023E00001D0A342F9D911685018A0420BD120683E
:1023F0000918501811608342E0D118685B684118D1
:1024000011605360DAE7A04202D90C232B60D5E7B4
:1024100021686018834203D118685B684118216005
:1024200063605460CAE7C0467C050020F8B503230A
:10243000CD1C9D43083506000C2D1FD20C25A9424A
:102440001ED8300000F062F825490A681400002CFC
:102450001AD1244F3B68002B04D12100300000F03A
:1024600043F838602900300000F03EF8431C2BD1BF
:102470000C233000336000F051F803E0002DDEDA69
:102480000C2333600020F8BD23685B1B19D40B2B91
:1024900003D92360E418256003E06368A2420ED1EB
:1024A0000B60300000F03AF8200007220B30231DAB
:1024B0009043C21A9842E6D01B1AA350E3E7536038
:1024C000EFE722006468C2E70323C41C9C43A042D8
:1024D000E1D0211A300000F007F8431CDBD1C7E738
:1024E0007C05002080050020002370B5064D040007
:1024F00008002B60FEF7BBFF431C03D12B68002BA9
:1025000000D0236070BDC0468405002010B502488D
:1025100000F00CF810BDC0468C05002010B5024834
:1025200000F005F810BDC0468C05002070477047CC
:1025300010B5034B0A000100186800F00CF810BD3C
:1025400080000020002310B59A4200D110BDCC5C61
:10255000C4540133F8E74A4370B511001500FFF782
:1025600065FF041E03D02A000021FFF713FE2000A0
:1025700070BDFFFF10B5034B0A000100186800F0A2
:10258000EBF810BD800000200CB430B5174B0C00E8
:102590001D689DB0002908DA8B2301202B60404282
:1025A0001DB030BC08BC02B0184782236A469B00AD
:1025B0009382002302900690994200D04B1E049310
:1025C000079301236A465B42D382280021AB209AFD
:1025D00002A9019300F048F9431C01DA8B232B6018
:1025E000002CDDD00023029A1370D9E78000002070
:1025F000F0B5050000240327094E2A5DB35C3B407B
:10260000012B00D120320B5DF05C3840012800D155
:102610002033D01A9A4202D10134002BEDD1F0BD03
:10262000CA340000C9B20378002B04D08B4200D119
:1026300070470130F7E74B42594149420840F7E7FC
:1026400002780B78002A03D0013001319A42F7D08A
:10265000D01A704703000A7801311A700133002A3A
:10266000F9D170470023C25C0133002AFBD1581E08
:10267000704730B50500101E0BD00024013A2B5DC9
:10268000085D834204D1944202D00134002BF6D17C
:10269000181A30BD030030B51D00002A06D00C7892
:1026A000013A01332C700131002CF5D100219A1828
:1026B000934200D130BD19700133F9E70A7830B583
:1026C000002A0CD130BD9A4208D10123CC5C002CE9
:1026D000F8D0C55CA54201D10133F7E7013003789A
:1026E000002BF0D11800EDE730B5140005001A00FA
:1026F0009BB0002C05DA8B230360012040421BB005
:1027000030BD822368469B008381002300910491A1
:102710009C4200D0631E02930593012369465B42ED
:10272000CB8128001E9B00F09FF8431C01DA8B230D
:102730002B60002CE3D00023009A1370DFE7FFFF2B
:1027400007B5009313000A00010002480068FFF774
:10275000CBFF0EBD80000020F8B507000D0016006D
:10276000002905D11100FFF761FE04002000F8BD2B
:10277000002A03D1FFF710FE3400F7E700F014FB46
:102780002C00B042F2D231003800FFF74FFE041E99
:10279000ECD029003200FFF7D5FE29003800FFF702
:1027A000FBFDE3E7F0B58E6885B007000C000392EF
:1027B00001939E423CD890238A89DB001A4234D090
:1027C0000325096923685B1A0293636902985D43D4
:1027D000EB0F5D19019B6D1001331B18AB4200D943
:1027E0001D00530532D529003800FFF71FFE061ED5
:1027F00009D10C233B6040230120A28940421343AE
:10280000A38105B0F0BD029A2169FFF79BFEA38961
:10281000144A1A4080231343A381029B2661F618B1
:1028200026606561019EED1AA560019B9E4200D95C
:10283000019E32000399206800F0A3FAA3680020EB
:102840009B1BA36023689E192660DAE72A003800E4
:10285000FFF782FF061EE0D138002169FFF79CFDDB
:10286000C7E7C0467FFBFFFFF0B5A1B003901D0096
:102870008B890F0016001B0611D50B69002B0ED19A
:102880004021FFF7D3FD38603861002805D10C23C3
:10289000039A0138136021B0F0BD40237B6100230F
:1028A00008AC6361203363761033A3760795350057
:1028B0002B78002B01D0252B47D1AB1B0593B542BC
:1028C0000CD0320039000398FFF76CFF431C00D195
:1028D000AEE06269059B9446634463612B78002BEC
:1028E00000D1A5E0012200235242626004A95432C3
:1028F00052186E1C2360E360A3601370A365052269
:102900003178544800F032FA751C00281FD1226833
:10291000D30604D5532304A95B182021197013078B
:1029200004D5532304A95B182B21197033782A2B63
:1029300016D0350000210A20E3682A786E1C303A50
:10294000092A4ED9002911D117E00135B0E7414BD2
:102950002268C01A0123834013432E002360CEE770
:10296000079B191D1B680791002B01DB0B9304E0EB
:102970005B42E3600223134323602B782E2B0AD1A2
:102980006B782A2B35D1079B02351A1D1B680792DD
:10299000002B2BDB0993304E03223000297800F006
:1029A000E5F9002806D04023801B834022680135CA
:1029B000134323602978062228486E1C217600F0F4
:1029C000D5F900283CD0264B002B25D10722079BA8
:1029D00007339343083307936369049A9B18636131
:1029E00065E74343350001219B18A6E701235B42BD
:1029F000D0E700230A201A000135636029786E1C95
:102A00003039092903D9002BC5D00992C3E74243C5
:102A1000350001235218F1E707AB00933A0021007B
:102A2000104B039800E000BF0490049B0133D3D106
:102A3000BB890D985B0600D42DE7012040422AE7B0
:102A400007AB00933A002100064B039800F07CF896
:102A5000EAE7C046CA350000D0350000D435000092
:102A600000000000A5270000F7B5150001938A6853
:102A70000B690C000090934200DA130022002B60D7
:102A800043321278002A01D001332B6023689B0661
:102A900002D52B6802332B602268062317001F40E3
:102AA0001A4227D0230043331B785A1E93412268D1
:102AB000920630D4220001990098089E4332B04714
:102AC000431C25D0062320682A68E16800250340BE
:102AD000042B03D18D1AEB43DB171D40A368226939
:102AE000934201DD9B1AED180027BD4220D1002042
:102AF00010E00137E3682A689B1ABB42D2DD22004E
:102B0000012301990098089E1932B047431CF0D167
:102B100001204042FEBD3020E11843310870210001
:102B20005A1C45310978A218433202331170C1E7AB
:102B30002200012301990098089E1A32B047431CD5
:102B4000E6D00137D1E7FFFFF0B58BB006920A005F
:102B500043320793059004920A7E0C00109B782A5A
:102B600006D8622A08D8002A00D1C0E0582A52D0DC
:102B700026004236327022E0100063381528F7D85C
:102B800000F0CEF916001F00F6FFF6FFF6FFF6FF85
:102B90001F00F6FFF6FFF6FFF6FFA80036009A00CA
:102BA000F6FFF6FFB900F6FF3600F6FFF6FF9E00CF
:102BB00026001A684236111D19601368337001230C
:102BC000A7E0086819680A1D05060BD50D681A608C
:102BD000002D03DA2D23049A6D421370614B0A27EE
:102BE000039332E00D681A604106F1D52DB2EFE78C
:102BF0000D681968081D18602E0601D50D6803E0E0
:102C00006D06FBD50D68ADB2564B0A2703936F2AAC
:102C100017D1082715E045310A70524A03921A6805
:102C2000216820CA1A60080650D5CB0702D5202398
:102C3000194321601027002D03D1202322689A43D5
:102C400022602300002243331A706368A360002BC4
:102C500003DB0422216891432160002D02D1049EF0
:102C6000002B0CD0049E2800390000F02BF9039BA8
:102C7000013E5B5C33702B0005009F42F3D9082FA7
:102C800009D12368DB0706D563682269934202DC19
:102C90003023013E3370049B9B1B2361079B210063
:102CA00000930598069B09AAFFF7DEFE431C35D169
:102CB000012040420BB0F0BD202209680A43226087
:102CC0002200782145321170274AA7E74806ACD583
:102CD000ADB2AAE71A680D68101D4969186013683B
:102CE0002E0601D5196002E06D06FBD51980002380
:102CF000049E2361D2E71A68111D1960166800212D
:102D00003000626800F032F8002801D0801B60605B
:102D1000636823610023049A1370BFE723693200BC
:102D200006990598079DA847431CC1D023689B07B7
:102D300015D4099BE0689842BCDA1800BAE7220073
:102D4000012306990598079E1932B047431CAFD05E
:102D50000135E368099A9B1AAB42F0DCE9E70025EC
:102D6000F7E7C046DB350000EC350000C9B2821839
:102D7000904201D10020704703788B42FBD0013094
:102D8000F6E710B5884202D98B18984203D3002386
:102D900007E08B5C8354013AFBD210BDCC5CC45479
:102DA00001339A42FAD1F8E70B1F1B68181F002B5A
:102DB00001DA0B58C0187047002243088B4274D3C5
:102DC00003098B425FD3030A8B4244D3030B8B422C
:102DD00028D3030C8B420DD3FF22090212BA030C35
:102DE0008B4202D31212090265D0030B8B4219D316
:102DF00000E0090AC30B8B4201D3CB03C01A524136
:102E0000830B8B4201D38B03C01A5241430B8B427D
:102E100001D34B03C01A5241030B8B4201D30B0366
:102E2000C01A5241C30A8B4201D3CB02C01A52418D
:102E3000830A8B4201D38B02C01A5241430A8B4250
:102E400001D34B02C01A5241030A8B4201D30B0239
:102E5000C01A5241CDD2C3098B4201D3CB01C01A53
:102E6000524183098B4201D38B01C01A524143095D
:102E70008B4201D34B01C01A524103098B4201D34B
:102E80000B01C01A5241C3088B4201D3CB00C01AB8
:102E9000524183088B4201D38B00C01A5241430830
:102EA0008B4201D34B00C01A5241411A00D2014655
:102EB000524110467047FFE701B5002000F006F8C8
:102EC00002BDC0460029F7D076E770477047C0467C
:102ED000F0B515042D0C0F0001002E00C6468446E7
:102EE0000004140C000C090C46434D43604361433D
:102EF0004019340C241800B5A54203D980204002A3
:102F000080464144250C6D18614659437A4330048C
:102F100049192404000C2018891804BC9046F0BDFF
:102F200003B47146490840004900095E49008E44D7
:102F300003BC7047004E554C4C0000000C330000A1
:102F40004D0C00006700000011330000F11000007C
:102F50006700000018330000990C000067000000B3
:102F60001F330000F513000061000000273300004C
:102F7000DD0E0000670000002E330000F11200009B
:102F80006100000033330000D50B00006100000039
:102F90000000000018000000000000001900000000
:102FA0000103000000000000050000000000000018
:102FB00008000000000000000900000001010101FC
:102FC00001000000B23300003B120000610000006D
:102FD00041542B53415042523D332C312C2241500D
:102FE0004E222C22696E7465726E65742200415403
:102FF0002B53415042523D312C31002B5341504212
:10300000523A20312C310041542B53415042523D11
:10301000322C310041542B53415042523D302C311F
:10302000004C6973743A0A002B43434C4B3A20001E
:1030300041542B43434C4B3F0041542B4653524584
:1030400041443D433A5C25732E7478742C302C3106
:103050002C300041542B434D47533D222573220011
:103060002B434D4753001A0041542B4653435245BE
:103070004154453D433A5C6674702E64617400416E
:10308000542B465357524954453D433A5C6674703D
:103090002E6461742C302C25642C31004572726FC3
:1030A00072000D0A00436F6D6D616E642074696D6E
:1030B0006564206F757400756172742D3E72656170
:1030C0006428292072657475726E6564206E756C53
:1030D0006C0055736167653A2064656C6E756D2090
:1030E0003C6E756D6265723E0041542B46534445FB
:1030F0004C3D433A5C25732E747874006D616C6CA2
:103100006F63206661696C65640055736167653A39
:10311000207365746E616D65203C69643E203C6E71
:103120006577206E616D653E00436F6D6D616E6405
:10313000207175657565640041542B4653524541B5
:10314000443D433A5C6674702E6461742C302C36B6
:10315000342C3000200D0041542B4654505345521E
:10316000563D0041542B465450554E3D0041542B82
:1031700046545050573D0041542B465450474554F7
:10318000504154483D2F0041542B4654504745541C
:103190004E414D453D7570646174652E62696E00E7
:1031A00041542B465450474554544F46533D302CC0
:1031B0007570646174652E62696E002B46545047C9
:1031C0004554544F46533A20302C00557064617476
:1031D00065206661696C65640041542B4653435217
:1031E000454154453D433A5C25732E747874004143
:1031F000542B465357524954453D433A5C25732E50
:103200007478742C302C312C310055736167653A19
:10321000207365746E756D203C6E756D6265723ECF
:10322000203C6C6576656C3E004E6F64653A0A2002
:1032300049443A2025640A204E616D653A20257381
:103240000A20547970653A2025640A204C61737411
:10325000207365656E3A202564207365632061677D
:103260006F0A0020536F696C206D6F6973747572FB
:10327000652073656E736F723A0A20204D6F697313
:10328000747572653A2025640A002054656D706576
:10329000726174757265202B2068756D696469743C
:1032A000792073656E736F723A0A202054656D70D1
:1032B000657261747572653A2025640A202048752C
:1032C0006D69646974793A2025640A002054656D3B
:1032D00070657261747572652073656E736F723A92
:1032E0000A202054656D70657261747572653A20AC
:1032F00025640A0025730A0041542B46534C533D64
:10330000433A5C0025733A2025630A0065786563BB
:10331000007365746E756D0064656C6E756D006C20
:103320006973746E756D00757064617465006865AD
:103330006C700073657466747063726564730041C9
:10334000540041544530002B435245473A20302C1D
:10335000310041542B435245473F0041542B434DCC
:1033600047463D310041542B434D4744413D2244A3
:10337000454C20414C4C22005570646174652073AB
:1033800075636365737366756C2C207665727369FB
:103390006F6E20312E30206275696C74204D61791A
:1033A00020313320323032302032313A32393A3122
:1033B0003800696E666F007365746E616D650063D9
:1033C0006C6561720052494E4700415448002B43DE
:1033D0004D54490041542B434D47523D2564002B29
:1033E000434D4752000D0A0D0A4F4B002C22002579
:1033F0003032642F253032642F253032642025305E
:1034000032643A25303264202D204944202564203E
:103410006E616D6520252E387320747970652025C6
:1034200064002076616C75652025640020766F6CE1
:1034300074616765202564206C6967687420256461
:10344000207261696E2025640041542B465450500F
:103450005554504154483D2F0041542B4654505030
:1034600055544E414D453D00646174612E7478742D
:103470000041542B4654505055544F50543D224116
:10348000505045220041542B4654505055543D3124
:10349000002B4654505055543A20312C312C0041C9
:1034A000542B4654505055543D322C2564002B4625
:1034B00054505055543A20312C300041542B46542E
:1034C000505055543D322C30000020202020202028
:1034D00020202028282828282020202020202020C4
:1034E00020202020202020202020881010101010C4
:1034F0001010101010101010101004040404040414
:1035000004040404101010101010104141414141F6
:10351000410101010101010101010101010101015B
:1035200001010101011010101010104242424242EC
:10353000420202020202020202020202020202022B
:103540000202020202101010102000000000000011
:10355000000000000000000000000000000000006B
:10356000000000000000000000000000000000005B
:10357000000000000000000000000000000000004B
:10358000000000000000000000000000000000003B
:10359000000000000000000000000000000000002B
:1035A000000000000000000000000000000000001B
:1035B000000000000000000000000000000000000B
:1035C00000000000000000000000232D302B200030
:1035D000686C4C00656667454647003031323334CD
:1035E000353637383941424344454600303132336D
:1035F00034353637383961626364656600FFFFFF32
:10360000F8B5C046F8BC08BC9E46704729000000CB
:10361000B5160000F8B5C046F8BC08BC9E46704719
:1036200001B40248844601BC604700BF0D00002081
:1036300001B40248844601BC604700BF010000207D
:1036400001B40248844601BC604700BF2D00002041
:043650000100000075
:103654000F210139FDD10138FAD1704782238268E4
:103664009B00D158044A0B7E5B07D80F002B02DB6A
:10367400013A002AF7D1704741420F008223826841
:103684009B00D25811858268D258137EDB07FCD583
:103694007047C0460000000041542B465352454138
:1036A400443D433A5C557365725C4654505C757096
:1036B400646174652E62696E2C312C36342C0000E2
:1036C4001027E80364000A00010000000A0000005B
:1036D4008400002000000000000000000000000042
:1036E40000000000000000000000000000000000D6
:1036F40000000000000000000000000000000000C6
:1037040000000000000000000000000000000000B5
:1037140000000000000000000000000000000000A5
:103724000000000000000000000000000000000095
:043734000000000091
:04000003000014E104
:00000001FF
